{
  "contractName": "CharitableDonations",
  "abi": [
    {
      "inputs": [],
      "stateMutability": "nonpayable",
      "type": "constructor"
    },
    {
      "anonymous": false,
      "inputs": [
        {
          "indexed": true,
          "internalType": "address",
          "name": "previousOwner",
          "type": "address"
        },
        {
          "indexed": true,
          "internalType": "address",
          "name": "newOwner",
          "type": "address"
        }
      ],
      "name": "OwnershipTransferred",
      "type": "event"
    },
    {
      "anonymous": false,
      "inputs": [
        {
          "indexed": false,
          "internalType": "uint256",
          "name": "pledgeId",
          "type": "uint256"
        },
        {
          "indexed": false,
          "internalType": "address",
          "name": "contributor",
          "type": "address"
        },
        {
          "indexed": false,
          "internalType": "uint256",
          "name": "amount",
          "type": "uint256"
        }
      ],
      "name": "PledgeContribution",
      "type": "event"
    },
    {
      "anonymous": false,
      "inputs": [
        {
          "components": [
            {
              "internalType": "uint256",
              "name": "id",
              "type": "uint256"
            },
            {
              "internalType": "address",
              "name": "creator",
              "type": "address"
            },
            {
              "internalType": "uint256",
              "name": "createdAt",
              "type": "uint256"
            },
            {
              "internalType": "uint256",
              "name": "initialPledge",
              "type": "uint256"
            },
            {
              "internalType": "uint256",
              "name": "goalAmount",
              "type": "uint256"
            },
            {
              "internalType": "uint256",
              "name": "raisedAmount",
              "type": "uint256"
            },
            {
              "internalType": "uint256",
              "name": "duration",
              "type": "uint256"
            },
            {
              "internalType": "uint256",
              "name": "endedAt",
              "type": "uint256"
            },
            {
              "internalType": "address",
              "name": "charityAddress",
              "type": "address"
            }
          ],
          "indexed": false,
          "internalType": "struct CharitableDonations.Pledge",
          "name": "pledge",
          "type": "tuple"
        }
      ],
      "name": "PledgeCreated",
      "type": "event"
    },
    {
      "anonymous": false,
      "inputs": [
        {
          "indexed": false,
          "internalType": "uint256",
          "name": "pledgeId",
          "type": "uint256"
        },
        {
          "indexed": false,
          "internalType": "uint256",
          "name": "timestamp",
          "type": "uint256"
        }
      ],
      "name": "PledgeEnded",
      "type": "event"
    },
    {
      "anonymous": false,
      "inputs": [
        {
          "indexed": false,
          "internalType": "uint256",
          "name": "pledgeId",
          "type": "uint256"
        },
        {
          "indexed": false,
          "internalType": "address",
          "name": "contributor",
          "type": "address"
        },
        {
          "indexed": false,
          "internalType": "uint256",
          "name": "amount",
          "type": "uint256"
        }
      ],
      "name": "Withdrawal",
      "type": "event"
    },
    {
      "inputs": [],
      "name": "owner",
      "outputs": [
        {
          "internalType": "address",
          "name": "",
          "type": "address"
        }
      ],
      "stateMutability": "view",
      "type": "function",
      "constant": true
    },
    {
      "inputs": [],
      "name": "renounceOwnership",
      "outputs": [],
      "stateMutability": "nonpayable",
      "type": "function"
    },
    {
      "inputs": [
        {
          "internalType": "address",
          "name": "newOwner",
          "type": "address"
        }
      ],
      "name": "transferOwnership",
      "outputs": [],
      "stateMutability": "nonpayable",
      "type": "function"
    },
    {
      "inputs": [
        {
          "internalType": "uint256",
          "name": "initialPledge",
          "type": "uint256"
        },
        {
          "internalType": "uint256",
          "name": "goalAmount",
          "type": "uint256"
        },
        {
          "internalType": "uint256",
          "name": "duration",
          "type": "uint256"
        },
        {
          "internalType": "address",
          "name": "charityAddress",
          "type": "address"
        }
      ],
      "name": "createPledge",
      "outputs": [],
      "stateMutability": "payable",
      "type": "function",
      "payable": true
    },
    {
      "inputs": [
        {
          "internalType": "uint256",
          "name": "pledge",
          "type": "uint256"
        }
      ],
      "name": "getPledge",
      "outputs": [
        {
          "components": [
            {
              "internalType": "uint256",
              "name": "id",
              "type": "uint256"
            },
            {
              "internalType": "address",
              "name": "creator",
              "type": "address"
            },
            {
              "internalType": "uint256",
              "name": "createdAt",
              "type": "uint256"
            },
            {
              "internalType": "uint256",
              "name": "initialPledge",
              "type": "uint256"
            },
            {
              "internalType": "uint256",
              "name": "goalAmount",
              "type": "uint256"
            },
            {
              "internalType": "uint256",
              "name": "raisedAmount",
              "type": "uint256"
            },
            {
              "internalType": "uint256",
              "name": "duration",
              "type": "uint256"
            },
            {
              "internalType": "uint256",
              "name": "endedAt",
              "type": "uint256"
            },
            {
              "internalType": "address",
              "name": "charityAddress",
              "type": "address"
            }
          ],
          "internalType": "struct CharitableDonations.Pledge",
          "name": "",
          "type": "tuple"
        }
      ],
      "stateMutability": "view",
      "type": "function",
      "constant": true
    },
    {
      "inputs": [
        {
          "internalType": "uint256",
          "name": "pledgeId",
          "type": "uint256"
        },
        {
          "internalType": "uint256",
          "name": "amount",
          "type": "uint256"
        }
      ],
      "name": "contributeToPledge",
      "outputs": [],
      "stateMutability": "payable",
      "type": "function",
      "payable": true
    },
    {
      "inputs": [
        {
          "internalType": "uint256",
          "name": "pledgeId",
          "type": "uint256"
        }
      ],
      "name": "endPledge",
      "outputs": [],
      "stateMutability": "nonpayable",
      "type": "function"
    },
    {
      "inputs": [
        {
          "internalType": "uint256",
          "name": "pledgeId",
          "type": "uint256"
        },
        {
          "internalType": "address payable",
          "name": "addr",
          "type": "address"
        }
      ],
      "name": "withdraw",
      "outputs": [],
      "stateMutability": "nonpayable",
      "type": "function"
    }
  ],
  "bytecode": "0x6080604052600160025534801561001557600080fd5b5061003261002761007860201b60201c565b61008060201b60201c565b33600160006101000a81548173ffffffffffffffffffffffffffffffffffffffff021916908373ffffffffffffffffffffffffffffffffffffffff160217905550610144565b600033905090565b60008060009054906101000a900473ffffffffffffffffffffffffffffffffffffffff169050816000806101000a81548173ffffffffffffffffffffffffffffffffffffffff021916908373ffffffffffffffffffffffffffffffffffffffff1602179055508173ffffffffffffffffffffffffffffffffffffffff168173ffffffffffffffffffffffffffffffffffffffff167f8be0079c531659141344cd1fd0a4f28419497f9722a3daafe3b4186f6b6457e060405160405180910390a35050565b611ab6806101536000396000f3fe60806040526004361061007a5760003560e01c806390c4ce521161004e57806390c4ce5214610106578063f1f7165414610143578063f2fde38b1461016c578063f9727d9c146101955761007a565b8062f714ce1461007f5780633f221f79146100a8578063715018a6146100c45780638da5cb5b146100db575b600080fd5b34801561008b57600080fd5b506100a660048036038101906100a19190611183565b6101b1565b005b6100c260048036038101906100bd91906111c3565b6104ae565b005b3480156100d057600080fd5b506100d9610718565b005b3480156100e757600080fd5b506100f06107a0565b6040516100fd9190611224565b60405180910390f35b34801561011257600080fd5b5061012d6004803603810190610128919061123f565b6107c9565b60405161013a9190611341565b60405180910390f35b34801561014f57600080fd5b5061016a6004803603810190610165919061123f565b6108e9565b005b34801561017857600080fd5b50610193600480360381019061018e9190611389565b610bce565b005b6101af60048036038101906101aa91906113b6565b610cc5565b005b60006003600084815260200190815260200160002060405180610120016040529081600082015481526020016001820160009054906101000a900473ffffffffffffffffffffffffffffffffffffffff1673ffffffffffffffffffffffffffffffffffffffff1673ffffffffffffffffffffffffffffffffffffffff1681526020016002820154815260200160038201548152602001600482015481526020016005820154815260200160068201548152602001600782015481526020016008820160009054906101000a900473ffffffffffffffffffffffffffffffffffffffff1673ffffffffffffffffffffffffffffffffffffffff1673ffffffffffffffffffffffffffffffffffffffff1681525050905060008160e001510361030d576040517f08c379a00000000000000000000000000000000000000000000000000000000081526004016103049061147a565b60405180910390fd5b8173ffffffffffffffffffffffffffffffffffffffff163373ffffffffffffffffffffffffffffffffffffffff161461037b576040517f08c379a00000000000000000000000000000000000000000000000000000000081526004016103729061150c565b60405180910390fd5b60006004600085815260200190815260200160002060003373ffffffffffffffffffffffffffffffffffffffff1673ffffffffffffffffffffffffffffffffffffffff16815260200190815260200160002054905060006004600086815260200190815260200160002060003373ffffffffffffffffffffffffffffffffffffffff1673ffffffffffffffffffffffffffffffffffffffff168152602001908152602001600020819055508273ffffffffffffffffffffffffffffffffffffffff166108fc829081150290604051600060405180830381858888f1935050505015801561046c573d6000803e3d6000fd5b507f37e8063b72a944a76de602f32b82fd8c2a1c6f99564c727ffaf913c7762cd4208433836040516104a09392919061153b565b60405180910390a150505050565b34811480156104bd5750600034115b6104fc576040517f08c379a00000000000000000000000000000000000000000000000000000000081526004016104f3906115be565b60405180910390fd5b60006003600084815260200190815260200160002060405180610120016040529081600082015481526020016001820160009054906101000a900473ffffffffffffffffffffffffffffffffffffffff1673ffffffffffffffffffffffffffffffffffffffff1673ffffffffffffffffffffffffffffffffffffffff1681526020016002820154815260200160038201548152602001600482015481526020016005820154815260200160068201548152602001600782015481526020016008820160009054906101000a900473ffffffffffffffffffffffffffffffffffffffff1673ffffffffffffffffffffffffffffffffffffffff1673ffffffffffffffffffffffffffffffffffffffff1681525050905060008160e0015114610658576040517f08c379a000000000000000000000000000000000000000000000000000000000815260040161064f9061162a565b60405180910390fd5b818160a00181815161066a9190611679565b91508181525050816004600085815260200190815260200160002060003373ffffffffffffffffffffffffffffffffffffffff1673ffffffffffffffffffffffffffffffffffffffff16815260200190815260200160002060008282546106d19190611679565b925050819055507fad7bc569ba73f7069270864414014159ad8170fbbcdd59c5e6ee660df787e96183338460405161070b9392919061153b565b60405180910390a1505050565b610720610fa6565b73ffffffffffffffffffffffffffffffffffffffff1661073e6107a0565b73ffffffffffffffffffffffffffffffffffffffff1614610794576040517f08c379a000000000000000000000000000000000000000000000000000000000815260040161078b9061171b565b60405180910390fd5b61079e6000610fae565b565b60008060009054906101000a900473ffffffffffffffffffffffffffffffffffffffff16905090565b6107d1611072565b6003600083815260200190815260200160002060405180610120016040529081600082015481526020016001820160009054906101000a900473ffffffffffffffffffffffffffffffffffffffff1673ffffffffffffffffffffffffffffffffffffffff1673ffffffffffffffffffffffffffffffffffffffff1681526020016002820154815260200160038201548152602001600482015481526020016005820154815260200160068201548152602001600782015481526020016008820160009054906101000a900473ffffffffffffffffffffffffffffffffffffffff1673ffffffffffffffffffffffffffffffffffffffff1673ffffffffffffffffffffffffffffffffffffffff16815250509050919050565b60006003600083815260200190815260200160002060405180610120016040529081600082015481526020016001820160009054906101000a900473ffffffffffffffffffffffffffffffffffffffff1673ffffffffffffffffffffffffffffffffffffffff1673ffffffffffffffffffffffffffffffffffffffff1681526020016002820154815260200160038201548152602001600482015481526020016005820154815260200160068201548152602001600782015481526020016008820160009054906101000a900473ffffffffffffffffffffffffffffffffffffffff1673ffffffffffffffffffffffffffffffffffffffff1673ffffffffffffffffffffffffffffffffffffffff1681525050905060008160e0015114610a45576040517f08c379a0000000000000000000000000000000000000000000000000000000008152600401610a3c90611787565b60405180910390fd5b8060c001518160400151610a599190611679565b421015610a9b576040517f08c379a0000000000000000000000000000000000000000000000000000000008152600401610a92906117f3565b60405180910390fd5b428160e001818152505080600360008481526020019081526020016000206000820151816000015560208201518160010160006101000a81548173ffffffffffffffffffffffffffffffffffffffff021916908373ffffffffffffffffffffffffffffffffffffffff16021790555060408201518160020155606082015181600301556080820151816004015560a0820151816005015560c0820151816006015560e082015181600701556101008201518160080160006101000a81548173ffffffffffffffffffffffffffffffffffffffff021916908373ffffffffffffffffffffffffffffffffffffffff1602179055509050507f60a64a73dcaed7ed02d10c6e33044bacd2299257812c69542e92c61fcd79fc608242604051610bc2929190611813565b60405180910390a15050565b610bd6610fa6565b73ffffffffffffffffffffffffffffffffffffffff16610bf46107a0565b73ffffffffffffffffffffffffffffffffffffffff1614610c4a576040517f08c379a0000000000000000000000000000000000000000000000000000000008152600401610c419061171b565b60405180910390fd5b600073ffffffffffffffffffffffffffffffffffffffff168173ffffffffffffffffffffffffffffffffffffffff1603610cb9576040517f08c379a0000000000000000000000000000000000000000000000000000000008152600401610cb0906118ae565b60405180910390fd5b610cc281610fae565b50565b3484148015610cd45750600034115b610d13576040517f08c379a0000000000000000000000000000000000000000000000000000000008152600401610d0a9061191a565b60405180910390fd5b838311610d55576040517f08c379a0000000000000000000000000000000000000000000000000000000008152600401610d4c906119ac565b60405180910390fd5b60008211610d98576040517f08c379a0000000000000000000000000000000000000000000000000000000008152600401610d8f90611a18565b60405180910390fd5b600060405180610120016040528060025481526020013373ffffffffffffffffffffffffffffffffffffffff168152602001428152602001868152602001858152602001868152602001848152602001600081526020018373ffffffffffffffffffffffffffffffffffffffff168152509050806003600060025481526020019081526020016000206000820151816000015560208201518160010160006101000a81548173ffffffffffffffffffffffffffffffffffffffff021916908373ffffffffffffffffffffffffffffffffffffffff16021790555060408201518160020155606082015181600301556080820151816004015560a0820151816005015560c0820151816006015560e082015181600701556101008201518160080160006101000a81548173ffffffffffffffffffffffffffffffffffffffff021916908373ffffffffffffffffffffffffffffffffffffffff1602179055509050508460046000600254815260200190815260200160002060003373ffffffffffffffffffffffffffffffffffffffff1673ffffffffffffffffffffffffffffffffffffffff1681526020019081526020016000208190555060026000815480929190610f6390611a38565b91905055507f609154c765a9efb4c55a1bc32a8dd7a419c35deaccf06e9c7c68c9e6e6724d5481604051610f979190611341565b60405180910390a15050505050565b600033905090565b60008060009054906101000a900473ffffffffffffffffffffffffffffffffffffffff169050816000806101000a81548173ffffffffffffffffffffffffffffffffffffffff021916908373ffffffffffffffffffffffffffffffffffffffff1602179055508173ffffffffffffffffffffffffffffffffffffffff168173ffffffffffffffffffffffffffffffffffffffff167f8be0079c531659141344cd1fd0a4f28419497f9722a3daafe3b4186f6b6457e060405160405180910390a35050565b60405180610120016040528060008152602001600073ffffffffffffffffffffffffffffffffffffffff168152602001600081526020016000815260200160008152602001600081526020016000815260200160008152602001600073ffffffffffffffffffffffffffffffffffffffff1681525090565b600080fd5b6000819050919050565b611102816110ef565b811461110d57600080fd5b50565b60008135905061111f816110f9565b92915050565b600073ffffffffffffffffffffffffffffffffffffffff82169050919050565b600061115082611125565b9050919050565b61116081611145565b811461116b57600080fd5b50565b60008135905061117d81611157565b92915050565b6000806040838503121561119a576111996110ea565b5b60006111a885828601611110565b92505060206111b98582860161116e565b9150509250929050565b600080604083850312156111da576111d96110ea565b5b60006111e885828601611110565b92505060206111f985828601611110565b9150509250929050565b600061120e82611125565b9050919050565b61121e81611203565b82525050565b60006020820190506112396000830184611215565b92915050565b600060208284031215611255576112546110ea565b5b600061126384828501611110565b91505092915050565b611275816110ef565b82525050565b61128481611203565b82525050565b610120820160008201516112a1600085018261126c565b5060208201516112b4602085018261127b565b5060408201516112c7604085018261126c565b5060608201516112da606085018261126c565b5060808201516112ed608085018261126c565b5060a082015161130060a085018261126c565b5060c082015161131360c085018261126c565b5060e082015161132660e085018261126c565b5061010082015161133b61010085018261127b565b50505050565b600061012082019050611357600083018461128a565b92915050565b61136681611203565b811461137157600080fd5b50565b6000813590506113838161135d565b92915050565b60006020828403121561139f5761139e6110ea565b5b60006113ad84828501611374565b91505092915050565b600080600080608085870312156113d0576113cf6110ea565b5b60006113de87828801611110565b94505060206113ef87828801611110565b935050604061140087828801611110565b925050606061141187828801611374565b91505092959194509250565b600082825260208201905092915050565b7f506c6564676520686173206e6f7420656e646564000000000000000000000000600082015250565b600061146460148361141d565b915061146f8261142e565b602082019050919050565b6000602082019050818103600083015261149381611457565b9050919050565b7f53656e646572206d757374206265207468652061646472657373206f6620746860008201527f652062656e656669636961727900000000000000000000000000000000000000602082015250565b60006114f6602d8361141d565b91506115018261149a565b604082019050919050565b60006020820190508181036000830152611525816114e9565b9050919050565b611535816110ef565b82525050565b6000606082019050611550600083018661152c565b61155d6020830185611215565b61156a604083018461152c565b949350505050565b7f416d6f756e74206d7573742062652067726561746572207468616e2030000000600082015250565b60006115a8601d8361141d565b91506115b382611572565b602082019050919050565b600060208201905081810360008301526115d78161159b565b9050919050565b7f506c656467652068617320656e64656400000000000000000000000000000000600082015250565b600061161460108361141d565b915061161f826115de565b602082019050919050565b6000602082019050818103600083015261164381611607565b9050919050565b7f4e487b7100000000000000000000000000000000000000000000000000000000600052601160045260246000fd5b6000611684826110ef565b915061168f836110ef565b9250827fffffffffffffffffffffffffffffffffffffffffffffffffffffffffffffffff038211156116c4576116c361164a565b5b828201905092915050565b7f4f776e61626c653a2063616c6c6572206973206e6f7420746865206f776e6572600082015250565b600061170560208361141d565b9150611710826116cf565b602082019050919050565b60006020820190508181036000830152611734816116f8565b9050919050565b7f506c656467652068617320616c726561647920656e6465640000000000000000600082015250565b600061177160188361141d565b915061177c8261173b565b602082019050919050565b600060208201905081810360008301526117a081611764565b9050919050565b7f506c6564676520686173206e6f7420656e646564207965740000000000000000600082015250565b60006117dd60188361141d565b91506117e8826117a7565b602082019050919050565b6000602082019050818103600083015261180c816117d0565b9050919050565b6000604082019050611828600083018561152c565b611835602083018461152c565b9392505050565b7f4f776e61626c653a206e6577206f776e657220697320746865207a65726f206160008201527f6464726573730000000000000000000000000000000000000000000000000000602082015250565b600061189860268361141d565b91506118a38261183c565b604082019050919050565b600060208201905081810360008301526118c78161188b565b9050919050565b7f506c65646765206d7573742062652067726561746572207468616e2030000000600082015250565b6000611904601d8361141d565b915061190f826118ce565b602082019050919050565b60006020820190508181036000830152611933816118f7565b9050919050565b7f476f616c20616d6f756e74206d7573742062652067726561746572207468616e60008201527f2074686520696e697469616c20706c6564676500000000000000000000000000602082015250565b600061199660338361141d565b91506119a18261193a565b604082019050919050565b600060208201905081810360008301526119c581611989565b9050919050565b7f4475726174696f6e206d7573742062652067726561746572207468616e203000600082015250565b6000611a02601f8361141d565b9150611a0d826119cc565b602082019050919050565b60006020820190508181036000830152611a31816119f5565b9050919050565b6000611a43826110ef565b91507fffffffffffffffffffffffffffffffffffffffffffffffffffffffffffffffff8203611a7557611a7461164a565b5b60018201905091905056fea26469706673582212208ec7262ec5745de18be8afd1d2abd827917b4c5993c6a19c5078940388ddd07564736f6c634300080e0033",
  "immutableReferences": {},
  "source": "// SPDX-License-Identifier: MIT\npragma solidity 0.8.14;\n\nimport \"@openzeppelin/contracts/access/Ownable.sol\";\n\ncontract CharitableDonations is Ownable {\n\n  address _owner;\n  \n  struct Pledge {\n    uint256 id;\n    address creator;\n    uint256 createdAt;\n    uint256 initialPledge;\n    uint256 goalAmount;\n    uint256 raisedAmount;\n    uint256 duration;\n    uint256 endedAt;\n    address charityAddress;\n  }\n\n  uint256 pledgeCounter = 1;\n  // uint256 totalRaised = 0;\n  mapping (uint256 => Pledge) pledges;\n  // mapping (address => Pledge[] memory) pledgesContributedTo;\n\n  // Pledge id => (address => amount contributed)\n  mapping (uint256 => mapping (address => uint256)) pledgeContributions;\n\n  event PledgeCreated(Pledge pledge);\n  event PledgeContribution(uint256 pledgeId, address contributor, uint256 amount);\n  event PledgeEnded(uint256 pledgeId, uint256 timestamp);\n  event Withdrawal(uint256 pledgeId, address contributor, uint256 amount);\n\n\n  constructor () {\n    _owner = msg.sender;\n  }\n\n  function createPledge(uint256 initialPledge, uint256 goalAmount, uint256 duration, address charityAddress) public payable {\n    require(initialPledge == msg.value && msg.value > 0, \"Pledge must be greater than 0\");\n    require(goalAmount > initialPledge, \"Goal amount must be greater than the initial pledge\");\n    // TODO: minimum duration?\n    require(duration > 0, \"Duration must be greater than 0\");\n    // require(charityAddress != address(0), \"Charity address cannot be 0\");\n\n\n    Pledge memory pledge = Pledge(\n      pledgeCounter,\n      msg.sender,\n      block.timestamp,\n      initialPledge,\n      goalAmount,\n      initialPledge,\n      duration,\n      0,\n      charityAddress\n    );\n    pledges[pledgeCounter] = pledge;\n\n    pledgeContributions[pledgeCounter][msg.sender] = initialPledge;\n\n    pledgeCounter++;\n\n    emit PledgeCreated(pledge);\n  }\n\n  function getPledge(uint256 pledge) public view returns (Pledge memory) {\n    return pledges[pledge];\n  }\n\n  function contributeToPledge(uint256 pledgeId, uint256 amount) public payable {\n    require(amount == msg.value && msg.value > 0, \"Amount must be greater than 0\");\n\n    Pledge memory pledge = pledges[pledgeId];\n\n    // require(pledge != 0, \"Pledge does not exist\");\n    require(pledge.endedAt == 0, \"Pledge has ended\");\n\n    pledge.raisedAmount += amount;\n\n    pledgeContributions[pledgeId][msg.sender] += amount;\n\n    emit PledgeContribution(pledgeId, msg.sender, amount);\n  }\n\n  function endPledge(uint256 pledgeId) public {\n    Pledge memory pledge = pledges[pledgeId];\n\n    // require(pledge != 0, \"Pledge does not exist\");\n    require(pledge.endedAt == 0, \"Pledge has already ended\");\n    require(block.timestamp >= pledge.createdAt + pledge.duration, \"Pledge has not ended yet\");\n    // require(pledge.raisedAmount >= pledge.goalAmount, \"Pledge has not reached goal amount\");\n\n    pledge.endedAt = block.timestamp;\n    pledges[pledgeId] = pledge;\n\n    emit PledgeEnded(pledgeId, block.timestamp);\n  }\n\n  function withdraw(uint256 pledgeId, address payable addr) public {\n    Pledge memory pledge = pledges[pledgeId];\n    // require(pledge != 0, \"Pledge does not exist\");\n    require(pledge.endedAt != 0, \"Pledge has not ended\");\n    require(msg.sender == addr, \"Sender must be the address of the beneficiary\");\n\n    uint256 contributed = pledgeContributions[pledgeId][msg.sender];\n    pledgeContributions[pledgeId][msg.sender] = 0;\n    addr.transfer(contributed);\n\n    // TODO: emit event\n    emit Withdrawal(pledgeId, msg.sender, contributed);\n  }\n\n}",
  "sourcePath": "/Users/chrisschnabel/projects/ethereum/shanghai-hackathon/truffle/contracts/CharitableDonations.sol",
  "compiler": {
    "name": "solc",
    "version": "0.8.14+commit.80d49f37.Emscripten.clang"
  },
  "schemaVersion": "3.4.7",
  "updatedAt": "2022-05-26T01:55:25.877Z",
  "networkType": "ethereum",
  "devdoc": {
    "kind": "dev",
    "methods": {
      "owner()": {
        "details": "Returns the address of the current owner."
      },
      "renounceOwnership()": {
        "details": "Leaves the contract without owner. It will not be possible to call `onlyOwner` functions anymore. Can only be called by the current owner. NOTE: Renouncing ownership will leave the contract without an owner, thereby removing any functionality that is only available to the owner."
      },
      "transferOwnership(address)": {
        "details": "Transfers ownership of the contract to a new account (`newOwner`). Can only be called by the current owner."
      }
    },
    "version": 1
  },
  "userdoc": {
    "kind": "user",
    "methods": {},
    "version": 1
  }
}