{
  "contractName": "Hakuai",
  "abi": [
    {
      "inputs": [],
      "stateMutability": "nonpayable",
      "type": "constructor"
    },
    {
      "anonymous": false,
      "inputs": [
        {
          "indexed": false,
          "internalType": "address",
          "name": "addr",
          "type": "address"
        },
        {
          "indexed": false,
          "internalType": "string",
          "name": "name",
          "type": "string"
        },
        {
          "indexed": false,
          "internalType": "string",
          "name": "websiteUrl",
          "type": "string"
        },
        {
          "indexed": false,
          "internalType": "string",
          "name": "imageUrl",
          "type": "string"
        }
      ],
      "name": "CharityCreated",
      "type": "event"
    },
    {
      "anonymous": false,
      "inputs": [
        {
          "indexed": true,
          "internalType": "address",
          "name": "previousOwner",
          "type": "address"
        },
        {
          "indexed": true,
          "internalType": "address",
          "name": "newOwner",
          "type": "address"
        }
      ],
      "name": "OwnershipTransferred",
      "type": "event"
    },
    {
      "anonymous": false,
      "inputs": [
        {
          "indexed": false,
          "internalType": "uint256",
          "name": "pledgeId",
          "type": "uint256"
        },
        {
          "indexed": false,
          "internalType": "address",
          "name": "contributor",
          "type": "address"
        },
        {
          "indexed": false,
          "internalType": "uint256",
          "name": "amount",
          "type": "uint256"
        }
      ],
      "name": "PledgeContribution",
      "type": "event"
    },
    {
      "anonymous": false,
      "inputs": [
        {
          "components": [
            {
              "internalType": "uint256",
              "name": "id",
              "type": "uint256"
            },
            {
              "internalType": "address",
              "name": "creator",
              "type": "address"
            },
            {
              "internalType": "uint256",
              "name": "createdAt",
              "type": "uint256"
            },
            {
              "internalType": "uint256",
              "name": "initialPledge",
              "type": "uint256"
            },
            {
              "internalType": "uint256",
              "name": "goalAmount",
              "type": "uint256"
            },
            {
              "internalType": "uint256",
              "name": "raisedAmount",
              "type": "uint256"
            },
            {
              "internalType": "uint256",
              "name": "duration",
              "type": "uint256"
            },
            {
              "internalType": "uint256",
              "name": "endedAt",
              "type": "uint256"
            },
            {
              "internalType": "address",
              "name": "charityAddress",
              "type": "address"
            },
            {
              "internalType": "bool",
              "name": "isVerified",
              "type": "bool"
            },
            {
              "components": [
                {
                  "internalType": "address",
                  "name": "addr",
                  "type": "address"
                },
                {
                  "internalType": "string",
                  "name": "name",
                  "type": "string"
                },
                {
                  "internalType": "string",
                  "name": "description",
                  "type": "string"
                },
                {
                  "internalType": "string",
                  "name": "websiteUrl",
                  "type": "string"
                },
                {
                  "internalType": "string",
                  "name": "imageUrl",
                  "type": "string"
                }
              ],
              "internalType": "struct Hakuai.Charity",
              "name": "charity",
              "type": "tuple"
            }
          ],
          "indexed": false,
          "internalType": "struct Hakuai.Pledge",
          "name": "pledge",
          "type": "tuple"
        }
      ],
      "name": "PledgeCreated",
      "type": "event"
    },
    {
      "anonymous": false,
      "inputs": [
        {
          "indexed": false,
          "internalType": "uint256",
          "name": "pledgeId",
          "type": "uint256"
        },
        {
          "indexed": false,
          "internalType": "uint256",
          "name": "timestamp",
          "type": "uint256"
        }
      ],
      "name": "PledgeEnded",
      "type": "event"
    },
    {
      "anonymous": false,
      "inputs": [
        {
          "indexed": false,
          "internalType": "uint256",
          "name": "pledgeId",
          "type": "uint256"
        },
        {
          "indexed": false,
          "internalType": "address",
          "name": "contributor",
          "type": "address"
        },
        {
          "indexed": false,
          "internalType": "uint256",
          "name": "amount",
          "type": "uint256"
        }
      ],
      "name": "Withdrawal",
      "type": "event"
    },
    {
      "inputs": [],
      "name": "owner",
      "outputs": [
        {
          "internalType": "address",
          "name": "",
          "type": "address"
        }
      ],
      "stateMutability": "view",
      "type": "function"
    },
    {
      "inputs": [
        {
          "internalType": "uint256",
          "name": "",
          "type": "uint256"
        }
      ],
      "name": "pledges",
      "outputs": [
        {
          "internalType": "uint256",
          "name": "id",
          "type": "uint256"
        },
        {
          "internalType": "address",
          "name": "creator",
          "type": "address"
        },
        {
          "internalType": "uint256",
          "name": "createdAt",
          "type": "uint256"
        },
        {
          "internalType": "uint256",
          "name": "initialPledge",
          "type": "uint256"
        },
        {
          "internalType": "uint256",
          "name": "goalAmount",
          "type": "uint256"
        },
        {
          "internalType": "uint256",
          "name": "raisedAmount",
          "type": "uint256"
        },
        {
          "internalType": "uint256",
          "name": "duration",
          "type": "uint256"
        },
        {
          "internalType": "uint256",
          "name": "endedAt",
          "type": "uint256"
        },
        {
          "internalType": "address",
          "name": "charityAddress",
          "type": "address"
        },
        {
          "internalType": "bool",
          "name": "isVerified",
          "type": "bool"
        },
        {
          "components": [
            {
              "internalType": "address",
              "name": "addr",
              "type": "address"
            },
            {
              "internalType": "string",
              "name": "name",
              "type": "string"
            },
            {
              "internalType": "string",
              "name": "description",
              "type": "string"
            },
            {
              "internalType": "string",
              "name": "websiteUrl",
              "type": "string"
            },
            {
              "internalType": "string",
              "name": "imageUrl",
              "type": "string"
            }
          ],
          "internalType": "struct Hakuai.Charity",
          "name": "charity",
          "type": "tuple"
        }
      ],
      "stateMutability": "view",
      "type": "function"
    },
    {
      "inputs": [
        {
          "internalType": "address",
          "name": "",
          "type": "address"
        },
        {
          "internalType": "uint256",
          "name": "",
          "type": "uint256"
        }
      ],
      "name": "pledgesContributedTo",
      "outputs": [
        {
          "internalType": "uint256",
          "name": "",
          "type": "uint256"
        }
      ],
      "stateMutability": "view",
      "type": "function"
    },
    {
      "inputs": [],
      "name": "renounceOwnership",
      "outputs": [],
      "stateMutability": "nonpayable",
      "type": "function"
    },
    {
      "inputs": [],
      "name": "totalClaimedByCharities",
      "outputs": [
        {
          "internalType": "uint256",
          "name": "",
          "type": "uint256"
        }
      ],
      "stateMutability": "view",
      "type": "function"
    },
    {
      "inputs": [
        {
          "internalType": "address",
          "name": "newOwner",
          "type": "address"
        }
      ],
      "name": "transferOwnership",
      "outputs": [],
      "stateMutability": "nonpayable",
      "type": "function"
    },
    {
      "inputs": [
        {
          "internalType": "address",
          "name": "",
          "type": "address"
        }
      ],
      "name": "verifiedCharities",
      "outputs": [
        {
          "internalType": "address",
          "name": "addr",
          "type": "address"
        },
        {
          "internalType": "string",
          "name": "name",
          "type": "string"
        },
        {
          "internalType": "string",
          "name": "description",
          "type": "string"
        },
        {
          "internalType": "string",
          "name": "websiteUrl",
          "type": "string"
        },
        {
          "internalType": "string",
          "name": "imageUrl",
          "type": "string"
        }
      ],
      "stateMutability": "view",
      "type": "function"
    },
    {
      "inputs": [
        {
          "internalType": "uint256",
          "name": "initialPledge",
          "type": "uint256"
        },
        {
          "internalType": "uint256",
          "name": "goalAmount",
          "type": "uint256"
        },
        {
          "internalType": "uint256",
          "name": "duration",
          "type": "uint256"
        },
        {
          "internalType": "address",
          "name": "charityAddress",
          "type": "address"
        }
      ],
      "name": "createPledge",
      "outputs": [],
      "stateMutability": "payable",
      "type": "function"
    },
    {
      "inputs": [
        {
          "internalType": "uint256",
          "name": "pledge",
          "type": "uint256"
        }
      ],
      "name": "getPledge",
      "outputs": [
        {
          "components": [
            {
              "internalType": "uint256",
              "name": "id",
              "type": "uint256"
            },
            {
              "internalType": "address",
              "name": "creator",
              "type": "address"
            },
            {
              "internalType": "uint256",
              "name": "createdAt",
              "type": "uint256"
            },
            {
              "internalType": "uint256",
              "name": "initialPledge",
              "type": "uint256"
            },
            {
              "internalType": "uint256",
              "name": "goalAmount",
              "type": "uint256"
            },
            {
              "internalType": "uint256",
              "name": "raisedAmount",
              "type": "uint256"
            },
            {
              "internalType": "uint256",
              "name": "duration",
              "type": "uint256"
            },
            {
              "internalType": "uint256",
              "name": "endedAt",
              "type": "uint256"
            },
            {
              "internalType": "address",
              "name": "charityAddress",
              "type": "address"
            },
            {
              "internalType": "bool",
              "name": "isVerified",
              "type": "bool"
            },
            {
              "components": [
                {
                  "internalType": "address",
                  "name": "addr",
                  "type": "address"
                },
                {
                  "internalType": "string",
                  "name": "name",
                  "type": "string"
                },
                {
                  "internalType": "string",
                  "name": "description",
                  "type": "string"
                },
                {
                  "internalType": "string",
                  "name": "websiteUrl",
                  "type": "string"
                },
                {
                  "internalType": "string",
                  "name": "imageUrl",
                  "type": "string"
                }
              ],
              "internalType": "struct Hakuai.Charity",
              "name": "charity",
              "type": "tuple"
            }
          ],
          "internalType": "struct Hakuai.Pledge",
          "name": "",
          "type": "tuple"
        }
      ],
      "stateMutability": "view",
      "type": "function"
    },
    {
      "inputs": [],
      "name": "getPledges",
      "outputs": [
        {
          "components": [
            {
              "internalType": "uint256",
              "name": "id",
              "type": "uint256"
            },
            {
              "internalType": "address",
              "name": "creator",
              "type": "address"
            },
            {
              "internalType": "uint256",
              "name": "createdAt",
              "type": "uint256"
            },
            {
              "internalType": "uint256",
              "name": "initialPledge",
              "type": "uint256"
            },
            {
              "internalType": "uint256",
              "name": "goalAmount",
              "type": "uint256"
            },
            {
              "internalType": "uint256",
              "name": "raisedAmount",
              "type": "uint256"
            },
            {
              "internalType": "uint256",
              "name": "duration",
              "type": "uint256"
            },
            {
              "internalType": "uint256",
              "name": "endedAt",
              "type": "uint256"
            },
            {
              "internalType": "address",
              "name": "charityAddress",
              "type": "address"
            },
            {
              "internalType": "bool",
              "name": "isVerified",
              "type": "bool"
            },
            {
              "components": [
                {
                  "internalType": "address",
                  "name": "addr",
                  "type": "address"
                },
                {
                  "internalType": "string",
                  "name": "name",
                  "type": "string"
                },
                {
                  "internalType": "string",
                  "name": "description",
                  "type": "string"
                },
                {
                  "internalType": "string",
                  "name": "websiteUrl",
                  "type": "string"
                },
                {
                  "internalType": "string",
                  "name": "imageUrl",
                  "type": "string"
                }
              ],
              "internalType": "struct Hakuai.Charity",
              "name": "charity",
              "type": "tuple"
            }
          ],
          "internalType": "struct Hakuai.Pledge[]",
          "name": "",
          "type": "tuple[]"
        }
      ],
      "stateMutability": "view",
      "type": "function"
    },
    {
      "inputs": [
        {
          "internalType": "uint256",
          "name": "pledgeId",
          "type": "uint256"
        },
        {
          "internalType": "uint256",
          "name": "amount",
          "type": "uint256"
        }
      ],
      "name": "contributeToPledge",
      "outputs": [],
      "stateMutability": "payable",
      "type": "function"
    },
    {
      "inputs": [
        {
          "internalType": "uint256",
          "name": "pledgeId",
          "type": "uint256"
        }
      ],
      "name": "howMuchDidIContribute",
      "outputs": [
        {
          "internalType": "uint256",
          "name": "",
          "type": "uint256"
        }
      ],
      "stateMutability": "view",
      "type": "function"
    },
    {
      "inputs": [
        {
          "internalType": "uint256",
          "name": "pledgeId",
          "type": "uint256"
        }
      ],
      "name": "endPledge",
      "outputs": [],
      "stateMutability": "nonpayable",
      "type": "function"
    },
    {
      "inputs": [
        {
          "internalType": "uint256",
          "name": "pledgeId",
          "type": "uint256"
        },
        {
          "internalType": "address payable",
          "name": "addr",
          "type": "address"
        }
      ],
      "name": "withdraw",
      "outputs": [],
      "stateMutability": "nonpayable",
      "type": "function"
    },
    {
      "inputs": [
        {
          "internalType": "uint256",
          "name": "pledgeId",
          "type": "uint256"
        }
      ],
      "name": "withdrawForCharity",
      "outputs": [],
      "stateMutability": "nonpayable",
      "type": "function"
    },
    {
      "inputs": [
        {
          "internalType": "string",
          "name": "name",
          "type": "string"
        },
        {
          "internalType": "string",
          "name": "description",
          "type": "string"
        },
        {
          "internalType": "string",
          "name": "websiteUrl",
          "type": "string"
        },
        {
          "internalType": "string",
          "name": "imageUrl",
          "type": "string"
        },
        {
          "internalType": "address",
          "name": "addr",
          "type": "address"
        }
      ],
      "name": "createVerifiedCharity",
      "outputs": [],
      "stateMutability": "nonpayable",
      "type": "function"
    },
    {
      "inputs": [
        {
          "internalType": "address",
          "name": "addr",
          "type": "address"
        }
      ],
      "name": "getVerifiedCharity",
      "outputs": [
        {
          "components": [
            {
              "internalType": "address",
              "name": "addr",
              "type": "address"
            },
            {
              "internalType": "string",
              "name": "name",
              "type": "string"
            },
            {
              "internalType": "string",
              "name": "description",
              "type": "string"
            },
            {
              "internalType": "string",
              "name": "websiteUrl",
              "type": "string"
            },
            {
              "internalType": "string",
              "name": "imageUrl",
              "type": "string"
            }
          ],
          "internalType": "struct Hakuai.Charity",
          "name": "",
          "type": "tuple"
        }
      ],
      "stateMutability": "view",
      "type": "function"
    },
    {
      "inputs": [],
      "name": "getVerifiedCharities",
      "outputs": [
        {
          "components": [
            {
              "internalType": "address",
              "name": "addr",
              "type": "address"
            },
            {
              "internalType": "string",
              "name": "name",
              "type": "string"
            },
            {
              "internalType": "string",
              "name": "description",
              "type": "string"
            },
            {
              "internalType": "string",
              "name": "websiteUrl",
              "type": "string"
            },
            {
              "internalType": "string",
              "name": "imageUrl",
              "type": "string"
            }
          ],
          "internalType": "struct Hakuai.Charity[]",
          "name": "",
          "type": "tuple[]"
        }
      ],
      "stateMutability": "view",
      "type": "function"
    }
  ],
  "bytecode": "0x6080604052600160025560006003553480156200001b57600080fd5b506200003c620000306200008360201b60201c565b6200008b60201b60201c565b33600160006101000a81548173ffffffffffffffffffffffffffffffffffffffff021916908373ffffffffffffffffffffffffffffffffffffffff1602179055506200014f565b600033905090565b60008060009054906101000a900473ffffffffffffffffffffffffffffffffffffffff169050816000806101000a81548173ffffffffffffffffffffffffffffffffffffffff021916908373ffffffffffffffffffffffffffffffffffffffff1602179055508173ffffffffffffffffffffffffffffffffffffffff168173ffffffffffffffffffffffffffffffffffffffff167f8be0079c531659141344cd1fd0a4f28419497f9722a3daafe3b4186f6b6457e060405160405180910390a35050565b6159ac806200015f6000396000f3fe6080604052600436106101085760003560e01c8063ac12408111610095578063dfef24f511610064578063dfef24f51461038f578063ee5b3e96146103ba578063f1f71654146103e3578063f2fde38b1461040c578063f9727d9c1461043557610108565b8063ac124081146102b7578063b3524cfa146102fe578063c94302691461033b578063d938fc311461036657610108565b80633f221f79116100dc5780633f221f79146101db578063715018a6146101f75780638da5cb5b1461020e57806390c4ce5214610239578063a3c821a71461027657610108565b8062f714ce1461010d5780631d57d4aa146101365780632f419af214610173578063308537c81461019e575b600080fd5b34801561011957600080fd5b50610134600480360381019061012f9190614411565b610451565b005b34801561014257600080fd5b5061015d60048036038101906101589190614451565b610ad9565b60405161016a919061448d565b60405180910390f35b34801561017f57600080fd5b50610188610b33565b60405161019591906146af565b60405180910390f35b3480156101aa57600080fd5b506101c560048036038101906101c091906146fd565b610e30565b6040516101d2919061448d565b60405180910390f35b6101f560048036038101906101f0919061473d565b610e61565b005b34801561020357600080fd5b5061020c611472565b005b34801561021a57600080fd5b506102236114fa565b604051610230919061478c565b60405180910390f35b34801561024557600080fd5b50610260600480360381019061025b9190614451565b611523565b60405161026d91906148c0565b60405180910390f35b34801561028257600080fd5b5061029d600480360381019061029891906148e2565b611910565b6040516102ae959493929190614959565b60405180910390f35b3480156102c357600080fd5b506102de60048036038101906102d99190614451565b611b86565b6040516102f59b9a99989796959493929190614a62565b60405180910390f35b34801561030a57600080fd5b50610325600480360381019061032091906148e2565b611ed5565b6040516103329190614b14565b60405180910390f35b34801561034757600080fd5b506103506121cc565b60405161035d919061448d565b60405180910390f35b34801561037257600080fd5b5061038d60048036038101906103889190614b9b565b6121d2565b005b34801561039b57600080fd5b506103a46125e7565b6040516103b19190614e48565b60405180910390f35b3480156103c657600080fd5b506103e160048036038101906103dc9190614451565b612a06565b005b3480156103ef57600080fd5b5061040a60048036038101906104059190614451565b612f65565b005b34801561041857600080fd5b50610433600480360381019061042e91906148e2565b613673565b005b61044f600480360381019061044a9190614e6a565b61376a565b005b60006004600084815260200190815260200160002060405180610160016040529081600082015481526020016001820160009054906101000a900473ffffffffffffffffffffffffffffffffffffffff1673ffffffffffffffffffffffffffffffffffffffff1673ffffffffffffffffffffffffffffffffffffffff1681526020016002820154815260200160038201548152602001600482015481526020016005820154815260200160068201548152602001600782015481526020016008820160009054906101000a900473ffffffffffffffffffffffffffffffffffffffff1673ffffffffffffffffffffffffffffffffffffffff1673ffffffffffffffffffffffffffffffffffffffff1681526020016008820160149054906101000a900460ff16151515158152602001600982016040518060a00160405290816000820160009054906101000a900473ffffffffffffffffffffffffffffffffffffffff1673ffffffffffffffffffffffffffffffffffffffff1673ffffffffffffffffffffffffffffffffffffffff1681526020016001820180546105f590614f00565b80601f016020809104026020016040519081016040528092919081815260200182805461062190614f00565b801561066e5780601f106106435761010080835404028352916020019161066e565b820191906000526020600020905b81548152906001019060200180831161065157829003601f168201915b5050505050815260200160028201805461068790614f00565b80601f01602080910402602001604051908101604052809291908181526020018280546106b390614f00565b80156107005780601f106106d557610100808354040283529160200191610700565b820191906000526020600020905b8154815290600101906020018083116106e357829003601f168201915b5050505050815260200160038201805461071990614f00565b80601f016020809104026020016040519081016040528092919081815260200182805461074590614f00565b80156107925780601f1061076757610100808354040283529160200191610792565b820191906000526020600020905b81548152906001019060200180831161077557829003601f168201915b505050505081526020016004820180546107ab90614f00565b80601f01602080910402602001604051908101604052809291908181526020018280546107d790614f00565b80156108245780601f106107f957610100808354040283529160200191610824565b820191906000526020600020905b81548152906001019060200180831161080757829003601f168201915b505050505081525050815250509050600073ffffffffffffffffffffffffffffffffffffffff1681610100015173ffffffffffffffffffffffffffffffffffffffff16036108a7576040517f08c379a000000000000000000000000000000000000000000000000000000000815260040161089e90614f7d565b60405180910390fd5b60008160e00151036108ee576040517f08c379a00000000000000000000000000000000000000000000000000000000081526004016108e590614fe9565b60405180910390fd5b8173ffffffffffffffffffffffffffffffffffffffff163373ffffffffffffffffffffffffffffffffffffffff161461095c576040517f08c379a00000000000000000000000000000000000000000000000000000000081526004016109539061507b565b60405180910390fd5b80608001518160a00151106109a6576040517f08c379a000000000000000000000000000000000000000000000000000000000815260040161099d90615133565b60405180910390fd5b60006007600085815260200190815260200160002060003373ffffffffffffffffffffffffffffffffffffffff1673ffffffffffffffffffffffffffffffffffffffff16815260200190815260200160002054905060006007600086815260200190815260200160002060003373ffffffffffffffffffffffffffffffffffffffff1673ffffffffffffffffffffffffffffffffffffffff168152602001908152602001600020819055508273ffffffffffffffffffffffffffffffffffffffff166108fc829081150290604051600060405180830381858888f19350505050158015610a97573d6000803e3d6000fd5b507f37e8063b72a944a76de602f32b82fd8c2a1c6f99564c727ffaf913c7762cd420843383604051610acb93929190615153565b60405180910390a150505050565b60006007600083815260200190815260200160002060003373ffffffffffffffffffffffffffffffffffffffff1673ffffffffffffffffffffffffffffffffffffffff168152602001908152602001600020549050919050565b60606009805480602002602001604051908101604052809291908181526020016000905b82821015610e2757838290600052602060002090600502016040518060a00160405290816000820160009054906101000a900473ffffffffffffffffffffffffffffffffffffffff1673ffffffffffffffffffffffffffffffffffffffff1673ffffffffffffffffffffffffffffffffffffffff168152602001600182018054610be090614f00565b80601f0160208091040260200160405190810160405280929190818152602001828054610c0c90614f00565b8015610c595780601f10610c2e57610100808354040283529160200191610c59565b820191906000526020600020905b815481529060010190602001808311610c3c57829003601f168201915b50505050508152602001600282018054610c7290614f00565b80601f0160208091040260200160405190810160405280929190818152602001828054610c9e90614f00565b8015610ceb5780601f10610cc057610100808354040283529160200191610ceb565b820191906000526020600020905b815481529060010190602001808311610cce57829003601f168201915b50505050508152602001600382018054610d0490614f00565b80601f0160208091040260200160405190810160405280929190818152602001828054610d3090614f00565b8015610d7d5780601f10610d5257610100808354040283529160200191610d7d565b820191906000526020600020905b815481529060010190602001808311610d6057829003601f168201915b50505050508152602001600482018054610d9690614f00565b80601f0160208091040260200160405190810160405280929190818152602001828054610dc290614f00565b8015610e0f5780601f10610de457610100808354040283529160200191610e0f565b820191906000526020600020905b815481529060010190602001808311610df257829003601f168201915b50505050508152505081526020019060010190610b57565b50505050905090565b60066020528160005260406000208181548110610e4c57600080fd5b90600052602060002001600091509150505481565b3481148015610e705750600034115b610eaf576040517f08c379a0000000000000000000000000000000000000000000000000000000008152600401610ea6906151d6565b60405180910390fd5b60006004600084815260200190815260200160002060405180610160016040529081600082015481526020016001820160009054906101000a900473ffffffffffffffffffffffffffffffffffffffff1673ffffffffffffffffffffffffffffffffffffffff1673ffffffffffffffffffffffffffffffffffffffff1681526020016002820154815260200160038201548152602001600482015481526020016005820154815260200160068201548152602001600782015481526020016008820160009054906101000a900473ffffffffffffffffffffffffffffffffffffffff1673ffffffffffffffffffffffffffffffffffffffff1673ffffffffffffffffffffffffffffffffffffffff1681526020016008820160149054906101000a900460ff16151515158152602001600982016040518060a00160405290816000820160009054906101000a900473ffffffffffffffffffffffffffffffffffffffff1673ffffffffffffffffffffffffffffffffffffffff1673ffffffffffffffffffffffffffffffffffffffff16815260200160018201805461105390614f00565b80601f016020809104026020016040519081016040528092919081815260200182805461107f90614f00565b80156110cc5780601f106110a1576101008083540402835291602001916110cc565b820191906000526020600020905b8154815290600101906020018083116110af57829003601f168201915b505050505081526020016002820180546110e590614f00565b80601f016020809104026020016040519081016040528092919081815260200182805461111190614f00565b801561115e5780601f106111335761010080835404028352916020019161115e565b820191906000526020600020905b81548152906001019060200180831161114157829003601f168201915b5050505050815260200160038201805461117790614f00565b80601f01602080910402602001604051908101604052809291908181526020018280546111a390614f00565b80156111f05780601f106111c5576101008083540402835291602001916111f0565b820191906000526020600020905b8154815290600101906020018083116111d357829003601f168201915b5050505050815260200160048201805461120990614f00565b80601f016020809104026020016040519081016040528092919081815260200182805461123590614f00565b80156112825780601f1061125757610100808354040283529160200191611282565b820191906000526020600020905b81548152906001019060200180831161126557829003601f168201915b505050505081525050815250509050600073ffffffffffffffffffffffffffffffffffffffff1681610100015173ffffffffffffffffffffffffffffffffffffffff1603611305576040517f08c379a00000000000000000000000000000000000000000000000000000000081526004016112fc90614f7d565b60405180910390fd5b60008160e001511461134c576040517f08c379a000000000000000000000000000000000000000000000000000000000815260040161134390615242565b60405180910390fd5b818160a00181815161135e9190615291565b91508181525050816007600085815260200190815260200160002060003373ffffffffffffffffffffffffffffffffffffffff1673ffffffffffffffffffffffffffffffffffffffff16815260200190815260200160002060008282546113c59190615291565b92505081905550600660003373ffffffffffffffffffffffffffffffffffffffff1673ffffffffffffffffffffffffffffffffffffffff1681526020019081526020016000208390806001815401808255809150506001900390600052602060002001600090919091909150557fad7bc569ba73f7069270864414014159ad8170fbbcdd59c5e6ee660df787e96183338460405161146593929190615153565b60405180910390a1505050565b61147a614131565b73ffffffffffffffffffffffffffffffffffffffff166114986114fa565b73ffffffffffffffffffffffffffffffffffffffff16146114ee576040517f08c379a00000000000000000000000000000000000000000000000000000000081526004016114e590615333565b60405180910390fd5b6114f86000614139565b565b60008060009054906101000a900473ffffffffffffffffffffffffffffffffffffffff16905090565b61152b6141fd565b6004600083815260200190815260200160002060405180610160016040529081600082015481526020016001820160009054906101000a900473ffffffffffffffffffffffffffffffffffffffff1673ffffffffffffffffffffffffffffffffffffffff1673ffffffffffffffffffffffffffffffffffffffff1681526020016002820154815260200160038201548152602001600482015481526020016005820154815260200160068201548152602001600782015481526020016008820160009054906101000a900473ffffffffffffffffffffffffffffffffffffffff1673ffffffffffffffffffffffffffffffffffffffff1673ffffffffffffffffffffffffffffffffffffffff1681526020016008820160149054906101000a900460ff16151515158152602001600982016040518060a00160405290816000820160009054906101000a900473ffffffffffffffffffffffffffffffffffffffff1673ffffffffffffffffffffffffffffffffffffffff1673ffffffffffffffffffffffffffffffffffffffff1681526020016001820180546116cd90614f00565b80601f01602080910402602001604051908101604052809291908181526020018280546116f990614f00565b80156117465780601f1061171b57610100808354040283529160200191611746565b820191906000526020600020905b81548152906001019060200180831161172957829003601f168201915b5050505050815260200160028201805461175f90614f00565b80601f016020809104026020016040519081016040528092919081815260200182805461178b90614f00565b80156117d85780601f106117ad576101008083540402835291602001916117d8565b820191906000526020600020905b8154815290600101906020018083116117bb57829003601f168201915b505050505081526020016003820180546117f190614f00565b80601f016020809104026020016040519081016040528092919081815260200182805461181d90614f00565b801561186a5780601f1061183f5761010080835404028352916020019161186a565b820191906000526020600020905b81548152906001019060200180831161184d57829003601f168201915b5050505050815260200160048201805461188390614f00565b80601f01602080910402602001604051908101604052809291908181526020018280546118af90614f00565b80156118fc5780601f106118d1576101008083540402835291602001916118fc565b820191906000526020600020905b8154815290600101906020018083116118df57829003601f168201915b505050505081525050815250509050919050565b60086020528060005260406000206000915090508060000160009054906101000a900473ffffffffffffffffffffffffffffffffffffffff169080600101805461195990614f00565b80601f016020809104026020016040519081016040528092919081815260200182805461198590614f00565b80156119d25780601f106119a7576101008083540402835291602001916119d2565b820191906000526020600020905b8154815290600101906020018083116119b557829003601f168201915b5050505050908060020180546119e790614f00565b80601f0160208091040260200160405190810160405280929190818152602001828054611a1390614f00565b8015611a605780601f10611a3557610100808354040283529160200191611a60565b820191906000526020600020905b815481529060010190602001808311611a4357829003601f168201915b505050505090806003018054611a7590614f00565b80601f0160208091040260200160405190810160405280929190818152602001828054611aa190614f00565b8015611aee5780601f10611ac357610100808354040283529160200191611aee565b820191906000526020600020905b815481529060010190602001808311611ad157829003601f168201915b505050505090806004018054611b0390614f00565b80601f0160208091040260200160405190810160405280929190818152602001828054611b2f90614f00565b8015611b7c5780601f10611b5157610100808354040283529160200191611b7c565b820191906000526020600020905b815481529060010190602001808311611b5f57829003601f168201915b5050505050905085565b60046020528060005260406000206000915090508060000154908060010160009054906101000a900473ffffffffffffffffffffffffffffffffffffffff16908060020154908060030154908060040154908060050154908060060154908060070154908060080160009054906101000a900473ffffffffffffffffffffffffffffffffffffffff16908060080160149054906101000a900460ff1690806009016040518060a00160405290816000820160009054906101000a900473ffffffffffffffffffffffffffffffffffffffff1673ffffffffffffffffffffffffffffffffffffffff1673ffffffffffffffffffffffffffffffffffffffff168152602001600182018054611c9890614f00565b80601f0160208091040260200160405190810160405280929190818152602001828054611cc490614f00565b8015611d115780601f10611ce657610100808354040283529160200191611d11565b820191906000526020600020905b815481529060010190602001808311611cf457829003601f168201915b50505050508152602001600282018054611d2a90614f00565b80601f0160208091040260200160405190810160405280929190818152602001828054611d5690614f00565b8015611da35780601f10611d7857610100808354040283529160200191611da3565b820191906000526020600020905b815481529060010190602001808311611d8657829003601f168201915b50505050508152602001600382018054611dbc90614f00565b80601f0160208091040260200160405190810160405280929190818152602001828054611de890614f00565b8015611e355780601f10611e0a57610100808354040283529160200191611e35565b820191906000526020600020905b815481529060010190602001808311611e1857829003601f168201915b50505050508152602001600482018054611e4e90614f00565b80601f0160208091040260200160405190810160405280929190818152602001828054611e7a90614f00565b8015611ec75780601f10611e9c57610100808354040283529160200191611ec7565b820191906000526020600020905b815481529060010190602001808311611eaa57829003601f168201915b50505050508152505090508b565b611edd61428b565b600860008373ffffffffffffffffffffffffffffffffffffffff1673ffffffffffffffffffffffffffffffffffffffff1681526020019081526020016000206040518060a00160405290816000820160009054906101000a900473ffffffffffffffffffffffffffffffffffffffff1673ffffffffffffffffffffffffffffffffffffffff1673ffffffffffffffffffffffffffffffffffffffff168152602001600182018054611f8d90614f00565b80601f0160208091040260200160405190810160405280929190818152602001828054611fb990614f00565b80156120065780601f10611fdb57610100808354040283529160200191612006565b820191906000526020600020905b815481529060010190602001808311611fe957829003601f168201915b5050505050815260200160028201805461201f90614f00565b80601f016020809104026020016040519081016040528092919081815260200182805461204b90614f00565b80156120985780601f1061206d57610100808354040283529160200191612098565b820191906000526020600020905b81548152906001019060200180831161207b57829003601f168201915b505050505081526020016003820180546120b190614f00565b80601f01602080910402602001604051908101604052809291908181526020018280546120dd90614f00565b801561212a5780601f106120ff5761010080835404028352916020019161212a565b820191906000526020600020905b81548152906001019060200180831161210d57829003601f168201915b5050505050815260200160048201805461214390614f00565b80601f016020809104026020016040519081016040528092919081815260200182805461216f90614f00565b80156121bc5780601f10612191576101008083540402835291602001916121bc565b820191906000526020600020905b81548152906001019060200180831161219f57829003601f168201915b5050505050815250509050919050565b60035481565b6121da614131565b73ffffffffffffffffffffffffffffffffffffffff166121f86114fa565b73ffffffffffffffffffffffffffffffffffffffff161461224e576040517f08c379a000000000000000000000000000000000000000000000000000000000815260040161224590615333565b60405180910390fd5b60008989905011612294576040517f08c379a000000000000000000000000000000000000000000000000000000000815260040161228b9061539f565b60405180910390fd5b600085859050116122da576040517f08c379a00000000000000000000000000000000000000000000000000000000081526004016122d19061540b565b60405180910390fd5b600073ffffffffffffffffffffffffffffffffffffffff168173ffffffffffffffffffffffffffffffffffffffff1603612349576040517f08c379a000000000000000000000000000000000000000000000000000000000815260040161234090615477565b60405180910390fd5b60006040518060a001604052808373ffffffffffffffffffffffffffffffffffffffff1681526020018b8b8080601f016020809104026020016040519081016040528093929190818152602001838380828437600081840152601f19601f82011690508083019250505050505050815260200189898080601f016020809104026020016040519081016040528093929190818152602001838380828437600081840152601f19601f82011690508083019250505050505050815260200187878080601f016020809104026020016040519081016040528093929190818152602001838380828437600081840152601f19601f82011690508083019250505050505050815260200185858080601f016020809104026020016040519081016040528093929190818152602001838380828437600081840152601f19601f82011690508083019250505050505050815250905080600860008473ffffffffffffffffffffffffffffffffffffffff1673ffffffffffffffffffffffffffffffffffffffff16815260200190815260200160002060008201518160000160006101000a81548173ffffffffffffffffffffffffffffffffffffffff021916908373ffffffffffffffffffffffffffffffffffffffff160217905550602082015181600101908051906020019061253d9291906142d0565b50604082015181600201908051906020019061255a9291906142d0565b5060608201518160030190805190602001906125779291906142d0565b5060808201518160040190805190602001906125949291906142d0565b509050507f9d149607b35531090b5116679ec7a10b37268e2ba17e04d51a298d7ee87cd032828b8b898989896040516125d397969594939291906154d3565b60405180910390a150505050505050505050565b60606005805480602002602001604051908101604052809291908181526020016000905b828210156129fd57838290600052602060002090600e020160405180610160016040529081600082015481526020016001820160009054906101000a900473ffffffffffffffffffffffffffffffffffffffff1673ffffffffffffffffffffffffffffffffffffffff1673ffffffffffffffffffffffffffffffffffffffff1681526020016002820154815260200160038201548152602001600482015481526020016005820154815260200160068201548152602001600782015481526020016008820160009054906101000a900473ffffffffffffffffffffffffffffffffffffffff1673ffffffffffffffffffffffffffffffffffffffff1673ffffffffffffffffffffffffffffffffffffffff1681526020016008820160149054906101000a900460ff16151515158152602001600982016040518060a00160405290816000820160009054906101000a900473ffffffffffffffffffffffffffffffffffffffff1673ffffffffffffffffffffffffffffffffffffffff1673ffffffffffffffffffffffffffffffffffffffff1681526020016001820180546127b290614f00565b80601f01602080910402602001604051908101604052809291908181526020018280546127de90614f00565b801561282b5780601f106128005761010080835404028352916020019161282b565b820191906000526020600020905b81548152906001019060200180831161280e57829003601f168201915b5050505050815260200160028201805461284490614f00565b80601f016020809104026020016040519081016040528092919081815260200182805461287090614f00565b80156128bd5780601f10612892576101008083540402835291602001916128bd565b820191906000526020600020905b8154815290600101906020018083116128a057829003601f168201915b505050505081526020016003820180546128d690614f00565b80601f016020809104026020016040519081016040528092919081815260200182805461290290614f00565b801561294f5780601f106129245761010080835404028352916020019161294f565b820191906000526020600020905b81548152906001019060200180831161293257829003601f168201915b5050505050815260200160048201805461296890614f00565b80601f016020809104026020016040519081016040528092919081815260200182805461299490614f00565b80156129e15780601f106129b6576101008083540402835291602001916129e1565b820191906000526020600020905b8154815290600101906020018083116129c457829003601f168201915b505050505081525050815250508152602001906001019061260b565b50505050905090565b60006004600083815260200190815260200160002060405180610160016040529081600082015481526020016001820160009054906101000a900473ffffffffffffffffffffffffffffffffffffffff1673ffffffffffffffffffffffffffffffffffffffff1673ffffffffffffffffffffffffffffffffffffffff1681526020016002820154815260200160038201548152602001600482015481526020016005820154815260200160068201548152602001600782015481526020016008820160009054906101000a900473ffffffffffffffffffffffffffffffffffffffff1673ffffffffffffffffffffffffffffffffffffffff1673ffffffffffffffffffffffffffffffffffffffff1681526020016008820160149054906101000a900460ff16151515158152602001600982016040518060a00160405290816000820160009054906101000a900473ffffffffffffffffffffffffffffffffffffffff1673ffffffffffffffffffffffffffffffffffffffff1673ffffffffffffffffffffffffffffffffffffffff168152602001600182018054612baa90614f00565b80601f0160208091040260200160405190810160405280929190818152602001828054612bd690614f00565b8015612c235780601f10612bf857610100808354040283529160200191612c23565b820191906000526020600020905b815481529060010190602001808311612c0657829003601f168201915b50505050508152602001600282018054612c3c90614f00565b80601f0160208091040260200160405190810160405280929190818152602001828054612c6890614f00565b8015612cb55780601f10612c8a57610100808354040283529160200191612cb5565b820191906000526020600020905b815481529060010190602001808311612c9857829003601f168201915b50505050508152602001600382018054612cce90614f00565b80601f0160208091040260200160405190810160405280929190818152602001828054612cfa90614f00565b8015612d475780601f10612d1c57610100808354040283529160200191612d47565b820191906000526020600020905b815481529060010190602001808311612d2a57829003601f168201915b50505050508152602001600482018054612d6090614f00565b80601f0160208091040260200160405190810160405280929190818152602001828054612d8c90614f00565b8015612dd95780601f10612dae57610100808354040283529160200191612dd9565b820191906000526020600020905b815481529060010190602001808311612dbc57829003601f168201915b505050505081525050815250509050600073ffffffffffffffffffffffffffffffffffffffff1681610100015173ffffffffffffffffffffffffffffffffffffffff1603612e5c576040517f08c379a0000000000000000000000000000000000000000000000000000000008152600401612e5390614f7d565b60405180910390fd5b60008160e0015103612ea3576040517f08c379a0000000000000000000000000000000000000000000000000000000008152600401612e9a90614fe9565b60405180910390fd5b80608001518160a001511015612eee576040517f08c379a0000000000000000000000000000000000000000000000000000000008152600401612ee5906155a5565b60405180910390fd5b600081610100015190508160a0015160036000828254612f0e9190615291565b925050819055508073ffffffffffffffffffffffffffffffffffffffff166108fc8360a001519081150290604051600060405180830381858888f19350505050158015612f5f573d6000803e3d6000fd5b50505050565b60006004600083815260200190815260200160002060405180610160016040529081600082015481526020016001820160009054906101000a900473ffffffffffffffffffffffffffffffffffffffff1673ffffffffffffffffffffffffffffffffffffffff1673ffffffffffffffffffffffffffffffffffffffff1681526020016002820154815260200160038201548152602001600482015481526020016005820154815260200160068201548152602001600782015481526020016008820160009054906101000a900473ffffffffffffffffffffffffffffffffffffffff1673ffffffffffffffffffffffffffffffffffffffff1673ffffffffffffffffffffffffffffffffffffffff1681526020016008820160149054906101000a900460ff16151515158152602001600982016040518060a00160405290816000820160009054906101000a900473ffffffffffffffffffffffffffffffffffffffff1673ffffffffffffffffffffffffffffffffffffffff1673ffffffffffffffffffffffffffffffffffffffff16815260200160018201805461310990614f00565b80601f016020809104026020016040519081016040528092919081815260200182805461313590614f00565b80156131825780601f1061315757610100808354040283529160200191613182565b820191906000526020600020905b81548152906001019060200180831161316557829003601f168201915b5050505050815260200160028201805461319b90614f00565b80601f01602080910402602001604051908101604052809291908181526020018280546131c790614f00565b80156132145780601f106131e957610100808354040283529160200191613214565b820191906000526020600020905b8154815290600101906020018083116131f757829003601f168201915b5050505050815260200160038201805461322d90614f00565b80601f016020809104026020016040519081016040528092919081815260200182805461325990614f00565b80156132a65780601f1061327b576101008083540402835291602001916132a6565b820191906000526020600020905b81548152906001019060200180831161328957829003601f168201915b505050505081526020016004820180546132bf90614f00565b80601f01602080910402602001604051908101604052809291908181526020018280546132eb90614f00565b80156133385780601f1061330d57610100808354040283529160200191613338565b820191906000526020600020905b81548152906001019060200180831161331b57829003601f168201915b505050505081525050815250509050600073ffffffffffffffffffffffffffffffffffffffff1681610100015173ffffffffffffffffffffffffffffffffffffffff16036133bb576040517f08c379a00000000000000000000000000000000000000000000000000000000081526004016133b290614f7d565b60405180910390fd5b60008160e0015114613402576040517f08c379a00000000000000000000000000000000000000000000000000000000081526004016133f990615611565b60405180910390fd5b8060c0015181604001516134169190615291565b421015613458576040517f08c379a000000000000000000000000000000000000000000000000000000000815260040161344f9061567d565b60405180910390fd5b428160e001818152505080600460008481526020019081526020016000206000820151816000015560208201518160010160006101000a81548173ffffffffffffffffffffffffffffffffffffffff021916908373ffffffffffffffffffffffffffffffffffffffff16021790555060408201518160020155606082015181600301556080820151816004015560a0820151816005015560c0820151816006015560e082015181600701556101008201518160080160006101000a81548173ffffffffffffffffffffffffffffffffffffffff021916908373ffffffffffffffffffffffffffffffffffffffff1602179055506101208201518160080160146101000a81548160ff0219169083151502179055506101408201518160090160008201518160000160006101000a81548173ffffffffffffffffffffffffffffffffffffffff021916908373ffffffffffffffffffffffffffffffffffffffff16021790555060208201518160010190805190602001906135d99291906142d0565b5060408201518160020190805190602001906135f69291906142d0565b5060608201518160030190805190602001906136139291906142d0565b5060808201518160040190805190602001906136309291906142d0565b5050509050507f60a64a73dcaed7ed02d10c6e33044bacd2299257812c69542e92c61fcd79fc60824260405161366792919061569d565b60405180910390a15050565b61367b614131565b73ffffffffffffffffffffffffffffffffffffffff166136996114fa565b73ffffffffffffffffffffffffffffffffffffffff16146136ef576040517f08c379a00000000000000000000000000000000000000000000000000000000081526004016136e690615333565b60405180910390fd5b600073ffffffffffffffffffffffffffffffffffffffff168173ffffffffffffffffffffffffffffffffffffffff160361375e576040517f08c379a000000000000000000000000000000000000000000000000000000000815260040161375590615738565b60405180910390fd5b61376781614139565b50565b34841480156137795750600034115b6137b8576040517f08c379a00000000000000000000000000000000000000000000000000000000081526004016137af906157a4565b60405180910390fd5b8383116137fa576040517f08c379a00000000000000000000000000000000000000000000000000000000081526004016137f190615836565b60405180910390fd5b6236ee80821015613840576040517f08c379a0000000000000000000000000000000000000000000000000000000008152600401613837906158a2565b60405180910390fd5b600073ffffffffffffffffffffffffffffffffffffffff168173ffffffffffffffffffffffffffffffffffffffff16036138af576040517f08c379a00000000000000000000000000000000000000000000000000000000081526004016138a69061590e565b60405180910390fd5b600080600860008473ffffffffffffffffffffffffffffffffffffffff1673ffffffffffffffffffffffffffffffffffffffff1681526020019081526020016000206040518060a00160405290816000820160009054906101000a900473ffffffffffffffffffffffffffffffffffffffff1673ffffffffffffffffffffffffffffffffffffffff1673ffffffffffffffffffffffffffffffffffffffff16815260200160018201805461396290614f00565b80601f016020809104026020016040519081016040528092919081815260200182805461398e90614f00565b80156139db5780601f106139b0576101008083540402835291602001916139db565b820191906000526020600020905b8154815290600101906020018083116139be57829003601f168201915b505050505081526020016002820180546139f490614f00565b80601f0160208091040260200160405190810160405280929190818152602001828054613a2090614f00565b8015613a6d5780601f10613a4257610100808354040283529160200191613a6d565b820191906000526020600020905b815481529060010190602001808311613a5057829003601f168201915b50505050508152602001600382018054613a8690614f00565b80601f0160208091040260200160405190810160405280929190818152602001828054613ab290614f00565b8015613aff5780601f10613ad457610100808354040283529160200191613aff565b820191906000526020600020905b815481529060010190602001808311613ae257829003601f168201915b50505050508152602001600482018054613b1890614f00565b80601f0160208091040260200160405190810160405280929190818152602001828054613b4490614f00565b8015613b915780601f10613b6657610100808354040283529160200191613b91565b820191906000526020600020905b815481529060010190602001808311613b7457829003601f168201915b50505050508152505090508273ffffffffffffffffffffffffffffffffffffffff16816000015173ffffffffffffffffffffffffffffffffffffffff1603613bd857600191505b600060405180610160016040528060025481526020013373ffffffffffffffffffffffffffffffffffffffff168152602001428152602001888152602001878152602001888152602001868152602001600081526020018573ffffffffffffffffffffffffffffffffffffffff1681526020018415158152602001838152509050806004600060025481526020019081526020016000206000820151816000015560208201518160010160006101000a81548173ffffffffffffffffffffffffffffffffffffffff021916908373ffffffffffffffffffffffffffffffffffffffff16021790555060408201518160020155606082015181600301556080820151816004015560a0820151816005015560c0820151816006015560e082015181600701556101008201518160080160006101000a81548173ffffffffffffffffffffffffffffffffffffffff021916908373ffffffffffffffffffffffffffffffffffffffff1602179055506101208201518160080160146101000a81548160ff0219169083151502179055506101408201518160090160008201518160000160006101000a81548173ffffffffffffffffffffffffffffffffffffffff021916908373ffffffffffffffffffffffffffffffffffffffff1602179055506020820151816001019080519060200190613dd29291906142d0565b506040820151816002019080519060200190613def9291906142d0565b506060820151816003019080519060200190613e0c9291906142d0565b506080820151816004019080519060200190613e299291906142d0565b50505090505060058190806001815401808255809150506001900390600052602060002090600e02016000909190919091506000820151816000015560208201518160010160006101000a81548173ffffffffffffffffffffffffffffffffffffffff021916908373ffffffffffffffffffffffffffffffffffffffff16021790555060408201518160020155606082015181600301556080820151816004015560a0820151816005015560c0820151816006015560e082015181600701556101008201518160080160006101000a81548173ffffffffffffffffffffffffffffffffffffffff021916908373ffffffffffffffffffffffffffffffffffffffff1602179055506101208201518160080160146101000a81548160ff0219169083151502179055506101408201518160090160008201518160000160006101000a81548173ffffffffffffffffffffffffffffffffffffffff021916908373ffffffffffffffffffffffffffffffffffffffff1602179055506020820151816001019080519060200190613fbe9291906142d0565b506040820151816002019080519060200190613fdb9291906142d0565b506060820151816003019080519060200190613ff89291906142d0565b5060808201518160040190805190602001906140159291906142d0565b50505050508660076000600254815260200190815260200160002060003373ffffffffffffffffffffffffffffffffffffffff1673ffffffffffffffffffffffffffffffffffffffff16815260200190815260200160002081905550600660003373ffffffffffffffffffffffffffffffffffffffff1673ffffffffffffffffffffffffffffffffffffffff1681526020019081526020016000206002549080600181540180825580915050600190039060005260206000200160009091909190915055600260008154809291906140ec9061592e565b91905055507f9bf87e930f9c704058ff1ccbbe66d9516049c58ff2ad6f407f6a0567be5dbf198160405161412091906148c0565b60405180910390a150505050505050565b600033905090565b60008060009054906101000a900473ffffffffffffffffffffffffffffffffffffffff169050816000806101000a81548173ffffffffffffffffffffffffffffffffffffffff021916908373ffffffffffffffffffffffffffffffffffffffff1602179055508173ffffffffffffffffffffffffffffffffffffffff168173ffffffffffffffffffffffffffffffffffffffff167f8be0079c531659141344cd1fd0a4f28419497f9722a3daafe3b4186f6b6457e060405160405180910390a35050565b60405180610160016040528060008152602001600073ffffffffffffffffffffffffffffffffffffffff168152602001600081526020016000815260200160008152602001600081526020016000815260200160008152602001600073ffffffffffffffffffffffffffffffffffffffff16815260200160001515815260200161428561428b565b81525090565b6040518060a00160405280600073ffffffffffffffffffffffffffffffffffffffff168152602001606081526020016060815260200160608152602001606081525090565b8280546142dc90614f00565b90600052602060002090601f0160209004810192826142fe5760008555614345565b82601f1061431757805160ff1916838001178555614345565b82800160010185558215614345579182015b82811115614344578251825591602001919060010190614329565b5b5090506143529190614356565b5090565b5b8082111561436f576000816000905550600101614357565b5090565b600080fd5b600080fd5b6000819050919050565b6143908161437d565b811461439b57600080fd5b50565b6000813590506143ad81614387565b92915050565b600073ffffffffffffffffffffffffffffffffffffffff82169050919050565b60006143de826143b3565b9050919050565b6143ee816143d3565b81146143f957600080fd5b50565b60008135905061440b816143e5565b92915050565b6000806040838503121561442857614427614373565b5b60006144368582860161439e565b9250506020614447858286016143fc565b9150509250929050565b60006020828403121561446757614466614373565b5b60006144758482850161439e565b91505092915050565b6144878161437d565b82525050565b60006020820190506144a2600083018461447e565b92915050565b600081519050919050565b600082825260208201905092915050565b6000819050602082019050919050565b60006144df826143b3565b9050919050565b6144ef816144d4565b82525050565b600081519050919050565b600082825260208201905092915050565b60005b8381101561452f578082015181840152602081019050614514565b8381111561453e576000848401525b50505050565b6000601f19601f8301169050919050565b6000614560826144f5565b61456a8185614500565b935061457a818560208601614511565b61458381614544565b840191505092915050565b600060a0830160008301516145a660008601826144e6565b50602083015184820360208601526145be8282614555565b915050604083015184820360408601526145d88282614555565b915050606083015184820360608601526145f28282614555565b9150506080830151848203608086015261460c8282614555565b9150508091505092915050565b6000614625838361458e565b905092915050565b6000602082019050919050565b6000614645826144a8565b61464f81856144b3565b935083602082028501614661856144c4565b8060005b8581101561469d578484038952815161467e8582614619565b94506146898361462d565b925060208a01995050600181019050614665565b50829750879550505050505092915050565b600060208201905081810360008301526146c9818461463a565b905092915050565b6146da816144d4565b81146146e557600080fd5b50565b6000813590506146f7816146d1565b92915050565b6000806040838503121561471457614713614373565b5b6000614722858286016146e8565b92505060206147338582860161439e565b9150509250929050565b6000806040838503121561475457614753614373565b5b60006147628582860161439e565b92505060206147738582860161439e565b9150509250929050565b614786816144d4565b82525050565b60006020820190506147a1600083018461477d565b92915050565b6147b08161437d565b82525050565b60008115159050919050565b6147cb816147b6565b82525050565b6000610160830160008301516147ea60008601826147a7565b5060208301516147fd60208601826144e6565b50604083015161481060408601826147a7565b50606083015161482360608601826147a7565b50608083015161483660808601826147a7565b5060a083015161484960a08601826147a7565b5060c083015161485c60c08601826147a7565b5060e083015161486f60e08601826147a7565b506101008301516148846101008601826144e6565b506101208301516148996101208601826147c2565b506101408301518482036101408601526148b3828261458e565b9150508091505092915050565b600060208201905081810360008301526148da81846147d1565b905092915050565b6000602082840312156148f8576148f7614373565b5b6000614906848285016146e8565b91505092915050565b600082825260208201905092915050565b600061492b826144f5565b614935818561490f565b9350614945818560208601614511565b61494e81614544565b840191505092915050565b600060a08201905061496e600083018861477d565b81810360208301526149808187614920565b905081810360408301526149948186614920565b905081810360608301526149a88185614920565b905081810360808301526149bc8184614920565b90509695505050505050565b6149d1816147b6565b82525050565b600060a0830160008301516149ef60008601826144e6565b5060208301518482036020860152614a078282614555565b91505060408301518482036040860152614a218282614555565b91505060608301518482036060860152614a3b8282614555565b91505060808301518482036080860152614a558282614555565b9150508091505092915050565b600061016082019050614a78600083018e61447e565b614a85602083018d61477d565b614a92604083018c61447e565b614a9f606083018b61447e565b614aac608083018a61447e565b614ab960a083018961447e565b614ac660c083018861447e565b614ad360e083018761447e565b614ae161010083018661477d565b614aef6101208301856149c8565b818103610140830152614b0281846149d7565b90509c9b505050505050505050505050565b60006020820190508181036000830152614b2e81846149d7565b905092915050565b600080fd5b600080fd5b600080fd5b60008083601f840112614b5b57614b5a614b36565b5b8235905067ffffffffffffffff811115614b7857614b77614b3b565b5b602083019150836001820283011115614b9457614b93614b40565b5b9250929050565b600080600080600080600080600060a08a8c031215614bbd57614bbc614373565b5b60008a013567ffffffffffffffff811115614bdb57614bda614378565b5b614be78c828d01614b45565b995099505060208a013567ffffffffffffffff811115614c0a57614c09614378565b5b614c168c828d01614b45565b975097505060408a013567ffffffffffffffff811115614c3957614c38614378565b5b614c458c828d01614b45565b955095505060608a013567ffffffffffffffff811115614c6857614c67614378565b5b614c748c828d01614b45565b93509350506080614c878c828d016146e8565b9150509295985092959850929598565b600081519050919050565b600082825260208201905092915050565b6000819050602082019050919050565b600061016083016000830151614cdc60008601826147a7565b506020830151614cef60208601826144e6565b506040830151614d0260408601826147a7565b506060830151614d1560608601826147a7565b506080830151614d2860808601826147a7565b5060a0830151614d3b60a08601826147a7565b5060c0830151614d4e60c08601826147a7565b5060e0830151614d6160e08601826147a7565b50610100830151614d766101008601826144e6565b50610120830151614d8b6101208601826147c2565b50610140830151848203610140860152614da5828261458e565b9150508091505092915050565b6000614dbe8383614cc3565b905092915050565b6000602082019050919050565b6000614dde82614c97565b614de88185614ca2565b935083602082028501614dfa85614cb3565b8060005b85811015614e365784840389528151614e178582614db2565b9450614e2283614dc6565b925060208a01995050600181019050614dfe565b50829750879550505050505092915050565b60006020820190508181036000830152614e628184614dd3565b905092915050565b60008060008060808587031215614e8457614e83614373565b5b6000614e928782880161439e565b9450506020614ea38782880161439e565b9350506040614eb48782880161439e565b9250506060614ec5878288016146e8565b91505092959194509250565b7f4e487b7100000000000000000000000000000000000000000000000000000000600052602260045260246000fd5b60006002820490506001821680614f1857607f821691505b602082108103614f2b57614f2a614ed1565b5b50919050565b7f506c6564676520646f6573206e6f742065786973740000000000000000000000600082015250565b6000614f6760158361490f565b9150614f7282614f31565b602082019050919050565b60006020820190508181036000830152614f9681614f5a565b9050919050565b7f506c6564676520686173206e6f7420656e646564000000000000000000000000600082015250565b6000614fd360148361490f565b9150614fde82614f9d565b602082019050919050565b6000602082019050818103600083015261500281614fc6565b9050919050565b7f53656e646572206d757374206265207468652061646472657373206f6620746860008201527f652062656e656669636961727900000000000000000000000000000000000000602082015250565b6000615065602d8361490f565b915061507082615009565b604082019050919050565b6000602082019050818103600083015261509481615058565b9050919050565b7f506c6564676520686173207265616368656420676f616c20616d6f756e742c2060008201527f63616e6e6f742077697468647261772e2046756e647320617265206f6e6c792060208201527f776974686472617761626c652062792074686520636861726974792e00000000604082015250565b600061511d605c8361490f565b91506151288261509b565b606082019050919050565b6000602082019050818103600083015261514c81615110565b9050919050565b6000606082019050615168600083018661447e565b615175602083018561477d565b615182604083018461447e565b949350505050565b7f416d6f756e74206d7573742062652067726561746572207468616e2030000000600082015250565b60006151c0601d8361490f565b91506151cb8261518a565b602082019050919050565b600060208201905081810360008301526151ef816151b3565b9050919050565b7f506c656467652068617320656e64656400000000000000000000000000000000600082015250565b600061522c60108361490f565b9150615237826151f6565b602082019050919050565b6000602082019050818103600083015261525b8161521f565b9050919050565b7f4e487b7100000000000000000000000000000000000000000000000000000000600052601160045260246000fd5b600061529c8261437d565b91506152a78361437d565b9250827fffffffffffffffffffffffffffffffffffffffffffffffffffffffffffffffff038211156152dc576152db615262565b5b828201905092915050565b7f4f776e61626c653a2063616c6c6572206973206e6f7420746865206f776e6572600082015250565b600061531d60208361490f565b9150615328826152e7565b602082019050919050565b6000602082019050818103600083015261534c81615310565b9050919050565b7f43686172697479206e616d65206973206120726571756972656420706172616d600082015250565b600061538960208361490f565b915061539482615353565b602082019050919050565b600060208201905081810360008301526153b88161537c565b9050919050565b7f576562736974652055524c206973206120726571756972656420706172616d00600082015250565b60006153f5601f8361490f565b9150615400826153bf565b602082019050919050565b60006020820190508181036000830152615424816153e8565b9050919050565b7f4164647265737320697320726571756972656400000000000000000000000000600082015250565b600061546160138361490f565b915061546c8261542b565b602082019050919050565b6000602082019050818103600083015261549081615454565b9050919050565b82818337600083830152505050565b60006154b2838561490f565b93506154bf838584615497565b6154c883614544565b840190509392505050565b60006080820190506154e8600083018a61477d565b81810360208301526154fb81888a6154a6565b905081810360408301526155108186886154a6565b905081810360608301526155258184866154a6565b905098975050505050505050565b7f506c6564676520686173206e6f74207265616368656420676f616c20616d6f7560008201527f6e742e0000000000000000000000000000000000000000000000000000000000602082015250565b600061558f60238361490f565b915061559a82615533565b604082019050919050565b600060208201905081810360008301526155be81615582565b9050919050565b7f506c656467652068617320616c726561647920656e6465640000000000000000600082015250565b60006155fb60188361490f565b9150615606826155c5565b602082019050919050565b6000602082019050818103600083015261562a816155ee565b9050919050565b7f506c6564676520686173206e6f7420656e646564207965740000000000000000600082015250565b600061566760188361490f565b915061567282615631565b602082019050919050565b600060208201905081810360008301526156968161565a565b9050919050565b60006040820190506156b2600083018561447e565b6156bf602083018461447e565b9392505050565b7f4f776e61626c653a206e6577206f776e657220697320746865207a65726f206160008201527f6464726573730000000000000000000000000000000000000000000000000000602082015250565b600061572260268361490f565b915061572d826156c6565b604082019050919050565b6000602082019050818103600083015261575181615715565b9050919050565b7f506c65646765206d7573742062652067726561746572207468616e2030000000600082015250565b600061578e601d8361490f565b915061579982615758565b602082019050919050565b600060208201905081810360008301526157bd81615781565b9050919050565b7f476f616c20616d6f756e74206d7573742062652067726561746572207468616e60008201527f2074686520696e697469616c20706c6564676500000000000000000000000000602082015250565b600061582060338361490f565b915061582b826157c4565b604082019050919050565b6000602082019050818103600083015261584f81615813565b9050919050565b7f4475726174696f6e206d757374206265206174206c65617374203120686f7572600082015250565b600061588c60208361490f565b915061589782615856565b602082019050919050565b600060208201905081810360008301526158bb8161587f565b9050919050565b7f4368617269747920616464726573732063616e6e6f7420626520300000000000600082015250565b60006158f8601b8361490f565b9150615903826158c2565b602082019050919050565b60006020820190508181036000830152615927816158eb565b9050919050565b60006159398261437d565b91507fffffffffffffffffffffffffffffffffffffffffffffffffffffffffffffffff820361596b5761596a615262565b5b60018201905091905056fea2646970667358221220627b8d2e5c221c07e4a90a36695aca3e0af35a12daa61e91fadfd42297c0e09764736f6c634300080e0033",
  "immutableReferences": {},
  "source": "// SPDX-License-Identifier: MIT\npragma solidity 0.8.14;\n\nimport \"@openzeppelin/contracts/access/Ownable.sol\";\n\ncontract Hakuai is Ownable {\n\n  address _owner;\n  \n  struct Charity {\n    address addr;\n    string name;\n    string description;\n    string websiteUrl;\n    string imageUrl;\n  }\n  struct Pledge {\n    uint256 id;\n    address creator;\n    uint256 createdAt;\n    uint256 initialPledge;\n    uint256 goalAmount;\n    uint256 raisedAmount;\n    uint256 duration;\n    uint256 endedAt;\n    address charityAddress;\n    bool isVerified;\n    Charity charity;\n  }\n\n\n  uint256 pledgeCounter = 1;\n  uint256 public totalClaimedByCharities = 0;\n  mapping (uint256 => Pledge) public pledges;\n  Pledge[] pledgeArray;\n  mapping (address => uint256[]) public pledgesContributedTo;\n  mapping (uint256 => mapping (address => uint256)) pledgeContributions;\n  mapping (address => Charity) public verifiedCharities;\n  Charity[] verifiedCharityArray;\n\n  event PledgeCreated(Pledge pledge);\n  event PledgeContribution(uint256 pledgeId, address contributor, uint256 amount);\n  event PledgeEnded(uint256 pledgeId, uint256 timestamp);\n  event Withdrawal(uint256 pledgeId, address contributor, uint256 amount);\n  event CharityCreated(address addr, string name, string websiteUrl, string imageUrl);\n\n\n  constructor () {\n    _owner = msg.sender;\n  }\n\n  function createPledge(uint256 initialPledge, uint256 goalAmount, uint256 duration, address charityAddress) public payable {\n    require(initialPledge == msg.value && msg.value > 0, \"Pledge must be greater than 0\");\n    require(goalAmount > initialPledge, \"Goal amount must be greater than the initial pledge\");\n    require(duration >= 3600000, \"Duration must be at least 1 hour\");\n    require(charityAddress != address(0), \"Charity address cannot be 0\");\n\n    bool isVerified = false;\n    Charity memory charity = verifiedCharities[charityAddress];\n    if (charity.addr == charityAddress) {\n      isVerified = true;\n    }\n\n    Pledge memory pledge = Pledge(\n      pledgeCounter,\n      msg.sender,\n      block.timestamp,\n      initialPledge,\n      goalAmount,\n      initialPledge,\n      duration,\n      0,\n      charityAddress,\n      isVerified,\n      charity\n    );\n    pledges[pledgeCounter] = pledge;\n    pledgeArray.push(pledge);\n\n    pledgeContributions[pledgeCounter][msg.sender] = initialPledge;\n    pledgesContributedTo[msg.sender].push(pledgeCounter);\n\n    pledgeCounter++;\n\n    emit PledgeCreated(pledge);\n  }\n\n  function getPledge(uint256 pledge) public view returns (Pledge memory) {\n    return pledges[pledge];\n  }\n\n  function getPledges() public view returns (Pledge[] memory) {\n    return pledgeArray;\n  }\n\n  function contributeToPledge(uint256 pledgeId, uint256 amount) public payable {\n    require(amount == msg.value && msg.value > 0, \"Amount must be greater than 0\");\n\n    Pledge memory pledge = pledges[pledgeId];\n\n    require(pledge.charityAddress != address(0), \"Pledge does not exist\");\n    require(pledge.endedAt == 0, \"Pledge has ended\");\n\n    pledge.raisedAmount += amount;\n\n    pledgeContributions[pledgeId][msg.sender] += amount;\n    pledgesContributedTo[msg.sender].push(pledgeId);\n\n    emit PledgeContribution(pledgeId, msg.sender, amount);\n  }\n\n  function howMuchDidIContribute(uint256 pledgeId) public view returns (uint256) {\n    return pledgeContributions[pledgeId][msg.sender];\n  }\n\n  function endPledge(uint256 pledgeId) public {\n    Pledge memory pledge = pledges[pledgeId];\n\n    require(pledge.charityAddress != address(0), \"Pledge does not exist\");\n    require(pledge.endedAt == 0, \"Pledge has already ended\");\n    require(block.timestamp >= pledge.createdAt + pledge.duration, \"Pledge has not ended yet\");\n\n    pledge.endedAt = block.timestamp;\n    pledges[pledgeId] = pledge;\n\n    emit PledgeEnded(pledgeId, block.timestamp);\n  }\n\n  function withdraw(uint256 pledgeId, address payable addr) public {\n    Pledge memory pledge = pledges[pledgeId];\n    require(pledge.charityAddress != address(0), \"Pledge does not exist\");\n    require(pledge.endedAt != 0, \"Pledge has not ended\");\n    require(msg.sender == addr, \"Sender must be the address of the beneficiary\");\n    require(pledge.raisedAmount < pledge.goalAmount, \"Pledge has reached goal amount, cannot withdraw. Funds are only withdrawable by the charity.\");\n\n    uint256 contributed = pledgeContributions[pledgeId][msg.sender];\n    pledgeContributions[pledgeId][msg.sender] = 0;\n    addr.transfer(contributed);\n\n    emit Withdrawal(pledgeId, msg.sender, contributed);\n  }\n\n  function withdrawForCharity(uint256 pledgeId) public {\n    Pledge memory pledge = pledges[pledgeId];\n    require(pledge.charityAddress != address(0), \"Pledge does not exist\");\n    require(pledge.endedAt != 0, \"Pledge has not ended\");\n    require(pledge.raisedAmount >= pledge.goalAmount, \"Pledge has not reached goal amount.\");\n\n    address payable charityAddress = payable(pledge.charityAddress);\n    totalClaimedByCharities += pledge.raisedAmount;\n    charityAddress.transfer(pledge.raisedAmount);\n  }\n\n  function createVerifiedCharity(string calldata name, string calldata description,\n      string calldata websiteUrl, string calldata imageUrl, address addr) public onlyOwner {\n\n    require(bytes(name).length > 0, \"Charity name is a required param\");\n    require(bytes(websiteUrl).length > 0, \"Website URL is a required param\");\n    require(addr != address(0), \"Address is required\");\n\n    Charity memory charity = Charity(\n      addr,\n      name,\n      description,\n      websiteUrl,\n      imageUrl\n    );\n    verifiedCharities[addr] = charity;\n\n    emit CharityCreated(addr, name, websiteUrl, imageUrl);\n  }\n\n  function getVerifiedCharity(address addr) public view returns (Charity memory) {\n    return verifiedCharities[addr];\n  }\n\n  function getVerifiedCharities() public view returns (Charity[] memory) {\n    return verifiedCharityArray;\n  }\n\n}\n",
  "sourcePath": "/Users/chrisschnabel/projects/ethereum/shanghai-hackathon/truffle/contracts/Hakuai.sol",
  "compiler": {
    "name": "solc",
    "version": "0.8.14+commit.80d49f37.Emscripten.clang"
  },
  "schemaVersion": "3.4.7",
  "updatedAt": "2022-05-30T22:10:00.405Z",
  "devdoc": {
    "kind": "dev",
    "methods": {
      "owner()": {
        "details": "Returns the address of the current owner."
      },
      "renounceOwnership()": {
        "details": "Leaves the contract without owner. It will not be possible to call `onlyOwner` functions anymore. Can only be called by the current owner. NOTE: Renouncing ownership will leave the contract without an owner, thereby removing any functionality that is only available to the owner."
      },
      "transferOwnership(address)": {
        "details": "Transfers ownership of the contract to a new account (`newOwner`). Can only be called by the current owner."
      }
    },
    "version": 1
  },
  "userdoc": {
    "kind": "user",
    "methods": {},
    "version": 1
  }
}