{
  "contractName": "Hakuai",
  "abi": [
    {
      "inputs": [],
      "stateMutability": "nonpayable",
      "type": "constructor"
    },
    {
      "anonymous": false,
      "inputs": [
        {
          "indexed": false,
          "internalType": "address",
          "name": "addr",
          "type": "address"
        },
        {
          "indexed": false,
          "internalType": "string",
          "name": "name",
          "type": "string"
        },
        {
          "indexed": false,
          "internalType": "string",
          "name": "websiteUrl",
          "type": "string"
        },
        {
          "indexed": false,
          "internalType": "string",
          "name": "imageUrl",
          "type": "string"
        }
      ],
      "name": "CharityCreated",
      "type": "event"
    },
    {
      "anonymous": false,
      "inputs": [
        {
          "indexed": true,
          "internalType": "address",
          "name": "previousOwner",
          "type": "address"
        },
        {
          "indexed": true,
          "internalType": "address",
          "name": "newOwner",
          "type": "address"
        }
      ],
      "name": "OwnershipTransferred",
      "type": "event"
    },
    {
      "anonymous": false,
      "inputs": [
        {
          "indexed": false,
          "internalType": "uint256",
          "name": "pledgeId",
          "type": "uint256"
        },
        {
          "indexed": false,
          "internalType": "address",
          "name": "contributor",
          "type": "address"
        },
        {
          "indexed": false,
          "internalType": "uint256",
          "name": "amount",
          "type": "uint256"
        }
      ],
      "name": "PledgeContribution",
      "type": "event"
    },
    {
      "anonymous": false,
      "inputs": [
        {
          "components": [
            {
              "internalType": "uint256",
              "name": "id",
              "type": "uint256"
            },
            {
              "internalType": "address",
              "name": "creator",
              "type": "address"
            },
            {
              "internalType": "uint256",
              "name": "createdAt",
              "type": "uint256"
            },
            {
              "internalType": "uint256",
              "name": "initialPledge",
              "type": "uint256"
            },
            {
              "internalType": "uint256",
              "name": "goalAmount",
              "type": "uint256"
            },
            {
              "internalType": "uint256",
              "name": "raisedAmount",
              "type": "uint256"
            },
            {
              "internalType": "uint256",
              "name": "duration",
              "type": "uint256"
            },
            {
              "internalType": "uint256",
              "name": "endedAt",
              "type": "uint256"
            },
            {
              "internalType": "address",
              "name": "charityAddress",
              "type": "address"
            },
            {
              "internalType": "bool",
              "name": "isVerified",
              "type": "bool"
            },
            {
              "components": [
                {
                  "internalType": "address",
                  "name": "addr",
                  "type": "address"
                },
                {
                  "internalType": "string",
                  "name": "name",
                  "type": "string"
                },
                {
                  "internalType": "string",
                  "name": "description",
                  "type": "string"
                },
                {
                  "internalType": "string",
                  "name": "websiteUrl",
                  "type": "string"
                },
                {
                  "internalType": "string",
                  "name": "imageUrl",
                  "type": "string"
                }
              ],
              "internalType": "struct Hakuai.Charity",
              "name": "charity",
              "type": "tuple"
            },
            {
              "internalType": "bool",
              "name": "completed",
              "type": "bool"
            }
          ],
          "indexed": false,
          "internalType": "struct Hakuai.Pledge",
          "name": "pledge",
          "type": "tuple"
        }
      ],
      "name": "PledgeCreated",
      "type": "event"
    },
    {
      "anonymous": false,
      "inputs": [
        {
          "indexed": false,
          "internalType": "uint256",
          "name": "pledgeId",
          "type": "uint256"
        },
        {
          "indexed": false,
          "internalType": "uint256",
          "name": "timestamp",
          "type": "uint256"
        }
      ],
      "name": "PledgeEnded",
      "type": "event"
    },
    {
      "anonymous": false,
      "inputs": [
        {
          "indexed": false,
          "internalType": "uint256",
          "name": "pledgeId",
          "type": "uint256"
        },
        {
          "indexed": false,
          "internalType": "address",
          "name": "contributor",
          "type": "address"
        },
        {
          "indexed": false,
          "internalType": "uint256",
          "name": "amount",
          "type": "uint256"
        }
      ],
      "name": "Withdrawal",
      "type": "event"
    },
    {
      "inputs": [],
      "name": "owner",
      "outputs": [
        {
          "internalType": "address",
          "name": "",
          "type": "address"
        }
      ],
      "stateMutability": "view",
      "type": "function"
    },
    {
      "inputs": [
        {
          "internalType": "uint256",
          "name": "",
          "type": "uint256"
        }
      ],
      "name": "pledges",
      "outputs": [
        {
          "internalType": "uint256",
          "name": "id",
          "type": "uint256"
        },
        {
          "internalType": "address",
          "name": "creator",
          "type": "address"
        },
        {
          "internalType": "uint256",
          "name": "createdAt",
          "type": "uint256"
        },
        {
          "internalType": "uint256",
          "name": "initialPledge",
          "type": "uint256"
        },
        {
          "internalType": "uint256",
          "name": "goalAmount",
          "type": "uint256"
        },
        {
          "internalType": "uint256",
          "name": "raisedAmount",
          "type": "uint256"
        },
        {
          "internalType": "uint256",
          "name": "duration",
          "type": "uint256"
        },
        {
          "internalType": "uint256",
          "name": "endedAt",
          "type": "uint256"
        },
        {
          "internalType": "address",
          "name": "charityAddress",
          "type": "address"
        },
        {
          "internalType": "bool",
          "name": "isVerified",
          "type": "bool"
        },
        {
          "components": [
            {
              "internalType": "address",
              "name": "addr",
              "type": "address"
            },
            {
              "internalType": "string",
              "name": "name",
              "type": "string"
            },
            {
              "internalType": "string",
              "name": "description",
              "type": "string"
            },
            {
              "internalType": "string",
              "name": "websiteUrl",
              "type": "string"
            },
            {
              "internalType": "string",
              "name": "imageUrl",
              "type": "string"
            }
          ],
          "internalType": "struct Hakuai.Charity",
          "name": "charity",
          "type": "tuple"
        },
        {
          "internalType": "bool",
          "name": "completed",
          "type": "bool"
        }
      ],
      "stateMutability": "view",
      "type": "function"
    },
    {
      "inputs": [
        {
          "internalType": "address",
          "name": "",
          "type": "address"
        },
        {
          "internalType": "uint256",
          "name": "",
          "type": "uint256"
        }
      ],
      "name": "pledgesContributedTo",
      "outputs": [
        {
          "internalType": "uint256",
          "name": "",
          "type": "uint256"
        }
      ],
      "stateMutability": "view",
      "type": "function"
    },
    {
      "inputs": [
        {
          "internalType": "address",
          "name": "",
          "type": "address"
        },
        {
          "internalType": "uint256",
          "name": "",
          "type": "uint256"
        }
      ],
      "name": "pledgesCreated",
      "outputs": [
        {
          "internalType": "uint256",
          "name": "",
          "type": "uint256"
        }
      ],
      "stateMutability": "view",
      "type": "function"
    },
    {
      "inputs": [],
      "name": "renounceOwnership",
      "outputs": [],
      "stateMutability": "nonpayable",
      "type": "function"
    },
    {
      "inputs": [],
      "name": "totalClaimedByCharities",
      "outputs": [
        {
          "internalType": "uint256",
          "name": "",
          "type": "uint256"
        }
      ],
      "stateMutability": "view",
      "type": "function"
    },
    {
      "inputs": [
        {
          "internalType": "address",
          "name": "newOwner",
          "type": "address"
        }
      ],
      "name": "transferOwnership",
      "outputs": [],
      "stateMutability": "nonpayable",
      "type": "function"
    },
    {
      "inputs": [
        {
          "internalType": "address",
          "name": "",
          "type": "address"
        }
      ],
      "name": "verifiedCharities",
      "outputs": [
        {
          "internalType": "address",
          "name": "addr",
          "type": "address"
        },
        {
          "internalType": "string",
          "name": "name",
          "type": "string"
        },
        {
          "internalType": "string",
          "name": "description",
          "type": "string"
        },
        {
          "internalType": "string",
          "name": "websiteUrl",
          "type": "string"
        },
        {
          "internalType": "string",
          "name": "imageUrl",
          "type": "string"
        }
      ],
      "stateMutability": "view",
      "type": "function"
    },
    {
      "inputs": [
        {
          "internalType": "uint256",
          "name": "initialPledge",
          "type": "uint256"
        },
        {
          "internalType": "uint256",
          "name": "goalAmount",
          "type": "uint256"
        },
        {
          "internalType": "uint256",
          "name": "duration",
          "type": "uint256"
        },
        {
          "internalType": "address",
          "name": "charityAddress",
          "type": "address"
        }
      ],
      "name": "createPledge",
      "outputs": [],
      "stateMutability": "payable",
      "type": "function"
    },
    {
      "inputs": [
        {
          "internalType": "uint256",
          "name": "pledge",
          "type": "uint256"
        }
      ],
      "name": "getPledge",
      "outputs": [
        {
          "components": [
            {
              "internalType": "uint256",
              "name": "id",
              "type": "uint256"
            },
            {
              "internalType": "address",
              "name": "creator",
              "type": "address"
            },
            {
              "internalType": "uint256",
              "name": "createdAt",
              "type": "uint256"
            },
            {
              "internalType": "uint256",
              "name": "initialPledge",
              "type": "uint256"
            },
            {
              "internalType": "uint256",
              "name": "goalAmount",
              "type": "uint256"
            },
            {
              "internalType": "uint256",
              "name": "raisedAmount",
              "type": "uint256"
            },
            {
              "internalType": "uint256",
              "name": "duration",
              "type": "uint256"
            },
            {
              "internalType": "uint256",
              "name": "endedAt",
              "type": "uint256"
            },
            {
              "internalType": "address",
              "name": "charityAddress",
              "type": "address"
            },
            {
              "internalType": "bool",
              "name": "isVerified",
              "type": "bool"
            },
            {
              "components": [
                {
                  "internalType": "address",
                  "name": "addr",
                  "type": "address"
                },
                {
                  "internalType": "string",
                  "name": "name",
                  "type": "string"
                },
                {
                  "internalType": "string",
                  "name": "description",
                  "type": "string"
                },
                {
                  "internalType": "string",
                  "name": "websiteUrl",
                  "type": "string"
                },
                {
                  "internalType": "string",
                  "name": "imageUrl",
                  "type": "string"
                }
              ],
              "internalType": "struct Hakuai.Charity",
              "name": "charity",
              "type": "tuple"
            },
            {
              "internalType": "bool",
              "name": "completed",
              "type": "bool"
            }
          ],
          "internalType": "struct Hakuai.Pledge",
          "name": "",
          "type": "tuple"
        }
      ],
      "stateMutability": "view",
      "type": "function"
    },
    {
      "inputs": [],
      "name": "getPledges",
      "outputs": [
        {
          "components": [
            {
              "internalType": "uint256",
              "name": "id",
              "type": "uint256"
            },
            {
              "internalType": "address",
              "name": "creator",
              "type": "address"
            },
            {
              "internalType": "uint256",
              "name": "createdAt",
              "type": "uint256"
            },
            {
              "internalType": "uint256",
              "name": "initialPledge",
              "type": "uint256"
            },
            {
              "internalType": "uint256",
              "name": "goalAmount",
              "type": "uint256"
            },
            {
              "internalType": "uint256",
              "name": "raisedAmount",
              "type": "uint256"
            },
            {
              "internalType": "uint256",
              "name": "duration",
              "type": "uint256"
            },
            {
              "internalType": "uint256",
              "name": "endedAt",
              "type": "uint256"
            },
            {
              "internalType": "address",
              "name": "charityAddress",
              "type": "address"
            },
            {
              "internalType": "bool",
              "name": "isVerified",
              "type": "bool"
            },
            {
              "components": [
                {
                  "internalType": "address",
                  "name": "addr",
                  "type": "address"
                },
                {
                  "internalType": "string",
                  "name": "name",
                  "type": "string"
                },
                {
                  "internalType": "string",
                  "name": "description",
                  "type": "string"
                },
                {
                  "internalType": "string",
                  "name": "websiteUrl",
                  "type": "string"
                },
                {
                  "internalType": "string",
                  "name": "imageUrl",
                  "type": "string"
                }
              ],
              "internalType": "struct Hakuai.Charity",
              "name": "charity",
              "type": "tuple"
            },
            {
              "internalType": "bool",
              "name": "completed",
              "type": "bool"
            }
          ],
          "internalType": "struct Hakuai.Pledge[]",
          "name": "",
          "type": "tuple[]"
        }
      ],
      "stateMutability": "view",
      "type": "function"
    },
    {
      "inputs": [
        {
          "internalType": "uint256",
          "name": "pledgeId",
          "type": "uint256"
        },
        {
          "internalType": "uint256",
          "name": "amount",
          "type": "uint256"
        }
      ],
      "name": "contributeToPledge",
      "outputs": [],
      "stateMutability": "payable",
      "type": "function"
    },
    {
      "inputs": [
        {
          "internalType": "uint256",
          "name": "pledgeId",
          "type": "uint256"
        }
      ],
      "name": "howMuchDidIContribute",
      "outputs": [
        {
          "internalType": "uint256",
          "name": "",
          "type": "uint256"
        }
      ],
      "stateMutability": "view",
      "type": "function"
    },
    {
      "inputs": [
        {
          "internalType": "uint256",
          "name": "pledgeId",
          "type": "uint256"
        },
        {
          "internalType": "address",
          "name": "addr",
          "type": "address"
        }
      ],
      "name": "howMuchDidContribute",
      "outputs": [
        {
          "internalType": "uint256",
          "name": "",
          "type": "uint256"
        }
      ],
      "stateMutability": "view",
      "type": "function"
    },
    {
      "inputs": [
        {
          "internalType": "uint256",
          "name": "pledgeId",
          "type": "uint256"
        }
      ],
      "name": "endPledge",
      "outputs": [],
      "stateMutability": "nonpayable",
      "type": "function"
    },
    {
      "inputs": [
        {
          "internalType": "uint256",
          "name": "pledgeId",
          "type": "uint256"
        },
        {
          "internalType": "address payable",
          "name": "addr",
          "type": "address"
        }
      ],
      "name": "withdraw",
      "outputs": [],
      "stateMutability": "nonpayable",
      "type": "function"
    },
    {
      "inputs": [
        {
          "internalType": "uint256",
          "name": "pledgeId",
          "type": "uint256"
        }
      ],
      "name": "withdrawForCharity",
      "outputs": [],
      "stateMutability": "nonpayable",
      "type": "function"
    },
    {
      "inputs": [
        {
          "internalType": "string",
          "name": "name",
          "type": "string"
        },
        {
          "internalType": "string",
          "name": "description",
          "type": "string"
        },
        {
          "internalType": "string",
          "name": "websiteUrl",
          "type": "string"
        },
        {
          "internalType": "string",
          "name": "imageUrl",
          "type": "string"
        },
        {
          "internalType": "address",
          "name": "addr",
          "type": "address"
        }
      ],
      "name": "createVerifiedCharity",
      "outputs": [],
      "stateMutability": "nonpayable",
      "type": "function"
    },
    {
      "inputs": [
        {
          "internalType": "address",
          "name": "addr",
          "type": "address"
        }
      ],
      "name": "getVerifiedCharity",
      "outputs": [
        {
          "components": [
            {
              "internalType": "address",
              "name": "addr",
              "type": "address"
            },
            {
              "internalType": "string",
              "name": "name",
              "type": "string"
            },
            {
              "internalType": "string",
              "name": "description",
              "type": "string"
            },
            {
              "internalType": "string",
              "name": "websiteUrl",
              "type": "string"
            },
            {
              "internalType": "string",
              "name": "imageUrl",
              "type": "string"
            }
          ],
          "internalType": "struct Hakuai.Charity",
          "name": "",
          "type": "tuple"
        }
      ],
      "stateMutability": "view",
      "type": "function"
    },
    {
      "inputs": [],
      "name": "getVerifiedCharities",
      "outputs": [
        {
          "components": [
            {
              "internalType": "address",
              "name": "addr",
              "type": "address"
            },
            {
              "internalType": "string",
              "name": "name",
              "type": "string"
            },
            {
              "internalType": "string",
              "name": "description",
              "type": "string"
            },
            {
              "internalType": "string",
              "name": "websiteUrl",
              "type": "string"
            },
            {
              "internalType": "string",
              "name": "imageUrl",
              "type": "string"
            }
          ],
          "internalType": "struct Hakuai.Charity[]",
          "name": "",
          "type": "tuple[]"
        }
      ],
      "stateMutability": "view",
      "type": "function"
    }
  ],
  "bytecode": "0x6080604052600160025560006003553480156200001b57600080fd5b506200003c620000306200008360201b60201c565b6200008b60201b60201c565b33600160006101000a81548173ffffffffffffffffffffffffffffffffffffffff021916908373ffffffffffffffffffffffffffffffffffffffff1602179055506200014f565b600033905090565b60008060009054906101000a900473ffffffffffffffffffffffffffffffffffffffff169050816000806101000a81548173ffffffffffffffffffffffffffffffffffffffff021916908373ffffffffffffffffffffffffffffffffffffffff1602179055508173ffffffffffffffffffffffffffffffffffffffff168173ffffffffffffffffffffffffffffffffffffffff167f8be0079c531659141344cd1fd0a4f28419497f9722a3daafe3b4186f6b6457e060405160405180910390a35050565b6152d3806200015f6000396000f3fe60806040526004361061011e5760003560e01c8063ac124081116100a0578063e8aea16b11610064578063e8aea16b1461040e578063ee5b3e961461044b578063f1f7165414610474578063f2fde38b1461049d578063f9727d9c146104c65761011e565b8063ac1240811461030a578063b3524cfa14610352578063c94302691461038f578063d938fc31146103ba578063dfef24f5146103e35761011e565b80633f221f79116100e75780633f221f791461022e578063715018a61461024a5780638da5cb5b1461026157806390c4ce521461028c578063a3c821a7146102c95761011e565b8062f714ce146101235780631d57d4aa1461014c578063204da8f0146101895780632f419af2146101c6578063308537c8146101f1575b600080fd5b34801561012f57600080fd5b5061014a60048036038101906101459190613bca565b6104e2565b005b34801561015857600080fd5b50610173600480360381019061016e9190613c0a565b610bcb565b6040516101809190613c46565b60405180910390f35b34801561019557600080fd5b506101b060048036038101906101ab9190613c9f565b610c25565b6040516101bd9190613c46565b60405180910390f35b3480156101d257600080fd5b506101db610c80565b6040516101e89190613ed4565b60405180910390f35b3480156101fd57600080fd5b5061021860048036038101906102139190613ef6565b610f7d565b6040516102259190613c46565b60405180910390f35b61024860048036038101906102439190613f36565b610fae565b005b34801561025657600080fd5b5061025f61125d565b005b34801561026d57600080fd5b506102766112e5565b6040516102839190613f85565b60405180910390f35b34801561029857600080fd5b506102b360048036038101906102ae9190613c0a565b61130e565b6040516102c091906140ce565b60405180910390f35b3480156102d557600080fd5b506102f060048036038101906102eb91906140f0565b611716565b604051610301959493929190614167565b60405180910390f35b34801561031657600080fd5b50610331600480360381019061032c9190613c0a565b61198c565b6040516103499c9b9a99989796959493929190614270565b60405180910390f35b34801561035e57600080fd5b50610379600480360381019061037491906140f0565b611cee565b6040516103869190614331565b60405180910390f35b34801561039b57600080fd5b506103a4611fe5565b6040516103b19190613c46565b60405180910390f35b3480156103c657600080fd5b506103e160048036038101906103dc91906143b8565b611feb565b005b3480156103ef57600080fd5b506103f86124e9565b604051610405919061467a565b60405180910390f35b34801561041a57600080fd5b5061043560048036038101906104309190613ef6565b612923565b6040516104429190613c46565b60405180910390f35b34801561045757600080fd5b50610472600480360381019061046d9190613c0a565b612954565b005b34801561048057600080fd5b5061049b60048036038101906104969190613c0a565b612b95565b005b3480156104a957600080fd5b506104c460048036038101906104bf91906140f0565b612d02565b005b6104e060048036038101906104db919061469c565b612df9565b005b60006004600084815260200190815260200160002060405180610180016040529081600082015481526020016001820160009054906101000a900473ffffffffffffffffffffffffffffffffffffffff1673ffffffffffffffffffffffffffffffffffffffff1673ffffffffffffffffffffffffffffffffffffffff1681526020016002820154815260200160038201548152602001600482015481526020016005820154815260200160068201548152602001600782015481526020016008820160009054906101000a900473ffffffffffffffffffffffffffffffffffffffff1673ffffffffffffffffffffffffffffffffffffffff1673ffffffffffffffffffffffffffffffffffffffff1681526020016008820160149054906101000a900460ff16151515158152602001600982016040518060a00160405290816000820160009054906101000a900473ffffffffffffffffffffffffffffffffffffffff1673ffffffffffffffffffffffffffffffffffffffff1673ffffffffffffffffffffffffffffffffffffffff16815260200160018201805461068690614732565b80601f01602080910402602001604051908101604052809291908181526020018280546106b290614732565b80156106ff5780601f106106d4576101008083540402835291602001916106ff565b820191906000526020600020905b8154815290600101906020018083116106e257829003601f168201915b5050505050815260200160028201805461071890614732565b80601f016020809104026020016040519081016040528092919081815260200182805461074490614732565b80156107915780601f1061076657610100808354040283529160200191610791565b820191906000526020600020905b81548152906001019060200180831161077457829003601f168201915b505050505081526020016003820180546107aa90614732565b80601f01602080910402602001604051908101604052809291908181526020018280546107d690614732565b80156108235780601f106107f857610100808354040283529160200191610823565b820191906000526020600020905b81548152906001019060200180831161080657829003601f168201915b5050505050815260200160048201805461083c90614732565b80601f016020809104026020016040519081016040528092919081815260200182805461086890614732565b80156108b55780601f1061088a576101008083540402835291602001916108b5565b820191906000526020600020905b81548152906001019060200180831161089857829003601f168201915b5050505050815250508152602001600e820160009054906101000a900460ff1615151515815250509050600073ffffffffffffffffffffffffffffffffffffffff1681610100015173ffffffffffffffffffffffffffffffffffffffff1603610953576040517f08c379a000000000000000000000000000000000000000000000000000000000815260040161094a906147af565b60405180910390fd5b60008160e001510361099a576040517f08c379a00000000000000000000000000000000000000000000000000000000081526004016109919061481b565b60405180910390fd5b8173ffffffffffffffffffffffffffffffffffffffff163373ffffffffffffffffffffffffffffffffffffffff1614610a08576040517f08c379a00000000000000000000000000000000000000000000000000000000081526004016109ff906148ad565b60405180910390fd5b80608001518160a0015110610a52576040517f08c379a0000000000000000000000000000000000000000000000000000000008152600401610a4990614965565b60405180910390fd5b80610160015115610a98576040517f08c379a0000000000000000000000000000000000000000000000000000000008152600401610a8f906149d1565b60405180910390fd5b60006008600085815260200190815260200160002060003373ffffffffffffffffffffffffffffffffffffffff1673ffffffffffffffffffffffffffffffffffffffff16815260200190815260200160002054905060006008600086815260200190815260200160002060003373ffffffffffffffffffffffffffffffffffffffff1673ffffffffffffffffffffffffffffffffffffffff168152602001908152602001600020819055508273ffffffffffffffffffffffffffffffffffffffff166108fc829081150290604051600060405180830381858888f19350505050158015610b89573d6000803e3d6000fd5b507f37e8063b72a944a76de602f32b82fd8c2a1c6f99564c727ffaf913c7762cd420843383604051610bbd939291906149f1565b60405180910390a150505050565b60006008600083815260200190815260200160002060003373ffffffffffffffffffffffffffffffffffffffff1673ffffffffffffffffffffffffffffffffffffffff168152602001908152602001600020549050919050565b60006008600084815260200190815260200160002060008373ffffffffffffffffffffffffffffffffffffffff1673ffffffffffffffffffffffffffffffffffffffff16815260200190815260200160002054905092915050565b6060600a805480602002602001604051908101604052809291908181526020016000905b82821015610f7457838290600052602060002090600502016040518060a00160405290816000820160009054906101000a900473ffffffffffffffffffffffffffffffffffffffff1673ffffffffffffffffffffffffffffffffffffffff1673ffffffffffffffffffffffffffffffffffffffff168152602001600182018054610d2d90614732565b80601f0160208091040260200160405190810160405280929190818152602001828054610d5990614732565b8015610da65780601f10610d7b57610100808354040283529160200191610da6565b820191906000526020600020905b815481529060010190602001808311610d8957829003601f168201915b50505050508152602001600282018054610dbf90614732565b80601f0160208091040260200160405190810160405280929190818152602001828054610deb90614732565b8015610e385780601f10610e0d57610100808354040283529160200191610e38565b820191906000526020600020905b815481529060010190602001808311610e1b57829003601f168201915b50505050508152602001600382018054610e5190614732565b80601f0160208091040260200160405190810160405280929190818152602001828054610e7d90614732565b8015610eca5780601f10610e9f57610100808354040283529160200191610eca565b820191906000526020600020905b815481529060010190602001808311610ead57829003601f168201915b50505050508152602001600482018054610ee390614732565b80601f0160208091040260200160405190810160405280929190818152602001828054610f0f90614732565b8015610f5c5780601f10610f3157610100808354040283529160200191610f5c565b820191906000526020600020905b815481529060010190602001808311610f3f57829003601f168201915b50505050508152505081526020019060010190610ca4565b50505050905090565b60066020528160005260406000208181548110610f9957600080fd5b90600052602060002001600091509150505481565b3481148015610fbd5750600034115b610ffc576040517f08c379a0000000000000000000000000000000000000000000000000000000008152600401610ff390614a74565b60405180910390fd5b6000600460008481526020019081526020016000209050600073ffffffffffffffffffffffffffffffffffffffff168160080160009054906101000a900473ffffffffffffffffffffffffffffffffffffffff1673ffffffffffffffffffffffffffffffffffffffff16036110a6576040517f08c379a000000000000000000000000000000000000000000000000000000000815260040161109d906147af565b60405180910390fd5b60008160070154146110ed576040517f08c379a00000000000000000000000000000000000000000000000000000000081526004016110e490614ae0565b60405180910390fd5b816008600085815260200190815260200160002060003373ffffffffffffffffffffffffffffffffffffffff1673ffffffffffffffffffffffffffffffffffffffff168152602001908152602001600020600082825461114d9190614b2f565b92505081905550600660003373ffffffffffffffffffffffffffffffffffffffff1673ffffffffffffffffffffffffffffffffffffffff168152602001908152602001600020839080600181540180825580915050600190039060005260206000200160009091909190915055818160050160008282546111ce9190614b2f565b925050819055508160056001856111e59190614b85565b815481106111f6576111f5614bb9565b5b90600052602060002090600f020160050160008282546112169190614b2f565b925050819055507fad7bc569ba73f7069270864414014159ad8170fbbcdd59c5e6ee660df787e961833384604051611250939291906149f1565b60405180910390a1505050565b6112656138e1565b73ffffffffffffffffffffffffffffffffffffffff166112836112e5565b73ffffffffffffffffffffffffffffffffffffffff16146112d9576040517f08c379a00000000000000000000000000000000000000000000000000000000081526004016112d090614c34565b60405180910390fd5b6112e360006138e9565b565b60008060009054906101000a900473ffffffffffffffffffffffffffffffffffffffff16905090565b6113166139ad565b6004600083815260200190815260200160002060405180610180016040529081600082015481526020016001820160009054906101000a900473ffffffffffffffffffffffffffffffffffffffff1673ffffffffffffffffffffffffffffffffffffffff1673ffffffffffffffffffffffffffffffffffffffff1681526020016002820154815260200160038201548152602001600482015481526020016005820154815260200160068201548152602001600782015481526020016008820160009054906101000a900473ffffffffffffffffffffffffffffffffffffffff1673ffffffffffffffffffffffffffffffffffffffff1673ffffffffffffffffffffffffffffffffffffffff1681526020016008820160149054906101000a900460ff16151515158152602001600982016040518060a00160405290816000820160009054906101000a900473ffffffffffffffffffffffffffffffffffffffff1673ffffffffffffffffffffffffffffffffffffffff1673ffffffffffffffffffffffffffffffffffffffff1681526020016001820180546114b890614732565b80601f01602080910402602001604051908101604052809291908181526020018280546114e490614732565b80156115315780601f1061150657610100808354040283529160200191611531565b820191906000526020600020905b81548152906001019060200180831161151457829003601f168201915b5050505050815260200160028201805461154a90614732565b80601f016020809104026020016040519081016040528092919081815260200182805461157690614732565b80156115c35780601f10611598576101008083540402835291602001916115c3565b820191906000526020600020905b8154815290600101906020018083116115a657829003601f168201915b505050505081526020016003820180546115dc90614732565b80601f016020809104026020016040519081016040528092919081815260200182805461160890614732565b80156116555780601f1061162a57610100808354040283529160200191611655565b820191906000526020600020905b81548152906001019060200180831161163857829003601f168201915b5050505050815260200160048201805461166e90614732565b80601f016020809104026020016040519081016040528092919081815260200182805461169a90614732565b80156116e75780601f106116bc576101008083540402835291602001916116e7565b820191906000526020600020905b8154815290600101906020018083116116ca57829003601f168201915b5050505050815250508152602001600e820160009054906101000a900460ff1615151515815250509050919050565b60096020528060005260406000206000915090508060000160009054906101000a900473ffffffffffffffffffffffffffffffffffffffff169080600101805461175f90614732565b80601f016020809104026020016040519081016040528092919081815260200182805461178b90614732565b80156117d85780601f106117ad576101008083540402835291602001916117d8565b820191906000526020600020905b8154815290600101906020018083116117bb57829003601f168201915b5050505050908060020180546117ed90614732565b80601f016020809104026020016040519081016040528092919081815260200182805461181990614732565b80156118665780601f1061183b57610100808354040283529160200191611866565b820191906000526020600020905b81548152906001019060200180831161184957829003601f168201915b50505050509080600301805461187b90614732565b80601f01602080910402602001604051908101604052809291908181526020018280546118a790614732565b80156118f45780601f106118c9576101008083540402835291602001916118f4565b820191906000526020600020905b8154815290600101906020018083116118d757829003601f168201915b50505050509080600401805461190990614732565b80601f016020809104026020016040519081016040528092919081815260200182805461193590614732565b80156119825780601f1061195757610100808354040283529160200191611982565b820191906000526020600020905b81548152906001019060200180831161196557829003601f168201915b5050505050905085565b60046020528060005260406000206000915090508060000154908060010160009054906101000a900473ffffffffffffffffffffffffffffffffffffffff16908060020154908060030154908060040154908060050154908060060154908060070154908060080160009054906101000a900473ffffffffffffffffffffffffffffffffffffffff16908060080160149054906101000a900460ff1690806009016040518060a00160405290816000820160009054906101000a900473ffffffffffffffffffffffffffffffffffffffff1673ffffffffffffffffffffffffffffffffffffffff1673ffffffffffffffffffffffffffffffffffffffff168152602001600182018054611a9e90614732565b80601f0160208091040260200160405190810160405280929190818152602001828054611aca90614732565b8015611b175780601f10611aec57610100808354040283529160200191611b17565b820191906000526020600020905b815481529060010190602001808311611afa57829003601f168201915b50505050508152602001600282018054611b3090614732565b80601f0160208091040260200160405190810160405280929190818152602001828054611b5c90614732565b8015611ba95780601f10611b7e57610100808354040283529160200191611ba9565b820191906000526020600020905b815481529060010190602001808311611b8c57829003601f168201915b50505050508152602001600382018054611bc290614732565b80601f0160208091040260200160405190810160405280929190818152602001828054611bee90614732565b8015611c3b5780601f10611c1057610100808354040283529160200191611c3b565b820191906000526020600020905b815481529060010190602001808311611c1e57829003601f168201915b50505050508152602001600482018054611c5490614732565b80601f0160208091040260200160405190810160405280929190818152602001828054611c8090614732565b8015611ccd5780601f10611ca257610100808354040283529160200191611ccd565b820191906000526020600020905b815481529060010190602001808311611cb057829003601f168201915b5050505050815250509080600e0160009054906101000a900460ff1690508c565b611cf6613a44565b600960008373ffffffffffffffffffffffffffffffffffffffff1673ffffffffffffffffffffffffffffffffffffffff1681526020019081526020016000206040518060a00160405290816000820160009054906101000a900473ffffffffffffffffffffffffffffffffffffffff1673ffffffffffffffffffffffffffffffffffffffff1673ffffffffffffffffffffffffffffffffffffffff168152602001600182018054611da690614732565b80601f0160208091040260200160405190810160405280929190818152602001828054611dd290614732565b8015611e1f5780601f10611df457610100808354040283529160200191611e1f565b820191906000526020600020905b815481529060010190602001808311611e0257829003601f168201915b50505050508152602001600282018054611e3890614732565b80601f0160208091040260200160405190810160405280929190818152602001828054611e6490614732565b8015611eb15780601f10611e8657610100808354040283529160200191611eb1565b820191906000526020600020905b815481529060010190602001808311611e9457829003601f168201915b50505050508152602001600382018054611eca90614732565b80601f0160208091040260200160405190810160405280929190818152602001828054611ef690614732565b8015611f435780601f10611f1857610100808354040283529160200191611f43565b820191906000526020600020905b815481529060010190602001808311611f2657829003601f168201915b50505050508152602001600482018054611f5c90614732565b80601f0160208091040260200160405190810160405280929190818152602001828054611f8890614732565b8015611fd55780601f10611faa57610100808354040283529160200191611fd5565b820191906000526020600020905b815481529060010190602001808311611fb857829003601f168201915b5050505050815250509050919050565b60035481565b611ff36138e1565b73ffffffffffffffffffffffffffffffffffffffff166120116112e5565b73ffffffffffffffffffffffffffffffffffffffff1614612067576040517f08c379a000000000000000000000000000000000000000000000000000000000815260040161205e90614c34565b60405180910390fd5b600089899050116120ad576040517f08c379a00000000000000000000000000000000000000000000000000000000081526004016120a490614ca0565b60405180910390fd5b600085859050116120f3576040517f08c379a00000000000000000000000000000000000000000000000000000000081526004016120ea90614d0c565b60405180910390fd5b600073ffffffffffffffffffffffffffffffffffffffff168173ffffffffffffffffffffffffffffffffffffffff1603612162576040517f08c379a000000000000000000000000000000000000000000000000000000000815260040161215990614d78565b60405180910390fd5b60006040518060a001604052808373ffffffffffffffffffffffffffffffffffffffff1681526020018b8b8080601f016020809104026020016040519081016040528093929190818152602001838380828437600081840152601f19601f82011690508083019250505050505050815260200189898080601f016020809104026020016040519081016040528093929190818152602001838380828437600081840152601f19601f82011690508083019250505050505050815260200187878080601f016020809104026020016040519081016040528093929190818152602001838380828437600081840152601f19601f82011690508083019250505050505050815260200185858080601f016020809104026020016040519081016040528093929190818152602001838380828437600081840152601f19601f82011690508083019250505050505050815250905080600960008473ffffffffffffffffffffffffffffffffffffffff1673ffffffffffffffffffffffffffffffffffffffff16815260200190815260200160002060008201518160000160006101000a81548173ffffffffffffffffffffffffffffffffffffffff021916908373ffffffffffffffffffffffffffffffffffffffff1602179055506020820151816001019080519060200190612356929190613a89565b506040820151816002019080519060200190612373929190613a89565b506060820151816003019080519060200190612390929190613a89565b5060808201518160040190805190602001906123ad929190613a89565b50905050600a81908060018154018082558091505060019003906000526020600020906005020160009091909190915060008201518160000160006101000a81548173ffffffffffffffffffffffffffffffffffffffff021916908373ffffffffffffffffffffffffffffffffffffffff1602179055506020820151816001019080519060200190612440929190613a89565b50604082015181600201908051906020019061245d929190613a89565b50606082015181600301908051906020019061247a929190613a89565b506080820151816004019080519060200190612497929190613a89565b5050507f9d149607b35531090b5116679ec7a10b37268e2ba17e04d51a298d7ee87cd032828b8b898989896040516124d59796959493929190614dd4565b60405180910390a150505050505050505050565b60606005805480602002602001604051908101604052809291908181526020016000905b8282101561291a57838290600052602060002090600f020160405180610180016040529081600082015481526020016001820160009054906101000a900473ffffffffffffffffffffffffffffffffffffffff1673ffffffffffffffffffffffffffffffffffffffff1673ffffffffffffffffffffffffffffffffffffffff1681526020016002820154815260200160038201548152602001600482015481526020016005820154815260200160068201548152602001600782015481526020016008820160009054906101000a900473ffffffffffffffffffffffffffffffffffffffff1673ffffffffffffffffffffffffffffffffffffffff1673ffffffffffffffffffffffffffffffffffffffff1681526020016008820160149054906101000a900460ff16151515158152602001600982016040518060a00160405290816000820160009054906101000a900473ffffffffffffffffffffffffffffffffffffffff1673ffffffffffffffffffffffffffffffffffffffff1673ffffffffffffffffffffffffffffffffffffffff1681526020016001820180546126b490614732565b80601f01602080910402602001604051908101604052809291908181526020018280546126e090614732565b801561272d5780601f106127025761010080835404028352916020019161272d565b820191906000526020600020905b81548152906001019060200180831161271057829003601f168201915b5050505050815260200160028201805461274690614732565b80601f016020809104026020016040519081016040528092919081815260200182805461277290614732565b80156127bf5780601f10612794576101008083540402835291602001916127bf565b820191906000526020600020905b8154815290600101906020018083116127a257829003601f168201915b505050505081526020016003820180546127d890614732565b80601f016020809104026020016040519081016040528092919081815260200182805461280490614732565b80156128515780601f1061282657610100808354040283529160200191612851565b820191906000526020600020905b81548152906001019060200180831161283457829003601f168201915b5050505050815260200160048201805461286a90614732565b80601f016020809104026020016040519081016040528092919081815260200182805461289690614732565b80156128e35780601f106128b8576101008083540402835291602001916128e3565b820191906000526020600020905b8154815290600101906020018083116128c657829003601f168201915b5050505050815250508152602001600e820160009054906101000a900460ff1615151515815250508152602001906001019061250d565b50505050905090565b6007602052816000526040600020818154811061293f57600080fd5b90600052602060002001600091509150505481565b6000600460008381526020019081526020016000209050600073ffffffffffffffffffffffffffffffffffffffff168160080160009054906101000a900473ffffffffffffffffffffffffffffffffffffffff1673ffffffffffffffffffffffffffffffffffffffff16036129fe576040517f08c379a00000000000000000000000000000000000000000000000000000000081526004016129f5906147af565b60405180910390fd5b6000816007015403612a45576040517f08c379a0000000000000000000000000000000000000000000000000000000008152600401612a3c9061481b565b60405180910390fd5b806004015481600501541015612a90576040517f08c379a0000000000000000000000000000000000000000000000000000000008152600401612a8790614ea6565b60405180910390fd5b80600e0160009054906101000a900460ff1615612ae2576040517f08c379a0000000000000000000000000000000000000000000000000000000008152600401612ad9906149d1565b60405180910390fd5b60008160080160009054906101000a900473ffffffffffffffffffffffffffffffffffffffff169050816005015460036000828254612b219190614b2f565b925050819055508073ffffffffffffffffffffffffffffffffffffffff166108fc83600501549081150290604051600060405180830381858888f19350505050158015612b72573d6000803e3d6000fd5b50600182600e0160006101000a81548160ff021916908315150217905550505050565b6000600460008381526020019081526020016000209050600073ffffffffffffffffffffffffffffffffffffffff168160080160009054906101000a900473ffffffffffffffffffffffffffffffffffffffff1673ffffffffffffffffffffffffffffffffffffffff1603612c3f576040517f08c379a0000000000000000000000000000000000000000000000000000000008152600401612c36906147af565b60405180910390fd5b6000816007015414612c86576040517f08c379a0000000000000000000000000000000000000000000000000000000008152600401612c7d90614f12565b60405180910390fd5b428160070181905550426005600184612c9f9190614b85565b81548110612cb057612caf614bb9565b5b90600052602060002090600f0201600701819055507f60a64a73dcaed7ed02d10c6e33044bacd2299257812c69542e92c61fcd79fc608242604051612cf6929190614f32565b60405180910390a15050565b612d0a6138e1565b73ffffffffffffffffffffffffffffffffffffffff16612d286112e5565b73ffffffffffffffffffffffffffffffffffffffff1614612d7e576040517f08c379a0000000000000000000000000000000000000000000000000000000008152600401612d7590614c34565b60405180910390fd5b600073ffffffffffffffffffffffffffffffffffffffff168173ffffffffffffffffffffffffffffffffffffffff1603612ded576040517f08c379a0000000000000000000000000000000000000000000000000000000008152600401612de490614fcd565b60405180910390fd5b612df6816138e9565b50565b3484148015612e085750600034115b612e47576040517f08c379a0000000000000000000000000000000000000000000000000000000008152600401612e3e90615039565b60405180910390fd5b838311612e89576040517f08c379a0000000000000000000000000000000000000000000000000000000008152600401612e80906150cb565b60405180910390fd5b6236ee80821015612ecf576040517f08c379a0000000000000000000000000000000000000000000000000000000008152600401612ec690615137565b60405180910390fd5b600073ffffffffffffffffffffffffffffffffffffffff168173ffffffffffffffffffffffffffffffffffffffff1603612f3e576040517f08c379a0000000000000000000000000000000000000000000000000000000008152600401612f35906151a3565b60405180910390fd5b3373ffffffffffffffffffffffffffffffffffffffff168173ffffffffffffffffffffffffffffffffffffffff1603612fac576040517f08c379a0000000000000000000000000000000000000000000000000000000008152600401612fa390615235565b60405180910390fd5b600080600960008473ffffffffffffffffffffffffffffffffffffffff1673ffffffffffffffffffffffffffffffffffffffff1681526020019081526020016000206040518060a00160405290816000820160009054906101000a900473ffffffffffffffffffffffffffffffffffffffff1673ffffffffffffffffffffffffffffffffffffffff1673ffffffffffffffffffffffffffffffffffffffff16815260200160018201805461305f90614732565b80601f016020809104026020016040519081016040528092919081815260200182805461308b90614732565b80156130d85780601f106130ad576101008083540402835291602001916130d8565b820191906000526020600020905b8154815290600101906020018083116130bb57829003601f168201915b505050505081526020016002820180546130f190614732565b80601f016020809104026020016040519081016040528092919081815260200182805461311d90614732565b801561316a5780601f1061313f5761010080835404028352916020019161316a565b820191906000526020600020905b81548152906001019060200180831161314d57829003601f168201915b5050505050815260200160038201805461318390614732565b80601f01602080910402602001604051908101604052809291908181526020018280546131af90614732565b80156131fc5780601f106131d1576101008083540402835291602001916131fc565b820191906000526020600020905b8154815290600101906020018083116131df57829003601f168201915b5050505050815260200160048201805461321590614732565b80601f016020809104026020016040519081016040528092919081815260200182805461324190614732565b801561328e5780601f106132635761010080835404028352916020019161328e565b820191906000526020600020905b81548152906001019060200180831161327157829003601f168201915b50505050508152505090508273ffffffffffffffffffffffffffffffffffffffff16816000015173ffffffffffffffffffffffffffffffffffffffff16036132d557600191505b600060405180610180016040528060025481526020013373ffffffffffffffffffffffffffffffffffffffff168152602001428152602001888152602001878152602001888152602001868152602001600081526020018573ffffffffffffffffffffffffffffffffffffffff1681526020018415158152602001838152602001600015158152509050806004600060025481526020019081526020016000206000820151816000015560208201518160010160006101000a81548173ffffffffffffffffffffffffffffffffffffffff021916908373ffffffffffffffffffffffffffffffffffffffff16021790555060408201518160020155606082015181600301556080820151816004015560a0820151816005015560c0820151816006015560e082015181600701556101008201518160080160006101000a81548173ffffffffffffffffffffffffffffffffffffffff021916908373ffffffffffffffffffffffffffffffffffffffff1602179055506101208201518160080160146101000a81548160ff0219169083151502179055506101408201518160090160008201518160000160006101000a81548173ffffffffffffffffffffffffffffffffffffffff021916908373ffffffffffffffffffffffffffffffffffffffff16021790555060208201518160010190805190602001906134d8929190613a89565b5060408201518160020190805190602001906134f5929190613a89565b506060820151816003019080519060200190613512929190613a89565b50608082015181600401908051906020019061352f929190613a89565b50505061016082015181600e0160006101000a81548160ff02191690831515021790555090505060058190806001815401808255809150506001900390600052602060002090600f02016000909190919091506000820151816000015560208201518160010160006101000a81548173ffffffffffffffffffffffffffffffffffffffff021916908373ffffffffffffffffffffffffffffffffffffffff16021790555060408201518160020155606082015181600301556080820151816004015560a0820151816005015560c0820151816006015560e082015181600701556101008201518160080160006101000a81548173ffffffffffffffffffffffffffffffffffffffff021916908373ffffffffffffffffffffffffffffffffffffffff1602179055506101208201518160080160146101000a81548160ff0219169083151502179055506101408201518160090160008201518160000160006101000a81548173ffffffffffffffffffffffffffffffffffffffff021916908373ffffffffffffffffffffffffffffffffffffffff16021790555060208201518160010190805190602001906136e5929190613a89565b506040820151816002019080519060200190613702929190613a89565b50606082015181600301908051906020019061371f929190613a89565b50608082015181600401908051906020019061373c929190613a89565b50505061016082015181600e0160006101000a81548160ff02191690831515021790555050508660086000600254815260200190815260200160002060003373ffffffffffffffffffffffffffffffffffffffff1673ffffffffffffffffffffffffffffffffffffffff16815260200190815260200160002081905550600660003373ffffffffffffffffffffffffffffffffffffffff1673ffffffffffffffffffffffffffffffffffffffff1681526020019081526020016000206002549080600181540180825580915050600190039060005260206000200160009091909190915055600760003373ffffffffffffffffffffffffffffffffffffffff1673ffffffffffffffffffffffffffffffffffffffff16815260200190815260200160002060025490806001815401808255809150506001900390600052602060002001600090919091909150556002600081548092919061389c90615255565b91905055507fd50fb3e9a0ba0afc21d78d9c49efe309b022cd5f7279e039e75e2ae3928ad81c816040516138d091906140ce565b60405180910390a150505050505050565b600033905090565b60008060009054906101000a900473ffffffffffffffffffffffffffffffffffffffff169050816000806101000a81548173ffffffffffffffffffffffffffffffffffffffff021916908373ffffffffffffffffffffffffffffffffffffffff1602179055508173ffffffffffffffffffffffffffffffffffffffff168173ffffffffffffffffffffffffffffffffffffffff167f8be0079c531659141344cd1fd0a4f28419497f9722a3daafe3b4186f6b6457e060405160405180910390a35050565b60405180610180016040528060008152602001600073ffffffffffffffffffffffffffffffffffffffff168152602001600081526020016000815260200160008152602001600081526020016000815260200160008152602001600073ffffffffffffffffffffffffffffffffffffffff168152602001600015158152602001613a35613a44565b81526020016000151581525090565b6040518060a00160405280600073ffffffffffffffffffffffffffffffffffffffff168152602001606081526020016060815260200160608152602001606081525090565b828054613a9590614732565b90600052602060002090601f016020900481019282613ab75760008555613afe565b82601f10613ad057805160ff1916838001178555613afe565b82800160010185558215613afe579182015b82811115613afd578251825591602001919060010190613ae2565b5b509050613b0b9190613b0f565b5090565b5b80821115613b28576000816000905550600101613b10565b5090565b600080fd5b600080fd5b6000819050919050565b613b4981613b36565b8114613b5457600080fd5b50565b600081359050613b6681613b40565b92915050565b600073ffffffffffffffffffffffffffffffffffffffff82169050919050565b6000613b9782613b6c565b9050919050565b613ba781613b8c565b8114613bb257600080fd5b50565b600081359050613bc481613b9e565b92915050565b60008060408385031215613be157613be0613b2c565b5b6000613bef85828601613b57565b9250506020613c0085828601613bb5565b9150509250929050565b600060208284031215613c2057613c1f613b2c565b5b6000613c2e84828501613b57565b91505092915050565b613c4081613b36565b82525050565b6000602082019050613c5b6000830184613c37565b92915050565b6000613c6c82613b6c565b9050919050565b613c7c81613c61565b8114613c8757600080fd5b50565b600081359050613c9981613c73565b92915050565b60008060408385031215613cb657613cb5613b2c565b5b6000613cc485828601613b57565b9250506020613cd585828601613c8a565b9150509250929050565b600081519050919050565b600082825260208201905092915050565b6000819050602082019050919050565b613d1481613c61565b82525050565b600081519050919050565b600082825260208201905092915050565b60005b83811015613d54578082015181840152602081019050613d39565b83811115613d63576000848401525b50505050565b6000601f19601f8301169050919050565b6000613d8582613d1a565b613d8f8185613d25565b9350613d9f818560208601613d36565b613da881613d69565b840191505092915050565b600060a083016000830151613dcb6000860182613d0b565b5060208301518482036020860152613de38282613d7a565b91505060408301518482036040860152613dfd8282613d7a565b91505060608301518482036060860152613e178282613d7a565b91505060808301518482036080860152613e318282613d7a565b9150508091505092915050565b6000613e4a8383613db3565b905092915050565b6000602082019050919050565b6000613e6a82613cdf565b613e748185613cea565b935083602082028501613e8685613cfb565b8060005b85811015613ec25784840389528151613ea38582613e3e565b9450613eae83613e52565b925060208a01995050600181019050613e8a565b50829750879550505050505092915050565b60006020820190508181036000830152613eee8184613e5f565b905092915050565b60008060408385031215613f0d57613f0c613b2c565b5b6000613f1b85828601613c8a565b9250506020613f2c85828601613b57565b9150509250929050565b60008060408385031215613f4d57613f4c613b2c565b5b6000613f5b85828601613b57565b9250506020613f6c85828601613b57565b9150509250929050565b613f7f81613c61565b82525050565b6000602082019050613f9a6000830184613f76565b92915050565b613fa981613b36565b82525050565b60008115159050919050565b613fc481613faf565b82525050565b600061018083016000830151613fe36000860182613fa0565b506020830151613ff66020860182613d0b565b5060408301516140096040860182613fa0565b50606083015161401c6060860182613fa0565b50608083015161402f6080860182613fa0565b5060a083015161404260a0860182613fa0565b5060c083015161405560c0860182613fa0565b5060e083015161406860e0860182613fa0565b5061010083015161407d610100860182613d0b565b50610120830151614092610120860182613fbb565b506101408301518482036101408601526140ac8282613db3565b9150506101608301516140c3610160860182613fbb565b508091505092915050565b600060208201905081810360008301526140e88184613fca565b905092915050565b60006020828403121561410657614105613b2c565b5b600061411484828501613c8a565b91505092915050565b600082825260208201905092915050565b600061413982613d1a565b614143818561411d565b9350614153818560208601613d36565b61415c81613d69565b840191505092915050565b600060a08201905061417c6000830188613f76565b818103602083015261418e818761412e565b905081810360408301526141a2818661412e565b905081810360608301526141b6818561412e565b905081810360808301526141ca818461412e565b90509695505050505050565b6141df81613faf565b82525050565b600060a0830160008301516141fd6000860182613d0b565b50602083015184820360208601526142158282613d7a565b9150506040830151848203604086015261422f8282613d7a565b915050606083015184820360608601526142498282613d7a565b915050608083015184820360808601526142638282613d7a565b9150508091505092915050565b600061018082019050614286600083018f613c37565b614293602083018e613f76565b6142a0604083018d613c37565b6142ad606083018c613c37565b6142ba608083018b613c37565b6142c760a083018a613c37565b6142d460c0830189613c37565b6142e160e0830188613c37565b6142ef610100830187613f76565b6142fd6101208301866141d6565b81810361014083015261431081856141e5565b90506143206101608301846141d6565b9d9c50505050505050505050505050565b6000602082019050818103600083015261434b81846141e5565b905092915050565b600080fd5b600080fd5b600080fd5b60008083601f84011261437857614377614353565b5b8235905067ffffffffffffffff81111561439557614394614358565b5b6020830191508360018202830111156143b1576143b061435d565b5b9250929050565b600080600080600080600080600060a08a8c0312156143da576143d9613b2c565b5b60008a013567ffffffffffffffff8111156143f8576143f7613b31565b5b6144048c828d01614362565b995099505060208a013567ffffffffffffffff81111561442757614426613b31565b5b6144338c828d01614362565b975097505060408a013567ffffffffffffffff81111561445657614455613b31565b5b6144628c828d01614362565b955095505060608a013567ffffffffffffffff81111561448557614484613b31565b5b6144918c828d01614362565b935093505060806144a48c828d01613c8a565b9150509295985092959850929598565b600081519050919050565b600082825260208201905092915050565b6000819050602082019050919050565b6000610180830160008301516144f96000860182613fa0565b50602083015161450c6020860182613d0b565b50604083015161451f6040860182613fa0565b5060608301516145326060860182613fa0565b5060808301516145456080860182613fa0565b5060a083015161455860a0860182613fa0565b5060c083015161456b60c0860182613fa0565b5060e083015161457e60e0860182613fa0565b50610100830151614593610100860182613d0b565b506101208301516145a8610120860182613fbb565b506101408301518482036101408601526145c28282613db3565b9150506101608301516145d9610160860182613fbb565b508091505092915050565b60006145f083836144e0565b905092915050565b6000602082019050919050565b6000614610826144b4565b61461a81856144bf565b93508360208202850161462c856144d0565b8060005b85811015614668578484038952815161464985826145e4565b9450614654836145f8565b925060208a01995050600181019050614630565b50829750879550505050505092915050565b600060208201905081810360008301526146948184614605565b905092915050565b600080600080608085870312156146b6576146b5613b2c565b5b60006146c487828801613b57565b94505060206146d587828801613b57565b93505060406146e687828801613b57565b92505060606146f787828801613c8a565b91505092959194509250565b7f4e487b7100000000000000000000000000000000000000000000000000000000600052602260045260246000fd5b6000600282049050600182168061474a57607f821691505b60208210810361475d5761475c614703565b5b50919050565b7f506c6564676520646f6573206e6f742065786973740000000000000000000000600082015250565b600061479960158361411d565b91506147a482614763565b602082019050919050565b600060208201905081810360008301526147c88161478c565b9050919050565b7f506c6564676520686173206e6f7420656e646564000000000000000000000000600082015250565b600061480560148361411d565b9150614810826147cf565b602082019050919050565b60006020820190508181036000830152614834816147f8565b9050919050565b7f53656e646572206d757374206265207468652061646472657373206f6620746860008201527f652062656e656669636961727900000000000000000000000000000000000000602082015250565b6000614897602d8361411d565b91506148a28261483b565b604082019050919050565b600060208201905081810360008301526148c68161488a565b9050919050565b7f506c6564676520686173207265616368656420676f616c20616d6f756e742c2060008201527f63616e6e6f742077697468647261772e2046756e647320617265206f6e6c792060208201527f776974686472617761626c652062792074686520636861726974792e00000000604082015250565b600061494f605c8361411d565b915061495a826148cd565b606082019050919050565b6000602082019050818103600083015261497e81614942565b9050919050565b7f446f6e6174696f6e20616c726561647920636f6d706c657465642e0000000000600082015250565b60006149bb601b8361411d565b91506149c682614985565b602082019050919050565b600060208201905081810360008301526149ea816149ae565b9050919050565b6000606082019050614a066000830186613c37565b614a136020830185613f76565b614a206040830184613c37565b949350505050565b7f416d6f756e74206d7573742062652067726561746572207468616e2030000000600082015250565b6000614a5e601d8361411d565b9150614a6982614a28565b602082019050919050565b60006020820190508181036000830152614a8d81614a51565b9050919050565b7f506c656467652068617320656e64656400000000000000000000000000000000600082015250565b6000614aca60108361411d565b9150614ad582614a94565b602082019050919050565b60006020820190508181036000830152614af981614abd565b9050919050565b7f4e487b7100000000000000000000000000000000000000000000000000000000600052601160045260246000fd5b6000614b3a82613b36565b9150614b4583613b36565b9250827fffffffffffffffffffffffffffffffffffffffffffffffffffffffffffffffff03821115614b7a57614b79614b00565b5b828201905092915050565b6000614b9082613b36565b9150614b9b83613b36565b925082821015614bae57614bad614b00565b5b828203905092915050565b7f4e487b7100000000000000000000000000000000000000000000000000000000600052603260045260246000fd5b7f4f776e61626c653a2063616c6c6572206973206e6f7420746865206f776e6572600082015250565b6000614c1e60208361411d565b9150614c2982614be8565b602082019050919050565b60006020820190508181036000830152614c4d81614c11565b9050919050565b7f43686172697479206e616d65206973206120726571756972656420706172616d600082015250565b6000614c8a60208361411d565b9150614c9582614c54565b602082019050919050565b60006020820190508181036000830152614cb981614c7d565b9050919050565b7f576562736974652055524c206973206120726571756972656420706172616d00600082015250565b6000614cf6601f8361411d565b9150614d0182614cc0565b602082019050919050565b60006020820190508181036000830152614d2581614ce9565b9050919050565b7f4164647265737320697320726571756972656400000000000000000000000000600082015250565b6000614d6260138361411d565b9150614d6d82614d2c565b602082019050919050565b60006020820190508181036000830152614d9181614d55565b9050919050565b82818337600083830152505050565b6000614db3838561411d565b9350614dc0838584614d98565b614dc983613d69565b840190509392505050565b6000608082019050614de9600083018a613f76565b8181036020830152614dfc81888a614da7565b90508181036040830152614e11818688614da7565b90508181036060830152614e26818486614da7565b905098975050505050505050565b7f506c6564676520686173206e6f74207265616368656420676f616c20616d6f7560008201527f6e742e0000000000000000000000000000000000000000000000000000000000602082015250565b6000614e9060238361411d565b9150614e9b82614e34565b604082019050919050565b60006020820190508181036000830152614ebf81614e83565b9050919050565b7f506c656467652068617320616c726561647920656e6465640000000000000000600082015250565b6000614efc60188361411d565b9150614f0782614ec6565b602082019050919050565b60006020820190508181036000830152614f2b81614eef565b9050919050565b6000604082019050614f476000830185613c37565b614f546020830184613c37565b9392505050565b7f4f776e61626c653a206e6577206f776e657220697320746865207a65726f206160008201527f6464726573730000000000000000000000000000000000000000000000000000602082015250565b6000614fb760268361411d565b9150614fc282614f5b565b604082019050919050565b60006020820190508181036000830152614fe681614faa565b9050919050565b7f506c65646765206d7573742062652067726561746572207468616e2030000000600082015250565b6000615023601d8361411d565b915061502e82614fed565b602082019050919050565b6000602082019050818103600083015261505281615016565b9050919050565b7f476f616c20616d6f756e74206d7573742062652067726561746572207468616e60008201527f2074686520696e697469616c20706c6564676500000000000000000000000000602082015250565b60006150b560338361411d565b91506150c082615059565b604082019050919050565b600060208201905081810360008301526150e4816150a8565b9050919050565b7f4475726174696f6e206d757374206265206174206c65617374203120686f7572600082015250565b600061512160208361411d565b915061512c826150eb565b602082019050919050565b6000602082019050818103600083015261515081615114565b9050919050565b7f4368617269747920616464726573732063616e6e6f7420626520300000000000600082015250565b600061518d601b8361411d565b915061519882615157565b602082019050919050565b600060208201905081810360008301526151bc81615180565b9050919050565b7f4368617269747920616464726573732063616e6e6f7420626520796f7572206f60008201527f776e206164647265737300000000000000000000000000000000000000000000602082015250565b600061521f602a8361411d565b915061522a826151c3565b604082019050919050565b6000602082019050818103600083015261524e81615212565b9050919050565b600061526082613b36565b91507fffffffffffffffffffffffffffffffffffffffffffffffffffffffffffffffff820361529257615291614b00565b5b60018201905091905056fea264697066735822122014c2ecc5eb64b5f74554f3da1d4f5f24df31253f774012f5862b6025533f9a6764736f6c634300080e0033",
  "immutableReferences": {},
  "source": "// SPDX-License-Identifier: MIT\npragma solidity 0.8.14;\npragma experimental ABIEncoderV2;\n\nimport \"@openzeppelin/contracts/access/Ownable.sol\";\n\ncontract Hakuai is Ownable {\n\n  address _owner;\n  \n  struct Charity {\n    address addr;\n    string name;\n    string description;\n    string websiteUrl;\n    string imageUrl;\n  }\n  struct Pledge {\n    uint256 id;\n    address creator;\n    uint256 createdAt;\n    uint256 initialPledge;\n    uint256 goalAmount;\n    uint256 raisedAmount;\n    uint256 duration;\n    uint256 endedAt;\n    address charityAddress;\n    bool isVerified;\n    Charity charity;\n    bool completed;\n  }\n\n\n  uint256 pledgeCounter = 1;\n  uint256 public totalClaimedByCharities = 0;\n  mapping (uint256 => Pledge) public pledges;\n  Pledge[] pledgeArray;\n  mapping (address => uint256[]) public pledgesContributedTo;\n  mapping (address => uint256[]) public pledgesCreated;\n  mapping (uint256 => mapping (address => uint256)) pledgeContributions;\n  mapping (address => Charity) public verifiedCharities;\n  Charity[] verifiedCharityArray;\n\n  event PledgeCreated(Pledge pledge);\n  event PledgeContribution(uint256 pledgeId, address contributor, uint256 amount);\n  event PledgeEnded(uint256 pledgeId, uint256 timestamp);\n  event Withdrawal(uint256 pledgeId, address contributor, uint256 amount);\n  event CharityCreated(address addr, string name, string websiteUrl, string imageUrl);\n\n\n  constructor () {\n    _owner = msg.sender;\n  }\n\n  function createPledge(uint256 initialPledge, uint256 goalAmount, uint256 duration, address charityAddress) public payable {\n    require(initialPledge == msg.value && msg.value > 0, \"Pledge must be greater than 0\");\n    require(goalAmount > initialPledge, \"Goal amount must be greater than the initial pledge\");\n    require(duration >= 3600000, \"Duration must be at least 1 hour\");\n    require(charityAddress != address(0), \"Charity address cannot be 0\");\n    require(charityAddress != msg.sender, \"Charity address cannot be your own address\");\n\n    bool isVerified = false;\n    Charity memory charity = verifiedCharities[charityAddress];\n    if (charity.addr == charityAddress) {\n      isVerified = true;\n    }\n\n    Pledge memory pledge = Pledge(\n      pledgeCounter,\n      msg.sender,\n      block.timestamp,\n      initialPledge,\n      goalAmount,\n      initialPledge,\n      duration,\n      0,\n      charityAddress,\n      isVerified,\n      charity,\n      false\n    );\n    pledges[pledgeCounter] = pledge;\n    pledgeArray.push(pledge);\n\n    pledgeContributions[pledgeCounter][msg.sender] = initialPledge;\n    pledgesContributedTo[msg.sender].push(pledgeCounter);\n    pledgesCreated[msg.sender].push(pledgeCounter);\n\n    pledgeCounter++;\n\n    emit PledgeCreated(pledge);\n  }\n\n  function getPledge(uint256 pledge) public view returns (Pledge memory) {\n    return pledges[pledge];\n  }\n\n  function getPledges() public view returns (Pledge[] memory) {\n    return pledgeArray;\n  }\n\n  function contributeToPledge(uint256 pledgeId, uint256 amount) public payable {\n    require(amount == msg.value && msg.value > 0, \"Amount must be greater than 0\");\n\n    Pledge storage pledge = pledges[pledgeId];\n\n    require(pledge.charityAddress != address(0), \"Pledge does not exist\");\n    require(pledge.endedAt == 0, \"Pledge has ended\");\n\n    pledgeContributions[pledgeId][msg.sender] += amount;\n    pledgesContributedTo[msg.sender].push(pledgeId);\n\n    pledge.raisedAmount += amount;\n    pledgeArray[pledgeId - 1].raisedAmount += amount;\n\n    emit PledgeContribution(pledgeId, msg.sender, amount);\n  }\n\n  function howMuchDidIContribute(uint256 pledgeId) public view returns (uint256) {\n    return pledgeContributions[pledgeId][msg.sender];\n  }\n\n  function howMuchDidContribute(uint256 pledgeId, address addr) public view returns (uint256) {\n    return pledgeContributions[pledgeId][addr];\n  }\n\n  function endPledge(uint256 pledgeId) public {\n    Pledge storage pledge = pledges[pledgeId];\n\n    require(pledge.charityAddress != address(0), \"Pledge does not exist\");\n    require(pledge.endedAt == 0, \"Pledge has already ended\");\n    // require(block.timestamp >= pledge.createdAt + pledge.duration, \"Pledge has not ended yet\");\n\n    pledge.endedAt = block.timestamp;\n    pledgeArray[pledgeId - 1].endedAt = block.timestamp;\n\n    emit PledgeEnded(pledgeId, block.timestamp);\n  }\n\n  function withdraw(uint256 pledgeId, address payable addr) public {\n    Pledge memory pledge = pledges[pledgeId];\n    require(pledge.charityAddress != address(0), \"Pledge does not exist\");\n    require(pledge.endedAt != 0, \"Pledge has not ended\");\n    require(msg.sender == addr, \"Sender must be the address of the beneficiary\");\n    require(pledge.raisedAmount < pledge.goalAmount, \"Pledge has reached goal amount, cannot withdraw. Funds are only withdrawable by the charity.\");\n    require(!pledge.completed, \"Donation already completed.\");\n\n    uint256 contributed = pledgeContributions[pledgeId][msg.sender];\n    pledgeContributions[pledgeId][msg.sender] = 0;\n    addr.transfer(contributed);\n\n    emit Withdrawal(pledgeId, msg.sender, contributed);\n  }\n\n  function withdrawForCharity(uint256 pledgeId) public {\n    Pledge storage pledge = pledges[pledgeId];\n    require(pledge.charityAddress != address(0), \"Pledge does not exist\");\n    require(pledge.endedAt != 0, \"Pledge has not ended\");\n    require(pledge.raisedAmount >= pledge.goalAmount, \"Pledge has not reached goal amount.\");\n    require(!pledge.completed, \"Donation already completed.\");\n\n    address payable charityAddress = payable(pledge.charityAddress);\n    totalClaimedByCharities += pledge.raisedAmount;\n    // TODO: store tx?\n    charityAddress.transfer(pledge.raisedAmount);\n\n    pledge.completed = true;\n  }\n\n  function createVerifiedCharity(string calldata name, string calldata description,\n      string calldata websiteUrl, string calldata imageUrl, address addr) public onlyOwner {\n\n    require(bytes(name).length > 0, \"Charity name is a required param\");\n    require(bytes(websiteUrl).length > 0, \"Website URL is a required param\");\n    require(addr != address(0), \"Address is required\");\n\n    Charity memory charity = Charity(\n      addr,\n      name,\n      description,\n      websiteUrl,\n      imageUrl\n    );\n    verifiedCharities[addr] = charity;\n    verifiedCharityArray.push(charity);\n\n    emit CharityCreated(addr, name, websiteUrl, imageUrl);\n  }\n\n  function getVerifiedCharity(address addr) public view returns (Charity memory) {\n    return verifiedCharities[addr];\n  }\n\n  function getVerifiedCharities() public view returns (Charity[] memory) {\n    return verifiedCharityArray;\n  }\n\n}\n",
  "sourcePath": "/Users/chrisschnabel/projects/hakuai/truffle/contracts/Hakuai.sol",
  "compiler": {
    "name": "solc",
    "version": "0.8.14+commit.80d49f37.Emscripten.clang"
  },
  "schemaVersion": "3.4.7",
  "updatedAt": "2022-11-08T22:26:28.419Z",
  "devdoc": {
    "kind": "dev",
    "methods": {
      "owner()": {
        "details": "Returns the address of the current owner."
      },
      "renounceOwnership()": {
        "details": "Leaves the contract without owner. It will not be possible to call `onlyOwner` functions anymore. Can only be called by the current owner. NOTE: Renouncing ownership will leave the contract without an owner, thereby removing any functionality that is only available to the owner."
      },
      "transferOwnership(address)": {
        "details": "Transfers ownership of the contract to a new account (`newOwner`). Can only be called by the current owner."
      }
    },
    "version": 1
  },
  "userdoc": {
    "kind": "user",
    "methods": {},
    "version": 1
  }
}