{
  "contractName": "Hakuai",
  "abi": [
    {
      "inputs": [],
      "stateMutability": "nonpayable",
      "type": "constructor"
    },
    {
      "anonymous": false,
      "inputs": [
        {
          "indexed": false,
          "internalType": "address",
          "name": "addr",
          "type": "address"
        },
        {
          "indexed": false,
          "internalType": "string",
          "name": "name",
          "type": "string"
        },
        {
          "indexed": false,
          "internalType": "string",
          "name": "websiteUrl",
          "type": "string"
        },
        {
          "indexed": false,
          "internalType": "string",
          "name": "imageUrl",
          "type": "string"
        }
      ],
      "name": "CharityCreated",
      "type": "event"
    },
    {
      "anonymous": false,
      "inputs": [
        {
          "indexed": true,
          "internalType": "address",
          "name": "previousOwner",
          "type": "address"
        },
        {
          "indexed": true,
          "internalType": "address",
          "name": "newOwner",
          "type": "address"
        }
      ],
      "name": "OwnershipTransferred",
      "type": "event"
    },
    {
      "anonymous": false,
      "inputs": [
        {
          "indexed": false,
          "internalType": "uint256",
          "name": "pledgeId",
          "type": "uint256"
        },
        {
          "indexed": false,
          "internalType": "address",
          "name": "contributor",
          "type": "address"
        },
        {
          "indexed": false,
          "internalType": "uint256",
          "name": "amount",
          "type": "uint256"
        }
      ],
      "name": "PledgeContribution",
      "type": "event"
    },
    {
      "anonymous": false,
      "inputs": [
        {
          "components": [
            {
              "internalType": "uint256",
              "name": "id",
              "type": "uint256"
            },
            {
              "internalType": "address",
              "name": "creator",
              "type": "address"
            },
            {
              "internalType": "uint256",
              "name": "createdAt",
              "type": "uint256"
            },
            {
              "internalType": "uint256",
              "name": "initialPledge",
              "type": "uint256"
            },
            {
              "internalType": "uint256",
              "name": "goalAmount",
              "type": "uint256"
            },
            {
              "internalType": "uint256",
              "name": "raisedAmount",
              "type": "uint256"
            },
            {
              "internalType": "uint256",
              "name": "duration",
              "type": "uint256"
            },
            {
              "internalType": "uint256",
              "name": "endedAt",
              "type": "uint256"
            },
            {
              "internalType": "address",
              "name": "charityAddress",
              "type": "address"
            },
            {
              "internalType": "bool",
              "name": "isVerified",
              "type": "bool"
            },
            {
              "components": [
                {
                  "internalType": "address",
                  "name": "addr",
                  "type": "address"
                },
                {
                  "internalType": "string",
                  "name": "name",
                  "type": "string"
                },
                {
                  "internalType": "string",
                  "name": "description",
                  "type": "string"
                },
                {
                  "internalType": "string",
                  "name": "websiteUrl",
                  "type": "string"
                },
                {
                  "internalType": "string",
                  "name": "imageUrl",
                  "type": "string"
                }
              ],
              "internalType": "struct Hakuai.Charity",
              "name": "charity",
              "type": "tuple"
            }
          ],
          "indexed": false,
          "internalType": "struct Hakuai.Pledge",
          "name": "pledge",
          "type": "tuple"
        }
      ],
      "name": "PledgeCreated",
      "type": "event"
    },
    {
      "anonymous": false,
      "inputs": [
        {
          "indexed": false,
          "internalType": "uint256",
          "name": "pledgeId",
          "type": "uint256"
        },
        {
          "indexed": false,
          "internalType": "uint256",
          "name": "timestamp",
          "type": "uint256"
        }
      ],
      "name": "PledgeEnded",
      "type": "event"
    },
    {
      "anonymous": false,
      "inputs": [
        {
          "indexed": false,
          "internalType": "uint256",
          "name": "pledgeId",
          "type": "uint256"
        },
        {
          "indexed": false,
          "internalType": "address",
          "name": "contributor",
          "type": "address"
        },
        {
          "indexed": false,
          "internalType": "uint256",
          "name": "amount",
          "type": "uint256"
        }
      ],
      "name": "Withdrawal",
      "type": "event"
    },
    {
      "inputs": [],
      "name": "owner",
      "outputs": [
        {
          "internalType": "address",
          "name": "",
          "type": "address"
        }
      ],
      "stateMutability": "view",
      "type": "function"
    },
    {
      "inputs": [
        {
          "internalType": "uint256",
          "name": "",
          "type": "uint256"
        }
      ],
      "name": "pledges",
      "outputs": [
        {
          "internalType": "uint256",
          "name": "id",
          "type": "uint256"
        },
        {
          "internalType": "address",
          "name": "creator",
          "type": "address"
        },
        {
          "internalType": "uint256",
          "name": "createdAt",
          "type": "uint256"
        },
        {
          "internalType": "uint256",
          "name": "initialPledge",
          "type": "uint256"
        },
        {
          "internalType": "uint256",
          "name": "goalAmount",
          "type": "uint256"
        },
        {
          "internalType": "uint256",
          "name": "raisedAmount",
          "type": "uint256"
        },
        {
          "internalType": "uint256",
          "name": "duration",
          "type": "uint256"
        },
        {
          "internalType": "uint256",
          "name": "endedAt",
          "type": "uint256"
        },
        {
          "internalType": "address",
          "name": "charityAddress",
          "type": "address"
        },
        {
          "internalType": "bool",
          "name": "isVerified",
          "type": "bool"
        },
        {
          "components": [
            {
              "internalType": "address",
              "name": "addr",
              "type": "address"
            },
            {
              "internalType": "string",
              "name": "name",
              "type": "string"
            },
            {
              "internalType": "string",
              "name": "description",
              "type": "string"
            },
            {
              "internalType": "string",
              "name": "websiteUrl",
              "type": "string"
            },
            {
              "internalType": "string",
              "name": "imageUrl",
              "type": "string"
            }
          ],
          "internalType": "struct Hakuai.Charity",
          "name": "charity",
          "type": "tuple"
        }
      ],
      "stateMutability": "view",
      "type": "function"
    },
    {
      "inputs": [],
      "name": "renounceOwnership",
      "outputs": [],
      "stateMutability": "nonpayable",
      "type": "function"
    },
    {
      "inputs": [
        {
          "internalType": "address",
          "name": "newOwner",
          "type": "address"
        }
      ],
      "name": "transferOwnership",
      "outputs": [],
      "stateMutability": "nonpayable",
      "type": "function"
    },
    {
      "inputs": [
        {
          "internalType": "address",
          "name": "",
          "type": "address"
        }
      ],
      "name": "verifiedCharities",
      "outputs": [
        {
          "internalType": "address",
          "name": "addr",
          "type": "address"
        },
        {
          "internalType": "string",
          "name": "name",
          "type": "string"
        },
        {
          "internalType": "string",
          "name": "description",
          "type": "string"
        },
        {
          "internalType": "string",
          "name": "websiteUrl",
          "type": "string"
        },
        {
          "internalType": "string",
          "name": "imageUrl",
          "type": "string"
        }
      ],
      "stateMutability": "view",
      "type": "function"
    },
    {
      "inputs": [
        {
          "internalType": "uint256",
          "name": "initialPledge",
          "type": "uint256"
        },
        {
          "internalType": "uint256",
          "name": "goalAmount",
          "type": "uint256"
        },
        {
          "internalType": "uint256",
          "name": "duration",
          "type": "uint256"
        },
        {
          "internalType": "address",
          "name": "charityAddress",
          "type": "address"
        }
      ],
      "name": "createPledge",
      "outputs": [],
      "stateMutability": "payable",
      "type": "function"
    },
    {
      "inputs": [
        {
          "internalType": "uint256",
          "name": "pledge",
          "type": "uint256"
        }
      ],
      "name": "getPledge",
      "outputs": [
        {
          "components": [
            {
              "internalType": "uint256",
              "name": "id",
              "type": "uint256"
            },
            {
              "internalType": "address",
              "name": "creator",
              "type": "address"
            },
            {
              "internalType": "uint256",
              "name": "createdAt",
              "type": "uint256"
            },
            {
              "internalType": "uint256",
              "name": "initialPledge",
              "type": "uint256"
            },
            {
              "internalType": "uint256",
              "name": "goalAmount",
              "type": "uint256"
            },
            {
              "internalType": "uint256",
              "name": "raisedAmount",
              "type": "uint256"
            },
            {
              "internalType": "uint256",
              "name": "duration",
              "type": "uint256"
            },
            {
              "internalType": "uint256",
              "name": "endedAt",
              "type": "uint256"
            },
            {
              "internalType": "address",
              "name": "charityAddress",
              "type": "address"
            },
            {
              "internalType": "bool",
              "name": "isVerified",
              "type": "bool"
            },
            {
              "components": [
                {
                  "internalType": "address",
                  "name": "addr",
                  "type": "address"
                },
                {
                  "internalType": "string",
                  "name": "name",
                  "type": "string"
                },
                {
                  "internalType": "string",
                  "name": "description",
                  "type": "string"
                },
                {
                  "internalType": "string",
                  "name": "websiteUrl",
                  "type": "string"
                },
                {
                  "internalType": "string",
                  "name": "imageUrl",
                  "type": "string"
                }
              ],
              "internalType": "struct Hakuai.Charity",
              "name": "charity",
              "type": "tuple"
            }
          ],
          "internalType": "struct Hakuai.Pledge",
          "name": "",
          "type": "tuple"
        }
      ],
      "stateMutability": "view",
      "type": "function"
    },
    {
      "inputs": [],
      "name": "getPledges",
      "outputs": [
        {
          "components": [
            {
              "internalType": "uint256",
              "name": "id",
              "type": "uint256"
            },
            {
              "internalType": "address",
              "name": "creator",
              "type": "address"
            },
            {
              "internalType": "uint256",
              "name": "createdAt",
              "type": "uint256"
            },
            {
              "internalType": "uint256",
              "name": "initialPledge",
              "type": "uint256"
            },
            {
              "internalType": "uint256",
              "name": "goalAmount",
              "type": "uint256"
            },
            {
              "internalType": "uint256",
              "name": "raisedAmount",
              "type": "uint256"
            },
            {
              "internalType": "uint256",
              "name": "duration",
              "type": "uint256"
            },
            {
              "internalType": "uint256",
              "name": "endedAt",
              "type": "uint256"
            },
            {
              "internalType": "address",
              "name": "charityAddress",
              "type": "address"
            },
            {
              "internalType": "bool",
              "name": "isVerified",
              "type": "bool"
            },
            {
              "components": [
                {
                  "internalType": "address",
                  "name": "addr",
                  "type": "address"
                },
                {
                  "internalType": "string",
                  "name": "name",
                  "type": "string"
                },
                {
                  "internalType": "string",
                  "name": "description",
                  "type": "string"
                },
                {
                  "internalType": "string",
                  "name": "websiteUrl",
                  "type": "string"
                },
                {
                  "internalType": "string",
                  "name": "imageUrl",
                  "type": "string"
                }
              ],
              "internalType": "struct Hakuai.Charity",
              "name": "charity",
              "type": "tuple"
            }
          ],
          "internalType": "struct Hakuai.Pledge[]",
          "name": "",
          "type": "tuple[]"
        }
      ],
      "stateMutability": "view",
      "type": "function"
    },
    {
      "inputs": [
        {
          "internalType": "uint256",
          "name": "pledgeId",
          "type": "uint256"
        },
        {
          "internalType": "uint256",
          "name": "amount",
          "type": "uint256"
        }
      ],
      "name": "contributeToPledge",
      "outputs": [],
      "stateMutability": "payable",
      "type": "function"
    },
    {
      "inputs": [
        {
          "internalType": "uint256",
          "name": "pledgeId",
          "type": "uint256"
        }
      ],
      "name": "endPledge",
      "outputs": [],
      "stateMutability": "nonpayable",
      "type": "function"
    },
    {
      "inputs": [
        {
          "internalType": "uint256",
          "name": "pledgeId",
          "type": "uint256"
        },
        {
          "internalType": "address payable",
          "name": "addr",
          "type": "address"
        }
      ],
      "name": "withdraw",
      "outputs": [],
      "stateMutability": "nonpayable",
      "type": "function"
    },
    {
      "inputs": [
        {
          "internalType": "string",
          "name": "name",
          "type": "string"
        },
        {
          "internalType": "string",
          "name": "description",
          "type": "string"
        },
        {
          "internalType": "string",
          "name": "websiteUrl",
          "type": "string"
        },
        {
          "internalType": "string",
          "name": "imageUrl",
          "type": "string"
        },
        {
          "internalType": "address",
          "name": "addr",
          "type": "address"
        }
      ],
      "name": "createVerifiedCharity",
      "outputs": [],
      "stateMutability": "nonpayable",
      "type": "function"
    }
  ],
  "bytecode": "0x608060405260016002553480156200001657600080fd5b50620000376200002b6200007e60201b60201c565b6200008660201b60201c565b33600160006101000a81548173ffffffffffffffffffffffffffffffffffffffff021916908373ffffffffffffffffffffffffffffffffffffffff1602179055506200014a565b600033905090565b60008060009054906101000a900473ffffffffffffffffffffffffffffffffffffffff169050816000806101000a81548173ffffffffffffffffffffffffffffffffffffffff021916908373ffffffffffffffffffffffffffffffffffffffff1602179055508173ffffffffffffffffffffffffffffffffffffffff168173ffffffffffffffffffffffffffffffffffffffff167f8be0079c531659141344cd1fd0a4f28419497f9722a3daafe3b4186f6b6457e060405160405180910390a35050565b6146a5806200015a6000396000f3fe6080604052600436106100a65760003560e01c8063ac12408111610064578063ac124081146101b0578063d938fc31146101f7578063dfef24f514610220578063f1f716541461024b578063f2fde38b14610274578063f9727d9c1461029d576100a6565b8062f714ce146100ab5780633f221f79146100d4578063715018a6146100f05780638da5cb5b1461010757806390c4ce5214610132578063a3c821a71461016f575b600080fd5b3480156100b757600080fd5b506100d260048036038101906100cd9190613421565b6102b9565b005b6100ee60048036038101906100e99190613461565b610883565b005b3480156100fc57600080fd5b50610105610dba565b005b34801561011357600080fd5b5061011c610e42565b60405161012991906134c2565b60405180910390f35b34801561013e57600080fd5b50610159600480360381019061015491906134dd565b610e6b565b6040516101669190613756565b60405180910390f35b34801561017b57600080fd5b50610196600480360381019061019191906137a4565b611258565b6040516101a795949392919061381b565b60405180910390f35b3480156101bc57600080fd5b506101d760048036038101906101d291906134dd565b6114ce565b6040516101ee9b9a99989796959493929190613933565b60405180910390f35b34801561020357600080fd5b5061021e60048036038101906102199190613a4a565b61181d565b005b34801561022c57600080fd5b50610235611c32565b6040516102429190613cf7565b60405180910390f35b34801561025757600080fd5b50610272600480360381019061026d91906134dd565b612051565b005b34801561028057600080fd5b5061029b600480360381019061029691906137a4565b6126eb565b005b6102b760048036038101906102b29190613d19565b6127e2565b005b60006003600084815260200190815260200160002060405180610160016040529081600082015481526020016001820160009054906101000a900473ffffffffffffffffffffffffffffffffffffffff1673ffffffffffffffffffffffffffffffffffffffff1673ffffffffffffffffffffffffffffffffffffffff1681526020016002820154815260200160038201548152602001600482015481526020016005820154815260200160068201548152602001600782015481526020016008820160009054906101000a900473ffffffffffffffffffffffffffffffffffffffff1673ffffffffffffffffffffffffffffffffffffffff1673ffffffffffffffffffffffffffffffffffffffff1681526020016008820160149054906101000a900460ff16151515158152602001600982016040518060a00160405290816000820160009054906101000a900473ffffffffffffffffffffffffffffffffffffffff1673ffffffffffffffffffffffffffffffffffffffff1673ffffffffffffffffffffffffffffffffffffffff16815260200160018201805461045d90613daf565b80601f016020809104026020016040519081016040528092919081815260200182805461048990613daf565b80156104d65780601f106104ab576101008083540402835291602001916104d6565b820191906000526020600020905b8154815290600101906020018083116104b957829003601f168201915b505050505081526020016002820180546104ef90613daf565b80601f016020809104026020016040519081016040528092919081815260200182805461051b90613daf565b80156105685780601f1061053d57610100808354040283529160200191610568565b820191906000526020600020905b81548152906001019060200180831161054b57829003601f168201915b5050505050815260200160038201805461058190613daf565b80601f01602080910402602001604051908101604052809291908181526020018280546105ad90613daf565b80156105fa5780601f106105cf576101008083540402835291602001916105fa565b820191906000526020600020905b8154815290600101906020018083116105dd57829003601f168201915b5050505050815260200160048201805461061390613daf565b80601f016020809104026020016040519081016040528092919081815260200182805461063f90613daf565b801561068c5780601f106106615761010080835404028352916020019161068c565b820191906000526020600020905b81548152906001019060200180831161066f57829003601f168201915b50505050508152505081525050905060008160e00151036106e2576040517f08c379a00000000000000000000000000000000000000000000000000000000081526004016106d990613e2c565b60405180910390fd5b8173ffffffffffffffffffffffffffffffffffffffff163373ffffffffffffffffffffffffffffffffffffffff1614610750576040517f08c379a000000000000000000000000000000000000000000000000000000000815260040161074790613ebe565b60405180910390fd5b60006005600085815260200190815260200160002060003373ffffffffffffffffffffffffffffffffffffffff1673ffffffffffffffffffffffffffffffffffffffff16815260200190815260200160002054905060006005600086815260200190815260200160002060003373ffffffffffffffffffffffffffffffffffffffff1673ffffffffffffffffffffffffffffffffffffffff168152602001908152602001600020819055508273ffffffffffffffffffffffffffffffffffffffff166108fc829081150290604051600060405180830381858888f19350505050158015610841573d6000803e3d6000fd5b507f37e8063b72a944a76de602f32b82fd8c2a1c6f99564c727ffaf913c7762cd42084338360405161087593929190613ede565b60405180910390a150505050565b34811480156108925750600034115b6108d1576040517f08c379a00000000000000000000000000000000000000000000000000000000081526004016108c890613f61565b60405180910390fd5b60006003600084815260200190815260200160002060405180610160016040529081600082015481526020016001820160009054906101000a900473ffffffffffffffffffffffffffffffffffffffff1673ffffffffffffffffffffffffffffffffffffffff1673ffffffffffffffffffffffffffffffffffffffff1681526020016002820154815260200160038201548152602001600482015481526020016005820154815260200160068201548152602001600782015481526020016008820160009054906101000a900473ffffffffffffffffffffffffffffffffffffffff1673ffffffffffffffffffffffffffffffffffffffff1673ffffffffffffffffffffffffffffffffffffffff1681526020016008820160149054906101000a900460ff16151515158152602001600982016040518060a00160405290816000820160009054906101000a900473ffffffffffffffffffffffffffffffffffffffff1673ffffffffffffffffffffffffffffffffffffffff1673ffffffffffffffffffffffffffffffffffffffff168152602001600182018054610a7590613daf565b80601f0160208091040260200160405190810160405280929190818152602001828054610aa190613daf565b8015610aee5780601f10610ac357610100808354040283529160200191610aee565b820191906000526020600020905b815481529060010190602001808311610ad157829003601f168201915b50505050508152602001600282018054610b0790613daf565b80601f0160208091040260200160405190810160405280929190818152602001828054610b3390613daf565b8015610b805780601f10610b5557610100808354040283529160200191610b80565b820191906000526020600020905b815481529060010190602001808311610b6357829003601f168201915b50505050508152602001600382018054610b9990613daf565b80601f0160208091040260200160405190810160405280929190818152602001828054610bc590613daf565b8015610c125780601f10610be757610100808354040283529160200191610c12565b820191906000526020600020905b815481529060010190602001808311610bf557829003601f168201915b50505050508152602001600482018054610c2b90613daf565b80601f0160208091040260200160405190810160405280929190818152602001828054610c5790613daf565b8015610ca45780601f10610c7957610100808354040283529160200191610ca4565b820191906000526020600020905b815481529060010190602001808311610c8757829003601f168201915b50505050508152505081525050905060008160e0015114610cfa576040517f08c379a0000000000000000000000000000000000000000000000000000000008152600401610cf190613fcd565b60405180910390fd5b818160a001818151610d0c919061401c565b91508181525050816005600085815260200190815260200160002060003373ffffffffffffffffffffffffffffffffffffffff1673ffffffffffffffffffffffffffffffffffffffff1681526020019081526020016000206000828254610d73919061401c565b925050819055507fad7bc569ba73f7069270864414014159ad8170fbbcdd59c5e6ee660df787e961833384604051610dad93929190613ede565b60405180910390a1505050565b610dc2613141565b73ffffffffffffffffffffffffffffffffffffffff16610de0610e42565b73ffffffffffffffffffffffffffffffffffffffff1614610e36576040517f08c379a0000000000000000000000000000000000000000000000000000000008152600401610e2d906140be565b60405180910390fd5b610e406000613149565b565b60008060009054906101000a900473ffffffffffffffffffffffffffffffffffffffff16905090565b610e7361320d565b6003600083815260200190815260200160002060405180610160016040529081600082015481526020016001820160009054906101000a900473ffffffffffffffffffffffffffffffffffffffff1673ffffffffffffffffffffffffffffffffffffffff1673ffffffffffffffffffffffffffffffffffffffff1681526020016002820154815260200160038201548152602001600482015481526020016005820154815260200160068201548152602001600782015481526020016008820160009054906101000a900473ffffffffffffffffffffffffffffffffffffffff1673ffffffffffffffffffffffffffffffffffffffff1673ffffffffffffffffffffffffffffffffffffffff1681526020016008820160149054906101000a900460ff16151515158152602001600982016040518060a00160405290816000820160009054906101000a900473ffffffffffffffffffffffffffffffffffffffff1673ffffffffffffffffffffffffffffffffffffffff1673ffffffffffffffffffffffffffffffffffffffff16815260200160018201805461101590613daf565b80601f016020809104026020016040519081016040528092919081815260200182805461104190613daf565b801561108e5780601f106110635761010080835404028352916020019161108e565b820191906000526020600020905b81548152906001019060200180831161107157829003601f168201915b505050505081526020016002820180546110a790613daf565b80601f01602080910402602001604051908101604052809291908181526020018280546110d390613daf565b80156111205780601f106110f557610100808354040283529160200191611120565b820191906000526020600020905b81548152906001019060200180831161110357829003601f168201915b5050505050815260200160038201805461113990613daf565b80601f016020809104026020016040519081016040528092919081815260200182805461116590613daf565b80156111b25780601f10611187576101008083540402835291602001916111b2565b820191906000526020600020905b81548152906001019060200180831161119557829003601f168201915b505050505081526020016004820180546111cb90613daf565b80601f01602080910402602001604051908101604052809291908181526020018280546111f790613daf565b80156112445780601f1061121957610100808354040283529160200191611244565b820191906000526020600020905b81548152906001019060200180831161122757829003601f168201915b505050505081525050815250509050919050565b60066020528060005260406000206000915090508060000160009054906101000a900473ffffffffffffffffffffffffffffffffffffffff16908060010180546112a190613daf565b80601f01602080910402602001604051908101604052809291908181526020018280546112cd90613daf565b801561131a5780601f106112ef5761010080835404028352916020019161131a565b820191906000526020600020905b8154815290600101906020018083116112fd57829003601f168201915b50505050509080600201805461132f90613daf565b80601f016020809104026020016040519081016040528092919081815260200182805461135b90613daf565b80156113a85780601f1061137d576101008083540402835291602001916113a8565b820191906000526020600020905b81548152906001019060200180831161138b57829003601f168201915b5050505050908060030180546113bd90613daf565b80601f01602080910402602001604051908101604052809291908181526020018280546113e990613daf565b80156114365780601f1061140b57610100808354040283529160200191611436565b820191906000526020600020905b81548152906001019060200180831161141957829003601f168201915b50505050509080600401805461144b90613daf565b80601f016020809104026020016040519081016040528092919081815260200182805461147790613daf565b80156114c45780601f10611499576101008083540402835291602001916114c4565b820191906000526020600020905b8154815290600101906020018083116114a757829003601f168201915b5050505050905085565b60036020528060005260406000206000915090508060000154908060010160009054906101000a900473ffffffffffffffffffffffffffffffffffffffff16908060020154908060030154908060040154908060050154908060060154908060070154908060080160009054906101000a900473ffffffffffffffffffffffffffffffffffffffff16908060080160149054906101000a900460ff1690806009016040518060a00160405290816000820160009054906101000a900473ffffffffffffffffffffffffffffffffffffffff1673ffffffffffffffffffffffffffffffffffffffff1673ffffffffffffffffffffffffffffffffffffffff1681526020016001820180546115e090613daf565b80601f016020809104026020016040519081016040528092919081815260200182805461160c90613daf565b80156116595780601f1061162e57610100808354040283529160200191611659565b820191906000526020600020905b81548152906001019060200180831161163c57829003601f168201915b5050505050815260200160028201805461167290613daf565b80601f016020809104026020016040519081016040528092919081815260200182805461169e90613daf565b80156116eb5780601f106116c0576101008083540402835291602001916116eb565b820191906000526020600020905b8154815290600101906020018083116116ce57829003601f168201915b5050505050815260200160038201805461170490613daf565b80601f016020809104026020016040519081016040528092919081815260200182805461173090613daf565b801561177d5780601f106117525761010080835404028352916020019161177d565b820191906000526020600020905b81548152906001019060200180831161176057829003601f168201915b5050505050815260200160048201805461179690613daf565b80601f01602080910402602001604051908101604052809291908181526020018280546117c290613daf565b801561180f5780601f106117e45761010080835404028352916020019161180f565b820191906000526020600020905b8154815290600101906020018083116117f257829003601f168201915b50505050508152505090508b565b611825613141565b73ffffffffffffffffffffffffffffffffffffffff16611843610e42565b73ffffffffffffffffffffffffffffffffffffffff1614611899576040517f08c379a0000000000000000000000000000000000000000000000000000000008152600401611890906140be565b60405180910390fd5b600089899050116118df576040517f08c379a00000000000000000000000000000000000000000000000000000000081526004016118d69061412a565b60405180910390fd5b60008585905011611925576040517f08c379a000000000000000000000000000000000000000000000000000000000815260040161191c90614196565b60405180910390fd5b600073ffffffffffffffffffffffffffffffffffffffff168173ffffffffffffffffffffffffffffffffffffffff1603611994576040517f08c379a000000000000000000000000000000000000000000000000000000000815260040161198b90614202565b60405180910390fd5b60006040518060a001604052808373ffffffffffffffffffffffffffffffffffffffff1681526020018b8b8080601f016020809104026020016040519081016040528093929190818152602001838380828437600081840152601f19601f82011690508083019250505050505050815260200189898080601f016020809104026020016040519081016040528093929190818152602001838380828437600081840152601f19601f82011690508083019250505050505050815260200187878080601f016020809104026020016040519081016040528093929190818152602001838380828437600081840152601f19601f82011690508083019250505050505050815260200185858080601f016020809104026020016040519081016040528093929190818152602001838380828437600081840152601f19601f82011690508083019250505050505050815250905080600660008473ffffffffffffffffffffffffffffffffffffffff1673ffffffffffffffffffffffffffffffffffffffff16815260200190815260200160002060008201518160000160006101000a81548173ffffffffffffffffffffffffffffffffffffffff021916908373ffffffffffffffffffffffffffffffffffffffff1602179055506020820151816001019080519060200190611b8892919061329b565b506040820151816002019080519060200190611ba592919061329b565b506060820151816003019080519060200190611bc292919061329b565b506080820151816004019080519060200190611bdf92919061329b565b509050507f9d149607b35531090b5116679ec7a10b37268e2ba17e04d51a298d7ee87cd032828b8b89898989604051611c1e979695949392919061425e565b60405180910390a150505050505050505050565b60606004805480602002602001604051908101604052809291908181526020016000905b8282101561204857838290600052602060002090600e020160405180610160016040529081600082015481526020016001820160009054906101000a900473ffffffffffffffffffffffffffffffffffffffff1673ffffffffffffffffffffffffffffffffffffffff1673ffffffffffffffffffffffffffffffffffffffff1681526020016002820154815260200160038201548152602001600482015481526020016005820154815260200160068201548152602001600782015481526020016008820160009054906101000a900473ffffffffffffffffffffffffffffffffffffffff1673ffffffffffffffffffffffffffffffffffffffff1673ffffffffffffffffffffffffffffffffffffffff1681526020016008820160149054906101000a900460ff16151515158152602001600982016040518060a00160405290816000820160009054906101000a900473ffffffffffffffffffffffffffffffffffffffff1673ffffffffffffffffffffffffffffffffffffffff1673ffffffffffffffffffffffffffffffffffffffff168152602001600182018054611dfd90613daf565b80601f0160208091040260200160405190810160405280929190818152602001828054611e2990613daf565b8015611e765780601f10611e4b57610100808354040283529160200191611e76565b820191906000526020600020905b815481529060010190602001808311611e5957829003601f168201915b50505050508152602001600282018054611e8f90613daf565b80601f0160208091040260200160405190810160405280929190818152602001828054611ebb90613daf565b8015611f085780601f10611edd57610100808354040283529160200191611f08565b820191906000526020600020905b815481529060010190602001808311611eeb57829003601f168201915b50505050508152602001600382018054611f2190613daf565b80601f0160208091040260200160405190810160405280929190818152602001828054611f4d90613daf565b8015611f9a5780601f10611f6f57610100808354040283529160200191611f9a565b820191906000526020600020905b815481529060010190602001808311611f7d57829003601f168201915b50505050508152602001600482018054611fb390613daf565b80601f0160208091040260200160405190810160405280929190818152602001828054611fdf90613daf565b801561202c5780601f106120015761010080835404028352916020019161202c565b820191906000526020600020905b81548152906001019060200180831161200f57829003601f168201915b5050505050815250508152505081526020019060010190611c56565b50505050905090565b60006003600083815260200190815260200160002060405180610160016040529081600082015481526020016001820160009054906101000a900473ffffffffffffffffffffffffffffffffffffffff1673ffffffffffffffffffffffffffffffffffffffff1673ffffffffffffffffffffffffffffffffffffffff1681526020016002820154815260200160038201548152602001600482015481526020016005820154815260200160068201548152602001600782015481526020016008820160009054906101000a900473ffffffffffffffffffffffffffffffffffffffff1673ffffffffffffffffffffffffffffffffffffffff1673ffffffffffffffffffffffffffffffffffffffff1681526020016008820160149054906101000a900460ff16151515158152602001600982016040518060a00160405290816000820160009054906101000a900473ffffffffffffffffffffffffffffffffffffffff1673ffffffffffffffffffffffffffffffffffffffff1673ffffffffffffffffffffffffffffffffffffffff1681526020016001820180546121f590613daf565b80601f016020809104026020016040519081016040528092919081815260200182805461222190613daf565b801561226e5780601f106122435761010080835404028352916020019161226e565b820191906000526020600020905b81548152906001019060200180831161225157829003601f168201915b5050505050815260200160028201805461228790613daf565b80601f01602080910402602001604051908101604052809291908181526020018280546122b390613daf565b80156123005780601f106122d557610100808354040283529160200191612300565b820191906000526020600020905b8154815290600101906020018083116122e357829003601f168201915b5050505050815260200160038201805461231990613daf565b80601f016020809104026020016040519081016040528092919081815260200182805461234590613daf565b80156123925780601f1061236757610100808354040283529160200191612392565b820191906000526020600020905b81548152906001019060200180831161237557829003601f168201915b505050505081526020016004820180546123ab90613daf565b80601f01602080910402602001604051908101604052809291908181526020018280546123d790613daf565b80156124245780601f106123f957610100808354040283529160200191612424565b820191906000526020600020905b81548152906001019060200180831161240757829003601f168201915b50505050508152505081525050905060008160e001511461247a576040517f08c379a00000000000000000000000000000000000000000000000000000000081526004016124719061430a565b60405180910390fd5b8060c00151816040015161248e919061401c565b4210156124d0576040517f08c379a00000000000000000000000000000000000000000000000000000000081526004016124c790614376565b60405180910390fd5b428160e001818152505080600360008481526020019081526020016000206000820151816000015560208201518160010160006101000a81548173ffffffffffffffffffffffffffffffffffffffff021916908373ffffffffffffffffffffffffffffffffffffffff16021790555060408201518160020155606082015181600301556080820151816004015560a0820151816005015560c0820151816006015560e082015181600701556101008201518160080160006101000a81548173ffffffffffffffffffffffffffffffffffffffff021916908373ffffffffffffffffffffffffffffffffffffffff1602179055506101208201518160080160146101000a81548160ff0219169083151502179055506101408201518160090160008201518160000160006101000a81548173ffffffffffffffffffffffffffffffffffffffff021916908373ffffffffffffffffffffffffffffffffffffffff160217905550602082015181600101908051906020019061265192919061329b565b50604082015181600201908051906020019061266e92919061329b565b50606082015181600301908051906020019061268b92919061329b565b5060808201518160040190805190602001906126a892919061329b565b5050509050507f60a64a73dcaed7ed02d10c6e33044bacd2299257812c69542e92c61fcd79fc6082426040516126df929190614396565b60405180910390a15050565b6126f3613141565b73ffffffffffffffffffffffffffffffffffffffff16612711610e42565b73ffffffffffffffffffffffffffffffffffffffff1614612767576040517f08c379a000000000000000000000000000000000000000000000000000000000815260040161275e906140be565b60405180910390fd5b600073ffffffffffffffffffffffffffffffffffffffff168173ffffffffffffffffffffffffffffffffffffffff16036127d6576040517f08c379a00000000000000000000000000000000000000000000000000000000081526004016127cd90614431565b60405180910390fd5b6127df81613149565b50565b34841480156127f15750600034115b612830576040517f08c379a00000000000000000000000000000000000000000000000000000000081526004016128279061449d565b60405180910390fd5b838311612872576040517f08c379a00000000000000000000000000000000000000000000000000000000081526004016128699061452f565b60405180910390fd5b6236ee808210156128b8576040517f08c379a00000000000000000000000000000000000000000000000000000000081526004016128af9061459b565b60405180910390fd5b600073ffffffffffffffffffffffffffffffffffffffff168173ffffffffffffffffffffffffffffffffffffffff1603612927576040517f08c379a000000000000000000000000000000000000000000000000000000000815260040161291e90614607565b60405180910390fd5b600080600660008473ffffffffffffffffffffffffffffffffffffffff1673ffffffffffffffffffffffffffffffffffffffff1681526020019081526020016000206040518060a00160405290816000820160009054906101000a900473ffffffffffffffffffffffffffffffffffffffff1673ffffffffffffffffffffffffffffffffffffffff1673ffffffffffffffffffffffffffffffffffffffff1681526020016001820180546129da90613daf565b80601f0160208091040260200160405190810160405280929190818152602001828054612a0690613daf565b8015612a535780601f10612a2857610100808354040283529160200191612a53565b820191906000526020600020905b815481529060010190602001808311612a3657829003601f168201915b50505050508152602001600282018054612a6c90613daf565b80601f0160208091040260200160405190810160405280929190818152602001828054612a9890613daf565b8015612ae55780601f10612aba57610100808354040283529160200191612ae5565b820191906000526020600020905b815481529060010190602001808311612ac857829003601f168201915b50505050508152602001600382018054612afe90613daf565b80601f0160208091040260200160405190810160405280929190818152602001828054612b2a90613daf565b8015612b775780601f10612b4c57610100808354040283529160200191612b77565b820191906000526020600020905b815481529060010190602001808311612b5a57829003601f168201915b50505050508152602001600482018054612b9090613daf565b80601f0160208091040260200160405190810160405280929190818152602001828054612bbc90613daf565b8015612c095780601f10612bde57610100808354040283529160200191612c09565b820191906000526020600020905b815481529060010190602001808311612bec57829003601f168201915b50505050508152505090508273ffffffffffffffffffffffffffffffffffffffff16816000015173ffffffffffffffffffffffffffffffffffffffff1603612c5057600191505b600060405180610160016040528060025481526020013373ffffffffffffffffffffffffffffffffffffffff168152602001428152602001888152602001878152602001888152602001868152602001600081526020018573ffffffffffffffffffffffffffffffffffffffff1681526020018415158152602001838152509050806003600060025481526020019081526020016000206000820151816000015560208201518160010160006101000a81548173ffffffffffffffffffffffffffffffffffffffff021916908373ffffffffffffffffffffffffffffffffffffffff16021790555060408201518160020155606082015181600301556080820151816004015560a0820151816005015560c0820151816006015560e082015181600701556101008201518160080160006101000a81548173ffffffffffffffffffffffffffffffffffffffff021916908373ffffffffffffffffffffffffffffffffffffffff1602179055506101208201518160080160146101000a81548160ff0219169083151502179055506101408201518160090160008201518160000160006101000a81548173ffffffffffffffffffffffffffffffffffffffff021916908373ffffffffffffffffffffffffffffffffffffffff1602179055506020820151816001019080519060200190612e4a92919061329b565b506040820151816002019080519060200190612e6792919061329b565b506060820151816003019080519060200190612e8492919061329b565b506080820151816004019080519060200190612ea192919061329b565b50505090505060048190806001815401808255809150506001900390600052602060002090600e02016000909190919091506000820151816000015560208201518160010160006101000a81548173ffffffffffffffffffffffffffffffffffffffff021916908373ffffffffffffffffffffffffffffffffffffffff16021790555060408201518160020155606082015181600301556080820151816004015560a0820151816005015560c0820151816006015560e082015181600701556101008201518160080160006101000a81548173ffffffffffffffffffffffffffffffffffffffff021916908373ffffffffffffffffffffffffffffffffffffffff1602179055506101208201518160080160146101000a81548160ff0219169083151502179055506101408201518160090160008201518160000160006101000a81548173ffffffffffffffffffffffffffffffffffffffff021916908373ffffffffffffffffffffffffffffffffffffffff160217905550602082015181600101908051906020019061303692919061329b565b50604082015181600201908051906020019061305392919061329b565b50606082015181600301908051906020019061307092919061329b565b50608082015181600401908051906020019061308d92919061329b565b50505050508660056000600254815260200190815260200160002060003373ffffffffffffffffffffffffffffffffffffffff1673ffffffffffffffffffffffffffffffffffffffff16815260200190815260200160002081905550600260008154809291906130fc90614627565b91905055507f9bf87e930f9c704058ff1ccbbe66d9516049c58ff2ad6f407f6a0567be5dbf19816040516131309190613756565b60405180910390a150505050505050565b600033905090565b60008060009054906101000a900473ffffffffffffffffffffffffffffffffffffffff169050816000806101000a81548173ffffffffffffffffffffffffffffffffffffffff021916908373ffffffffffffffffffffffffffffffffffffffff1602179055508173ffffffffffffffffffffffffffffffffffffffff168173ffffffffffffffffffffffffffffffffffffffff167f8be0079c531659141344cd1fd0a4f28419497f9722a3daafe3b4186f6b6457e060405160405180910390a35050565b60405180610160016040528060008152602001600073ffffffffffffffffffffffffffffffffffffffff168152602001600081526020016000815260200160008152602001600081526020016000815260200160008152602001600073ffffffffffffffffffffffffffffffffffffffff168152602001600015158152602001613295613321565b81525090565b8280546132a790613daf565b90600052602060002090601f0160209004810192826132c95760008555613310565b82601f106132e257805160ff1916838001178555613310565b82800160010185558215613310579182015b8281111561330f5782518255916020019190600101906132f4565b5b50905061331d9190613366565b5090565b6040518060a00160405280600073ffffffffffffffffffffffffffffffffffffffff168152602001606081526020016060815260200160608152602001606081525090565b5b8082111561337f576000816000905550600101613367565b5090565b600080fd5b600080fd5b6000819050919050565b6133a08161338d565b81146133ab57600080fd5b50565b6000813590506133bd81613397565b92915050565b600073ffffffffffffffffffffffffffffffffffffffff82169050919050565b60006133ee826133c3565b9050919050565b6133fe816133e3565b811461340957600080fd5b50565b60008135905061341b816133f5565b92915050565b6000806040838503121561343857613437613383565b5b6000613446858286016133ae565b92505060206134578582860161340c565b9150509250929050565b6000806040838503121561347857613477613383565b5b6000613486858286016133ae565b9250506020613497858286016133ae565b9150509250929050565b60006134ac826133c3565b9050919050565b6134bc816134a1565b82525050565b60006020820190506134d760008301846134b3565b92915050565b6000602082840312156134f3576134f2613383565b5b6000613501848285016133ae565b91505092915050565b6135138161338d565b82525050565b613522816134a1565b82525050565b60008115159050919050565b61353d81613528565b82525050565b600081519050919050565b600082825260208201905092915050565b60005b8381101561357d578082015181840152602081019050613562565b8381111561358c576000848401525b50505050565b6000601f19601f8301169050919050565b60006135ae82613543565b6135b8818561354e565b93506135c881856020860161355f565b6135d181613592565b840191505092915050565b600060a0830160008301516135f46000860182613519565b506020830151848203602086015261360c82826135a3565b9150506040830151848203604086015261362682826135a3565b9150506060830151848203606086015261364082826135a3565b9150506080830151848203608086015261365a82826135a3565b9150508091505092915050565b600061016083016000830151613680600086018261350a565b5060208301516136936020860182613519565b5060408301516136a6604086018261350a565b5060608301516136b9606086018261350a565b5060808301516136cc608086018261350a565b5060a08301516136df60a086018261350a565b5060c08301516136f260c086018261350a565b5060e083015161370560e086018261350a565b5061010083015161371a610100860182613519565b5061012083015161372f610120860182613534565b5061014083015184820361014086015261374982826135dc565b9150508091505092915050565b600060208201905081810360008301526137708184613667565b905092915050565b613781816134a1565b811461378c57600080fd5b50565b60008135905061379e81613778565b92915050565b6000602082840312156137ba576137b9613383565b5b60006137c88482850161378f565b91505092915050565b600082825260208201905092915050565b60006137ed82613543565b6137f781856137d1565b935061380781856020860161355f565b61381081613592565b840191505092915050565b600060a08201905061383060008301886134b3565b818103602083015261384281876137e2565b9050818103604083015261385681866137e2565b9050818103606083015261386a81856137e2565b9050818103608083015261387e81846137e2565b90509695505050505050565b6138938161338d565b82525050565b6138a281613528565b82525050565b600060a0830160008301516138c06000860182613519565b50602083015184820360208601526138d882826135a3565b915050604083015184820360408601526138f282826135a3565b9150506060830151848203606086015261390c82826135a3565b9150506080830151848203608086015261392682826135a3565b9150508091505092915050565b600061016082019050613949600083018e61388a565b613956602083018d6134b3565b613963604083018c61388a565b613970606083018b61388a565b61397d608083018a61388a565b61398a60a083018961388a565b61399760c083018861388a565b6139a460e083018761388a565b6139b26101008301866134b3565b6139c0610120830185613899565b8181036101408301526139d381846138a8565b90509c9b505050505050505050505050565b600080fd5b600080fd5b600080fd5b60008083601f840112613a0a57613a096139e5565b5b8235905067ffffffffffffffff811115613a2757613a266139ea565b5b602083019150836001820283011115613a4357613a426139ef565b5b9250929050565b600080600080600080600080600060a08a8c031215613a6c57613a6b613383565b5b60008a013567ffffffffffffffff811115613a8a57613a89613388565b5b613a968c828d016139f4565b995099505060208a013567ffffffffffffffff811115613ab957613ab8613388565b5b613ac58c828d016139f4565b975097505060408a013567ffffffffffffffff811115613ae857613ae7613388565b5b613af48c828d016139f4565b955095505060608a013567ffffffffffffffff811115613b1757613b16613388565b5b613b238c828d016139f4565b93509350506080613b368c828d0161378f565b9150509295985092959850929598565b600081519050919050565b600082825260208201905092915050565b6000819050602082019050919050565b600061016083016000830151613b8b600086018261350a565b506020830151613b9e6020860182613519565b506040830151613bb1604086018261350a565b506060830151613bc4606086018261350a565b506080830151613bd7608086018261350a565b5060a0830151613bea60a086018261350a565b5060c0830151613bfd60c086018261350a565b5060e0830151613c1060e086018261350a565b50610100830151613c25610100860182613519565b50610120830151613c3a610120860182613534565b50610140830151848203610140860152613c5482826135dc565b9150508091505092915050565b6000613c6d8383613b72565b905092915050565b6000602082019050919050565b6000613c8d82613b46565b613c978185613b51565b935083602082028501613ca985613b62565b8060005b85811015613ce55784840389528151613cc68582613c61565b9450613cd183613c75565b925060208a01995050600181019050613cad565b50829750879550505050505092915050565b60006020820190508181036000830152613d118184613c82565b905092915050565b60008060008060808587031215613d3357613d32613383565b5b6000613d41878288016133ae565b9450506020613d52878288016133ae565b9350506040613d63878288016133ae565b9250506060613d748782880161378f565b91505092959194509250565b7f4e487b7100000000000000000000000000000000000000000000000000000000600052602260045260246000fd5b60006002820490506001821680613dc757607f821691505b602082108103613dda57613dd9613d80565b5b50919050565b7f506c6564676520686173206e6f7420656e646564000000000000000000000000600082015250565b6000613e166014836137d1565b9150613e2182613de0565b602082019050919050565b60006020820190508181036000830152613e4581613e09565b9050919050565b7f53656e646572206d757374206265207468652061646472657373206f6620746860008201527f652062656e656669636961727900000000000000000000000000000000000000602082015250565b6000613ea8602d836137d1565b9150613eb382613e4c565b604082019050919050565b60006020820190508181036000830152613ed781613e9b565b9050919050565b6000606082019050613ef3600083018661388a565b613f0060208301856134b3565b613f0d604083018461388a565b949350505050565b7f416d6f756e74206d7573742062652067726561746572207468616e2030000000600082015250565b6000613f4b601d836137d1565b9150613f5682613f15565b602082019050919050565b60006020820190508181036000830152613f7a81613f3e565b9050919050565b7f506c656467652068617320656e64656400000000000000000000000000000000600082015250565b6000613fb76010836137d1565b9150613fc282613f81565b602082019050919050565b60006020820190508181036000830152613fe681613faa565b9050919050565b7f4e487b7100000000000000000000000000000000000000000000000000000000600052601160045260246000fd5b60006140278261338d565b91506140328361338d565b9250827fffffffffffffffffffffffffffffffffffffffffffffffffffffffffffffffff0382111561406757614066613fed565b5b828201905092915050565b7f4f776e61626c653a2063616c6c6572206973206e6f7420746865206f776e6572600082015250565b60006140a86020836137d1565b91506140b382614072565b602082019050919050565b600060208201905081810360008301526140d78161409b565b9050919050565b7f43686172697479206e616d65206973206120726571756972656420706172616d600082015250565b60006141146020836137d1565b915061411f826140de565b602082019050919050565b6000602082019050818103600083015261414381614107565b9050919050565b7f576562736974652055524c206973206120726571756972656420706172616d00600082015250565b6000614180601f836137d1565b915061418b8261414a565b602082019050919050565b600060208201905081810360008301526141af81614173565b9050919050565b7f4164647265737320697320726571756972656400000000000000000000000000600082015250565b60006141ec6013836137d1565b91506141f7826141b6565b602082019050919050565b6000602082019050818103600083015261421b816141df565b9050919050565b82818337600083830152505050565b600061423d83856137d1565b935061424a838584614222565b61425383613592565b840190509392505050565b6000608082019050614273600083018a6134b3565b818103602083015261428681888a614231565b9050818103604083015261429b818688614231565b905081810360608301526142b0818486614231565b905098975050505050505050565b7f506c656467652068617320616c726561647920656e6465640000000000000000600082015250565b60006142f46018836137d1565b91506142ff826142be565b602082019050919050565b60006020820190508181036000830152614323816142e7565b9050919050565b7f506c6564676520686173206e6f7420656e646564207965740000000000000000600082015250565b60006143606018836137d1565b915061436b8261432a565b602082019050919050565b6000602082019050818103600083015261438f81614353565b9050919050565b60006040820190506143ab600083018561388a565b6143b8602083018461388a565b9392505050565b7f4f776e61626c653a206e6577206f776e657220697320746865207a65726f206160008201527f6464726573730000000000000000000000000000000000000000000000000000602082015250565b600061441b6026836137d1565b9150614426826143bf565b604082019050919050565b6000602082019050818103600083015261444a8161440e565b9050919050565b7f506c65646765206d7573742062652067726561746572207468616e2030000000600082015250565b6000614487601d836137d1565b915061449282614451565b602082019050919050565b600060208201905081810360008301526144b68161447a565b9050919050565b7f476f616c20616d6f756e74206d7573742062652067726561746572207468616e60008201527f2074686520696e697469616c20706c6564676500000000000000000000000000602082015250565b60006145196033836137d1565b9150614524826144bd565b604082019050919050565b600060208201905081810360008301526145488161450c565b9050919050565b7f4475726174696f6e206d757374206265206174206c65617374203120686f7572600082015250565b60006145856020836137d1565b91506145908261454f565b602082019050919050565b600060208201905081810360008301526145b481614578565b9050919050565b7f4368617269747920616464726573732063616e6e6f7420626520300000000000600082015250565b60006145f1601b836137d1565b91506145fc826145bb565b602082019050919050565b60006020820190508181036000830152614620816145e4565b9050919050565b60006146328261338d565b91507fffffffffffffffffffffffffffffffffffffffffffffffffffffffffffffffff820361466457614663613fed565b5b60018201905091905056fea26469706673582212202066b256219ee128481635053cc6857d649fe1e5666aba73638e28cfbaba158e64736f6c634300080e0033",
  "immutableReferences": {},
  "source": "// SPDX-License-Identifier: MIT\npragma solidity 0.8.14;\n\nimport \"@openzeppelin/contracts/access/Ownable.sol\";\n\ncontract Hakuai is Ownable {\n\n  address _owner;\n  \n  struct Charity {\n    address addr;\n    string name;\n    string description;\n    string websiteUrl;\n    string imageUrl;\n  }\n  struct Pledge {\n    uint256 id;\n    address creator;\n    uint256 createdAt;\n    uint256 initialPledge;\n    uint256 goalAmount;\n    uint256 raisedAmount;\n    uint256 duration;\n    uint256 endedAt;\n    address charityAddress;\n    bool isVerified;\n    Charity charity;\n  }\n\n\n  uint256 pledgeCounter = 1;\n  // uint256 totalRaised = 0;\n  mapping (uint256 => Pledge) public pledges;\n  Pledge[] pledgeArray;\n  // mapping (address => Pledge[] memory) pledgesContributedTo;\n\n  // Pledge id => (address => amount contributed)\n  mapping (uint256 => mapping (address => uint256)) pledgeContributions;\n  mapping (address => Charity) public verifiedCharities;\n\n  event PledgeCreated(Pledge pledge);\n  event PledgeContribution(uint256 pledgeId, address contributor, uint256 amount);\n  event PledgeEnded(uint256 pledgeId, uint256 timestamp);\n  event Withdrawal(uint256 pledgeId, address contributor, uint256 amount);\n  event CharityCreated(address addr, string name, string websiteUrl, string imageUrl);\n\n\n  constructor () {\n    _owner = msg.sender;\n  }\n\n  function createPledge(uint256 initialPledge, uint256 goalAmount, uint256 duration, address charityAddress) public payable {\n    require(initialPledge == msg.value && msg.value > 0, \"Pledge must be greater than 0\");\n    require(goalAmount > initialPledge, \"Goal amount must be greater than the initial pledge\");\n    require(duration >= 3600000, \"Duration must be at least 1 hour\");\n    require(charityAddress != address(0), \"Charity address cannot be 0\");\n\n    bool isVerified = false;\n    Charity memory charity = verifiedCharities[charityAddress];\n    if (charity.addr == charityAddress) {\n      isVerified = true;\n    }\n\n    Pledge memory pledge = Pledge(\n      pledgeCounter,\n      msg.sender,\n      block.timestamp,\n      initialPledge,\n      goalAmount,\n      initialPledge,\n      duration,\n      0,\n      charityAddress,\n      isVerified,\n      charity\n    );\n    pledges[pledgeCounter] = pledge;\n    pledgeArray.push(pledge);\n\n    pledgeContributions[pledgeCounter][msg.sender] = initialPledge;\n\n    pledgeCounter++;\n\n    emit PledgeCreated(pledge);\n  }\n\n  function getPledge(uint256 pledge) public view returns (Pledge memory) {\n    return pledges[pledge];\n  }\n\n  function getPledges() public view returns (Pledge[] memory) {\n    return pledgeArray;\n  }\n\n  function contributeToPledge(uint256 pledgeId, uint256 amount) public payable {\n    require(amount == msg.value && msg.value > 0, \"Amount must be greater than 0\");\n\n    Pledge memory pledge = pledges[pledgeId];\n\n    // require(pledge != 0, \"Pledge does not exist\");\n    require(pledge.endedAt == 0, \"Pledge has ended\");\n\n    pledge.raisedAmount += amount;\n\n    pledgeContributions[pledgeId][msg.sender] += amount;\n\n    emit PledgeContribution(pledgeId, msg.sender, amount);\n  }\n\n  function endPledge(uint256 pledgeId) public {\n    Pledge memory pledge = pledges[pledgeId];\n\n    // require(pledge != 0, \"Pledge does not exist\");\n    require(pledge.endedAt == 0, \"Pledge has already ended\");\n    require(block.timestamp >= pledge.createdAt + pledge.duration, \"Pledge has not ended yet\");\n    // require(pledge.raisedAmount >= pledge.goalAmount, \"Pledge has not reached goal amount\");\n\n    pledge.endedAt = block.timestamp;\n    pledges[pledgeId] = pledge;\n\n    emit PledgeEnded(pledgeId, block.timestamp);\n  }\n\n  function withdraw(uint256 pledgeId, address payable addr) public {\n    Pledge memory pledge = pledges[pledgeId];\n    // require(pledge != 0, \"Pledge does not exist\");\n    require(pledge.endedAt != 0, \"Pledge has not ended\");\n    require(msg.sender == addr, \"Sender must be the address of the beneficiary\");\n\n    uint256 contributed = pledgeContributions[pledgeId][msg.sender];\n    pledgeContributions[pledgeId][msg.sender] = 0;\n    addr.transfer(contributed);\n\n    emit Withdrawal(pledgeId, msg.sender, contributed);\n  }\n\n  function createVerifiedCharity(string calldata name, string calldata description,\n      string calldata websiteUrl, string calldata imageUrl, address addr) public onlyOwner {\n\n    require(bytes(name).length > 0, \"Charity name is a required param\");\n    require(bytes(websiteUrl).length > 0, \"Website URL is a required param\");\n    require(addr != address(0), \"Address is required\");\n\n    Charity memory charity = Charity(\n      addr,\n      name,\n      description,\n      websiteUrl,\n      imageUrl\n    );\n    verifiedCharities[addr] = charity;\n\n    emit CharityCreated(addr, name, websiteUrl, imageUrl);\n  }\n\n}\n",
  "sourcePath": "/Users/chrisschnabel/projects/ethereum/shanghai-hackathon/truffle/contracts/Hakuai.sol",
  "compiler": {
    "name": "solc",
    "version": "0.8.14+commit.80d49f37.Emscripten.clang"
  },
  "schemaVersion": "3.4.7",
  "updatedAt": "2022-05-30T18:27:52.112Z",
  "devdoc": {
    "kind": "dev",
    "methods": {
      "owner()": {
        "details": "Returns the address of the current owner."
      },
      "renounceOwnership()": {
        "details": "Leaves the contract without owner. It will not be possible to call `onlyOwner` functions anymore. Can only be called by the current owner. NOTE: Renouncing ownership will leave the contract without an owner, thereby removing any functionality that is only available to the owner."
      },
      "transferOwnership(address)": {
        "details": "Transfers ownership of the contract to a new account (`newOwner`). Can only be called by the current owner."
      }
    },
    "version": 1
  },
  "userdoc": {
    "kind": "user",
    "methods": {},
    "version": 1
  }
}