{
  "contractName": "Hakuai",
  "abi": [
    {
      "inputs": [],
      "stateMutability": "nonpayable",
      "type": "constructor"
    },
    {
      "anonymous": false,
      "inputs": [
        {
          "indexed": false,
          "internalType": "address",
          "name": "addr",
          "type": "address"
        },
        {
          "indexed": false,
          "internalType": "string",
          "name": "name",
          "type": "string"
        },
        {
          "indexed": false,
          "internalType": "string",
          "name": "websiteUrl",
          "type": "string"
        },
        {
          "indexed": false,
          "internalType": "string",
          "name": "imageUrl",
          "type": "string"
        }
      ],
      "name": "CharityCreated",
      "type": "event"
    },
    {
      "anonymous": false,
      "inputs": [
        {
          "indexed": true,
          "internalType": "address",
          "name": "previousOwner",
          "type": "address"
        },
        {
          "indexed": true,
          "internalType": "address",
          "name": "newOwner",
          "type": "address"
        }
      ],
      "name": "OwnershipTransferred",
      "type": "event"
    },
    {
      "anonymous": false,
      "inputs": [
        {
          "indexed": false,
          "internalType": "uint256",
          "name": "pledgeId",
          "type": "uint256"
        },
        {
          "indexed": false,
          "internalType": "address",
          "name": "contributor",
          "type": "address"
        },
        {
          "indexed": false,
          "internalType": "uint256",
          "name": "amount",
          "type": "uint256"
        }
      ],
      "name": "PledgeContribution",
      "type": "event"
    },
    {
      "anonymous": false,
      "inputs": [
        {
          "components": [
            {
              "internalType": "uint256",
              "name": "id",
              "type": "uint256"
            },
            {
              "internalType": "address",
              "name": "creator",
              "type": "address"
            },
            {
              "internalType": "uint256",
              "name": "createdAt",
              "type": "uint256"
            },
            {
              "internalType": "uint256",
              "name": "initialPledge",
              "type": "uint256"
            },
            {
              "internalType": "uint256",
              "name": "goalAmount",
              "type": "uint256"
            },
            {
              "internalType": "uint256",
              "name": "raisedAmount",
              "type": "uint256"
            },
            {
              "internalType": "uint256",
              "name": "duration",
              "type": "uint256"
            },
            {
              "internalType": "uint256",
              "name": "endedAt",
              "type": "uint256"
            },
            {
              "internalType": "address",
              "name": "charityAddress",
              "type": "address"
            },
            {
              "internalType": "bool",
              "name": "isVerified",
              "type": "bool"
            },
            {
              "components": [
                {
                  "internalType": "address",
                  "name": "addr",
                  "type": "address"
                },
                {
                  "internalType": "string",
                  "name": "name",
                  "type": "string"
                },
                {
                  "internalType": "string",
                  "name": "description",
                  "type": "string"
                },
                {
                  "internalType": "string",
                  "name": "websiteUrl",
                  "type": "string"
                },
                {
                  "internalType": "string",
                  "name": "imageUrl",
                  "type": "string"
                }
              ],
              "internalType": "struct Hakuai.Charity",
              "name": "charity",
              "type": "tuple"
            }
          ],
          "indexed": false,
          "internalType": "struct Hakuai.Pledge",
          "name": "pledge",
          "type": "tuple"
        }
      ],
      "name": "PledgeCreated",
      "type": "event"
    },
    {
      "anonymous": false,
      "inputs": [
        {
          "indexed": false,
          "internalType": "uint256",
          "name": "pledgeId",
          "type": "uint256"
        },
        {
          "indexed": false,
          "internalType": "uint256",
          "name": "timestamp",
          "type": "uint256"
        }
      ],
      "name": "PledgeEnded",
      "type": "event"
    },
    {
      "anonymous": false,
      "inputs": [
        {
          "indexed": false,
          "internalType": "uint256",
          "name": "pledgeId",
          "type": "uint256"
        },
        {
          "indexed": false,
          "internalType": "address",
          "name": "contributor",
          "type": "address"
        },
        {
          "indexed": false,
          "internalType": "uint256",
          "name": "amount",
          "type": "uint256"
        }
      ],
      "name": "Withdrawal",
      "type": "event"
    },
    {
      "inputs": [],
      "name": "owner",
      "outputs": [
        {
          "internalType": "address",
          "name": "",
          "type": "address"
        }
      ],
      "stateMutability": "view",
      "type": "function",
      "constant": true
    },
    {
      "inputs": [
        {
          "internalType": "uint256",
          "name": "",
          "type": "uint256"
        }
      ],
      "name": "pledges",
      "outputs": [
        {
          "internalType": "uint256",
          "name": "id",
          "type": "uint256"
        },
        {
          "internalType": "address",
          "name": "creator",
          "type": "address"
        },
        {
          "internalType": "uint256",
          "name": "createdAt",
          "type": "uint256"
        },
        {
          "internalType": "uint256",
          "name": "initialPledge",
          "type": "uint256"
        },
        {
          "internalType": "uint256",
          "name": "goalAmount",
          "type": "uint256"
        },
        {
          "internalType": "uint256",
          "name": "raisedAmount",
          "type": "uint256"
        },
        {
          "internalType": "uint256",
          "name": "duration",
          "type": "uint256"
        },
        {
          "internalType": "uint256",
          "name": "endedAt",
          "type": "uint256"
        },
        {
          "internalType": "address",
          "name": "charityAddress",
          "type": "address"
        },
        {
          "internalType": "bool",
          "name": "isVerified",
          "type": "bool"
        },
        {
          "components": [
            {
              "internalType": "address",
              "name": "addr",
              "type": "address"
            },
            {
              "internalType": "string",
              "name": "name",
              "type": "string"
            },
            {
              "internalType": "string",
              "name": "description",
              "type": "string"
            },
            {
              "internalType": "string",
              "name": "websiteUrl",
              "type": "string"
            },
            {
              "internalType": "string",
              "name": "imageUrl",
              "type": "string"
            }
          ],
          "internalType": "struct Hakuai.Charity",
          "name": "charity",
          "type": "tuple"
        }
      ],
      "stateMutability": "view",
      "type": "function",
      "constant": true
    },
    {
      "inputs": [
        {
          "internalType": "address",
          "name": "",
          "type": "address"
        },
        {
          "internalType": "uint256",
          "name": "",
          "type": "uint256"
        }
      ],
      "name": "pledgesContributedTo",
      "outputs": [
        {
          "internalType": "uint256",
          "name": "",
          "type": "uint256"
        }
      ],
      "stateMutability": "view",
      "type": "function",
      "constant": true
    },
    {
      "inputs": [],
      "name": "renounceOwnership",
      "outputs": [],
      "stateMutability": "nonpayable",
      "type": "function"
    },
    {
      "inputs": [],
      "name": "totalClaimedByCharities",
      "outputs": [
        {
          "internalType": "uint256",
          "name": "",
          "type": "uint256"
        }
      ],
      "stateMutability": "view",
      "type": "function",
      "constant": true
    },
    {
      "inputs": [
        {
          "internalType": "address",
          "name": "newOwner",
          "type": "address"
        }
      ],
      "name": "transferOwnership",
      "outputs": [],
      "stateMutability": "nonpayable",
      "type": "function"
    },
    {
      "inputs": [
        {
          "internalType": "address",
          "name": "",
          "type": "address"
        }
      ],
      "name": "verifiedCharities",
      "outputs": [
        {
          "internalType": "address",
          "name": "addr",
          "type": "address"
        },
        {
          "internalType": "string",
          "name": "name",
          "type": "string"
        },
        {
          "internalType": "string",
          "name": "description",
          "type": "string"
        },
        {
          "internalType": "string",
          "name": "websiteUrl",
          "type": "string"
        },
        {
          "internalType": "string",
          "name": "imageUrl",
          "type": "string"
        }
      ],
      "stateMutability": "view",
      "type": "function",
      "constant": true
    },
    {
      "inputs": [
        {
          "internalType": "uint256",
          "name": "initialPledge",
          "type": "uint256"
        },
        {
          "internalType": "uint256",
          "name": "goalAmount",
          "type": "uint256"
        },
        {
          "internalType": "uint256",
          "name": "duration",
          "type": "uint256"
        },
        {
          "internalType": "address",
          "name": "charityAddress",
          "type": "address"
        }
      ],
      "name": "createPledge",
      "outputs": [],
      "stateMutability": "payable",
      "type": "function",
      "payable": true
    },
    {
      "inputs": [
        {
          "internalType": "uint256",
          "name": "pledge",
          "type": "uint256"
        }
      ],
      "name": "getPledge",
      "outputs": [
        {
          "components": [
            {
              "internalType": "uint256",
              "name": "id",
              "type": "uint256"
            },
            {
              "internalType": "address",
              "name": "creator",
              "type": "address"
            },
            {
              "internalType": "uint256",
              "name": "createdAt",
              "type": "uint256"
            },
            {
              "internalType": "uint256",
              "name": "initialPledge",
              "type": "uint256"
            },
            {
              "internalType": "uint256",
              "name": "goalAmount",
              "type": "uint256"
            },
            {
              "internalType": "uint256",
              "name": "raisedAmount",
              "type": "uint256"
            },
            {
              "internalType": "uint256",
              "name": "duration",
              "type": "uint256"
            },
            {
              "internalType": "uint256",
              "name": "endedAt",
              "type": "uint256"
            },
            {
              "internalType": "address",
              "name": "charityAddress",
              "type": "address"
            },
            {
              "internalType": "bool",
              "name": "isVerified",
              "type": "bool"
            },
            {
              "components": [
                {
                  "internalType": "address",
                  "name": "addr",
                  "type": "address"
                },
                {
                  "internalType": "string",
                  "name": "name",
                  "type": "string"
                },
                {
                  "internalType": "string",
                  "name": "description",
                  "type": "string"
                },
                {
                  "internalType": "string",
                  "name": "websiteUrl",
                  "type": "string"
                },
                {
                  "internalType": "string",
                  "name": "imageUrl",
                  "type": "string"
                }
              ],
              "internalType": "struct Hakuai.Charity",
              "name": "charity",
              "type": "tuple"
            }
          ],
          "internalType": "struct Hakuai.Pledge",
          "name": "",
          "type": "tuple"
        }
      ],
      "stateMutability": "view",
      "type": "function",
      "constant": true
    },
    {
      "inputs": [],
      "name": "getPledges",
      "outputs": [
        {
          "components": [
            {
              "internalType": "uint256",
              "name": "id",
              "type": "uint256"
            },
            {
              "internalType": "address",
              "name": "creator",
              "type": "address"
            },
            {
              "internalType": "uint256",
              "name": "createdAt",
              "type": "uint256"
            },
            {
              "internalType": "uint256",
              "name": "initialPledge",
              "type": "uint256"
            },
            {
              "internalType": "uint256",
              "name": "goalAmount",
              "type": "uint256"
            },
            {
              "internalType": "uint256",
              "name": "raisedAmount",
              "type": "uint256"
            },
            {
              "internalType": "uint256",
              "name": "duration",
              "type": "uint256"
            },
            {
              "internalType": "uint256",
              "name": "endedAt",
              "type": "uint256"
            },
            {
              "internalType": "address",
              "name": "charityAddress",
              "type": "address"
            },
            {
              "internalType": "bool",
              "name": "isVerified",
              "type": "bool"
            },
            {
              "components": [
                {
                  "internalType": "address",
                  "name": "addr",
                  "type": "address"
                },
                {
                  "internalType": "string",
                  "name": "name",
                  "type": "string"
                },
                {
                  "internalType": "string",
                  "name": "description",
                  "type": "string"
                },
                {
                  "internalType": "string",
                  "name": "websiteUrl",
                  "type": "string"
                },
                {
                  "internalType": "string",
                  "name": "imageUrl",
                  "type": "string"
                }
              ],
              "internalType": "struct Hakuai.Charity",
              "name": "charity",
              "type": "tuple"
            }
          ],
          "internalType": "struct Hakuai.Pledge[]",
          "name": "",
          "type": "tuple[]"
        }
      ],
      "stateMutability": "view",
      "type": "function",
      "constant": true
    },
    {
      "inputs": [
        {
          "internalType": "uint256",
          "name": "pledgeId",
          "type": "uint256"
        },
        {
          "internalType": "uint256",
          "name": "amount",
          "type": "uint256"
        }
      ],
      "name": "contributeToPledge",
      "outputs": [],
      "stateMutability": "payable",
      "type": "function",
      "payable": true
    },
    {
      "inputs": [
        {
          "internalType": "uint256",
          "name": "pledgeId",
          "type": "uint256"
        }
      ],
      "name": "howMuchDidIContribute",
      "outputs": [
        {
          "internalType": "uint256",
          "name": "",
          "type": "uint256"
        }
      ],
      "stateMutability": "view",
      "type": "function",
      "constant": true
    },
    {
      "inputs": [
        {
          "internalType": "uint256",
          "name": "pledgeId",
          "type": "uint256"
        }
      ],
      "name": "endPledge",
      "outputs": [],
      "stateMutability": "nonpayable",
      "type": "function"
    },
    {
      "inputs": [
        {
          "internalType": "uint256",
          "name": "pledgeId",
          "type": "uint256"
        },
        {
          "internalType": "address payable",
          "name": "addr",
          "type": "address"
        }
      ],
      "name": "withdraw",
      "outputs": [],
      "stateMutability": "nonpayable",
      "type": "function"
    },
    {
      "inputs": [
        {
          "internalType": "uint256",
          "name": "pledgeId",
          "type": "uint256"
        }
      ],
      "name": "withdrawForCharity",
      "outputs": [],
      "stateMutability": "nonpayable",
      "type": "function"
    },
    {
      "inputs": [
        {
          "internalType": "string",
          "name": "name",
          "type": "string"
        },
        {
          "internalType": "string",
          "name": "description",
          "type": "string"
        },
        {
          "internalType": "string",
          "name": "websiteUrl",
          "type": "string"
        },
        {
          "internalType": "string",
          "name": "imageUrl",
          "type": "string"
        },
        {
          "internalType": "address",
          "name": "addr",
          "type": "address"
        }
      ],
      "name": "createVerifiedCharity",
      "outputs": [],
      "stateMutability": "nonpayable",
      "type": "function"
    },
    {
      "inputs": [
        {
          "internalType": "address",
          "name": "addr",
          "type": "address"
        }
      ],
      "name": "getVerifiedCharity",
      "outputs": [
        {
          "components": [
            {
              "internalType": "address",
              "name": "addr",
              "type": "address"
            },
            {
              "internalType": "string",
              "name": "name",
              "type": "string"
            },
            {
              "internalType": "string",
              "name": "description",
              "type": "string"
            },
            {
              "internalType": "string",
              "name": "websiteUrl",
              "type": "string"
            },
            {
              "internalType": "string",
              "name": "imageUrl",
              "type": "string"
            }
          ],
          "internalType": "struct Hakuai.Charity",
          "name": "",
          "type": "tuple"
        }
      ],
      "stateMutability": "view",
      "type": "function",
      "constant": true
    },
    {
      "inputs": [],
      "name": "getVerifiedCharities",
      "outputs": [
        {
          "components": [
            {
              "internalType": "address",
              "name": "addr",
              "type": "address"
            },
            {
              "internalType": "string",
              "name": "name",
              "type": "string"
            },
            {
              "internalType": "string",
              "name": "description",
              "type": "string"
            },
            {
              "internalType": "string",
              "name": "websiteUrl",
              "type": "string"
            },
            {
              "internalType": "string",
              "name": "imageUrl",
              "type": "string"
            }
          ],
          "internalType": "struct Hakuai.Charity[]",
          "name": "",
          "type": "tuple[]"
        }
      ],
      "stateMutability": "view",
      "type": "function",
      "constant": true
    }
  ],
  "bytecode": "0x6080604052600160025560006003553480156200001b57600080fd5b506200003c620000306200008360201b60201c565b6200008b60201b60201c565b33600160006101000a81548173ffffffffffffffffffffffffffffffffffffffff021916908373ffffffffffffffffffffffffffffffffffffffff1602179055506200014f565b600033905090565b60008060009054906101000a900473ffffffffffffffffffffffffffffffffffffffff169050816000806101000a81548173ffffffffffffffffffffffffffffffffffffffff021916908373ffffffffffffffffffffffffffffffffffffffff1602179055508173ffffffffffffffffffffffffffffffffffffffff168173ffffffffffffffffffffffffffffffffffffffff167f8be0079c531659141344cd1fd0a4f28419497f9722a3daafe3b4186f6b6457e060405160405180910390a35050565b615162806200015f6000396000f3fe6080604052600436106101085760003560e01c8063ac12408111610095578063dfef24f511610064578063dfef24f51461038f578063ee5b3e96146103ba578063f1f71654146103e3578063f2fde38b1461040c578063f9727d9c1461043557610108565b8063ac124081146102b7578063b3524cfa146102fe578063c94302691461033b578063d938fc311461036657610108565b80633f221f79116100dc5780633f221f79146101db578063715018a6146101f75780638da5cb5b1461020e57806390c4ce5214610239578063a3c821a71461027657610108565b8062f714ce1461010d5780631d57d4aa146101365780632f419af214610173578063308537c81461019e575b600080fd5b34801561011957600080fd5b50610134600480360381019061012f9190613b64565b610451565b005b34801561014257600080fd5b5061015d60048036038101906101589190613ba4565b610ad9565b60405161016a9190613be0565b60405180910390f35b34801561017f57600080fd5b50610188610b33565b6040516101959190613e02565b60405180910390f35b3480156101aa57600080fd5b506101c560048036038101906101c09190613e50565b610e30565b6040516101d29190613be0565b60405180910390f35b6101f560048036038101906101f09190613e90565b610e61565b005b34801561020357600080fd5b5061020c611110565b005b34801561021a57600080fd5b50610223611198565b6040516102309190613edf565b60405180910390f35b34801561024557600080fd5b50610260600480360381019061025b9190613ba4565b6111c1565b60405161026d9190614013565b60405180910390f35b34801561028257600080fd5b5061029d60048036038101906102989190614035565b6115ae565b6040516102ae9594939291906140ac565b60405180910390f35b3480156102c357600080fd5b506102de60048036038101906102d99190613ba4565b611824565b6040516102f59b9a999897969594939291906141b5565b60405180910390f35b34801561030a57600080fd5b5061032560048036038101906103209190614035565b611b73565b6040516103329190614267565b60405180910390f35b34801561034757600080fd5b50610350611e6a565b60405161035d9190613be0565b60405180910390f35b34801561037257600080fd5b5061038d600480360381019061038891906142ee565b611e70565b005b34801561039b57600080fd5b506103a4612285565b6040516103b1919061459b565b60405180910390f35b3480156103c657600080fd5b506103e160048036038101906103dc9190613ba4565b6126a4565b005b3480156103ef57600080fd5b5061040a60048036038101906104059190613ba4565b612c03565b005b34801561041857600080fd5b50610433600480360381019061042e9190614035565b612dc6565b005b61044f600480360381019061044a91906145bd565b612ebd565b005b60006004600084815260200190815260200160002060405180610160016040529081600082015481526020016001820160009054906101000a900473ffffffffffffffffffffffffffffffffffffffff1673ffffffffffffffffffffffffffffffffffffffff1673ffffffffffffffffffffffffffffffffffffffff1681526020016002820154815260200160038201548152602001600482015481526020016005820154815260200160068201548152602001600782015481526020016008820160009054906101000a900473ffffffffffffffffffffffffffffffffffffffff1673ffffffffffffffffffffffffffffffffffffffff1673ffffffffffffffffffffffffffffffffffffffff1681526020016008820160149054906101000a900460ff16151515158152602001600982016040518060a00160405290816000820160009054906101000a900473ffffffffffffffffffffffffffffffffffffffff1673ffffffffffffffffffffffffffffffffffffffff1673ffffffffffffffffffffffffffffffffffffffff1681526020016001820180546105f590614653565b80601f016020809104026020016040519081016040528092919081815260200182805461062190614653565b801561066e5780601f106106435761010080835404028352916020019161066e565b820191906000526020600020905b81548152906001019060200180831161065157829003601f168201915b5050505050815260200160028201805461068790614653565b80601f01602080910402602001604051908101604052809291908181526020018280546106b390614653565b80156107005780601f106106d557610100808354040283529160200191610700565b820191906000526020600020905b8154815290600101906020018083116106e357829003601f168201915b5050505050815260200160038201805461071990614653565b80601f016020809104026020016040519081016040528092919081815260200182805461074590614653565b80156107925780601f1061076757610100808354040283529160200191610792565b820191906000526020600020905b81548152906001019060200180831161077557829003601f168201915b505050505081526020016004820180546107ab90614653565b80601f01602080910402602001604051908101604052809291908181526020018280546107d790614653565b80156108245780601f106107f957610100808354040283529160200191610824565b820191906000526020600020905b81548152906001019060200180831161080757829003601f168201915b505050505081525050815250509050600073ffffffffffffffffffffffffffffffffffffffff1681610100015173ffffffffffffffffffffffffffffffffffffffff16036108a7576040517f08c379a000000000000000000000000000000000000000000000000000000000815260040161089e906146d0565b60405180910390fd5b60008160e00151036108ee576040517f08c379a00000000000000000000000000000000000000000000000000000000081526004016108e59061473c565b60405180910390fd5b8173ffffffffffffffffffffffffffffffffffffffff163373ffffffffffffffffffffffffffffffffffffffff161461095c576040517f08c379a0000000000000000000000000000000000000000000000000000000008152600401610953906147ce565b60405180910390fd5b80608001518160a00151106109a6576040517f08c379a000000000000000000000000000000000000000000000000000000000815260040161099d90614886565b60405180910390fd5b60006007600085815260200190815260200160002060003373ffffffffffffffffffffffffffffffffffffffff1673ffffffffffffffffffffffffffffffffffffffff16815260200190815260200160002054905060006007600086815260200190815260200160002060003373ffffffffffffffffffffffffffffffffffffffff1673ffffffffffffffffffffffffffffffffffffffff168152602001908152602001600020819055508273ffffffffffffffffffffffffffffffffffffffff166108fc829081150290604051600060405180830381858888f19350505050158015610a97573d6000803e3d6000fd5b507f37e8063b72a944a76de602f32b82fd8c2a1c6f99564c727ffaf913c7762cd420843383604051610acb939291906148a6565b60405180910390a150505050565b60006007600083815260200190815260200160002060003373ffffffffffffffffffffffffffffffffffffffff1673ffffffffffffffffffffffffffffffffffffffff168152602001908152602001600020549050919050565b60606009805480602002602001604051908101604052809291908181526020016000905b82821015610e2757838290600052602060002090600502016040518060a00160405290816000820160009054906101000a900473ffffffffffffffffffffffffffffffffffffffff1673ffffffffffffffffffffffffffffffffffffffff1673ffffffffffffffffffffffffffffffffffffffff168152602001600182018054610be090614653565b80601f0160208091040260200160405190810160405280929190818152602001828054610c0c90614653565b8015610c595780601f10610c2e57610100808354040283529160200191610c59565b820191906000526020600020905b815481529060010190602001808311610c3c57829003601f168201915b50505050508152602001600282018054610c7290614653565b80601f0160208091040260200160405190810160405280929190818152602001828054610c9e90614653565b8015610ceb5780601f10610cc057610100808354040283529160200191610ceb565b820191906000526020600020905b815481529060010190602001808311610cce57829003601f168201915b50505050508152602001600382018054610d0490614653565b80601f0160208091040260200160405190810160405280929190818152602001828054610d3090614653565b8015610d7d5780601f10610d5257610100808354040283529160200191610d7d565b820191906000526020600020905b815481529060010190602001808311610d6057829003601f168201915b50505050508152602001600482018054610d9690614653565b80601f0160208091040260200160405190810160405280929190818152602001828054610dc290614653565b8015610e0f5780601f10610de457610100808354040283529160200191610e0f565b820191906000526020600020905b815481529060010190602001808311610df257829003601f168201915b50505050508152505081526020019060010190610b57565b50505050905090565b60066020528160005260406000208181548110610e4c57600080fd5b90600052602060002001600091509150505481565b3481148015610e705750600034115b610eaf576040517f08c379a0000000000000000000000000000000000000000000000000000000008152600401610ea690614929565b60405180910390fd5b6000600460008481526020019081526020016000209050600073ffffffffffffffffffffffffffffffffffffffff168160080160009054906101000a900473ffffffffffffffffffffffffffffffffffffffff1673ffffffffffffffffffffffffffffffffffffffff1603610f59576040517f08c379a0000000000000000000000000000000000000000000000000000000008152600401610f50906146d0565b60405180910390fd5b6000816007015414610fa0576040517f08c379a0000000000000000000000000000000000000000000000000000000008152600401610f9790614995565b60405180910390fd5b816007600085815260200190815260200160002060003373ffffffffffffffffffffffffffffffffffffffff1673ffffffffffffffffffffffffffffffffffffffff168152602001908152602001600020600082825461100091906149e4565b92505081905550600660003373ffffffffffffffffffffffffffffffffffffffff1673ffffffffffffffffffffffffffffffffffffffff1681526020019081526020016000208390806001815401808255809150506001900390600052602060002001600090919091909150558181600501600082825461108191906149e4565b925050819055508160056001856110989190614a3a565b815481106110a9576110a8614a6e565b5b90600052602060002090600e020160050160008282546110c991906149e4565b925050819055507fad7bc569ba73f7069270864414014159ad8170fbbcdd59c5e6ee660df787e961833384604051611103939291906148a6565b60405180910390a1505050565b611118613884565b73ffffffffffffffffffffffffffffffffffffffff16611136611198565b73ffffffffffffffffffffffffffffffffffffffff161461118c576040517f08c379a000000000000000000000000000000000000000000000000000000000815260040161118390614ae9565b60405180910390fd5b611196600061388c565b565b60008060009054906101000a900473ffffffffffffffffffffffffffffffffffffffff16905090565b6111c9613950565b6004600083815260200190815260200160002060405180610160016040529081600082015481526020016001820160009054906101000a900473ffffffffffffffffffffffffffffffffffffffff1673ffffffffffffffffffffffffffffffffffffffff1673ffffffffffffffffffffffffffffffffffffffff1681526020016002820154815260200160038201548152602001600482015481526020016005820154815260200160068201548152602001600782015481526020016008820160009054906101000a900473ffffffffffffffffffffffffffffffffffffffff1673ffffffffffffffffffffffffffffffffffffffff1673ffffffffffffffffffffffffffffffffffffffff1681526020016008820160149054906101000a900460ff16151515158152602001600982016040518060a00160405290816000820160009054906101000a900473ffffffffffffffffffffffffffffffffffffffff1673ffffffffffffffffffffffffffffffffffffffff1673ffffffffffffffffffffffffffffffffffffffff16815260200160018201805461136b90614653565b80601f016020809104026020016040519081016040528092919081815260200182805461139790614653565b80156113e45780601f106113b9576101008083540402835291602001916113e4565b820191906000526020600020905b8154815290600101906020018083116113c757829003601f168201915b505050505081526020016002820180546113fd90614653565b80601f016020809104026020016040519081016040528092919081815260200182805461142990614653565b80156114765780601f1061144b57610100808354040283529160200191611476565b820191906000526020600020905b81548152906001019060200180831161145957829003601f168201915b5050505050815260200160038201805461148f90614653565b80601f01602080910402602001604051908101604052809291908181526020018280546114bb90614653565b80156115085780601f106114dd57610100808354040283529160200191611508565b820191906000526020600020905b8154815290600101906020018083116114eb57829003601f168201915b5050505050815260200160048201805461152190614653565b80601f016020809104026020016040519081016040528092919081815260200182805461154d90614653565b801561159a5780601f1061156f5761010080835404028352916020019161159a565b820191906000526020600020905b81548152906001019060200180831161157d57829003601f168201915b505050505081525050815250509050919050565b60086020528060005260406000206000915090508060000160009054906101000a900473ffffffffffffffffffffffffffffffffffffffff16908060010180546115f790614653565b80601f016020809104026020016040519081016040528092919081815260200182805461162390614653565b80156116705780601f1061164557610100808354040283529160200191611670565b820191906000526020600020905b81548152906001019060200180831161165357829003601f168201915b50505050509080600201805461168590614653565b80601f01602080910402602001604051908101604052809291908181526020018280546116b190614653565b80156116fe5780601f106116d3576101008083540402835291602001916116fe565b820191906000526020600020905b8154815290600101906020018083116116e157829003601f168201915b50505050509080600301805461171390614653565b80601f016020809104026020016040519081016040528092919081815260200182805461173f90614653565b801561178c5780601f106117615761010080835404028352916020019161178c565b820191906000526020600020905b81548152906001019060200180831161176f57829003601f168201915b5050505050908060040180546117a190614653565b80601f01602080910402602001604051908101604052809291908181526020018280546117cd90614653565b801561181a5780601f106117ef5761010080835404028352916020019161181a565b820191906000526020600020905b8154815290600101906020018083116117fd57829003601f168201915b5050505050905085565b60046020528060005260406000206000915090508060000154908060010160009054906101000a900473ffffffffffffffffffffffffffffffffffffffff16908060020154908060030154908060040154908060050154908060060154908060070154908060080160009054906101000a900473ffffffffffffffffffffffffffffffffffffffff16908060080160149054906101000a900460ff1690806009016040518060a00160405290816000820160009054906101000a900473ffffffffffffffffffffffffffffffffffffffff1673ffffffffffffffffffffffffffffffffffffffff1673ffffffffffffffffffffffffffffffffffffffff16815260200160018201805461193690614653565b80601f016020809104026020016040519081016040528092919081815260200182805461196290614653565b80156119af5780601f10611984576101008083540402835291602001916119af565b820191906000526020600020905b81548152906001019060200180831161199257829003601f168201915b505050505081526020016002820180546119c890614653565b80601f01602080910402602001604051908101604052809291908181526020018280546119f490614653565b8015611a415780601f10611a1657610100808354040283529160200191611a41565b820191906000526020600020905b815481529060010190602001808311611a2457829003601f168201915b50505050508152602001600382018054611a5a90614653565b80601f0160208091040260200160405190810160405280929190818152602001828054611a8690614653565b8015611ad35780601f10611aa857610100808354040283529160200191611ad3565b820191906000526020600020905b815481529060010190602001808311611ab657829003601f168201915b50505050508152602001600482018054611aec90614653565b80601f0160208091040260200160405190810160405280929190818152602001828054611b1890614653565b8015611b655780601f10611b3a57610100808354040283529160200191611b65565b820191906000526020600020905b815481529060010190602001808311611b4857829003601f168201915b50505050508152505090508b565b611b7b6139de565b600860008373ffffffffffffffffffffffffffffffffffffffff1673ffffffffffffffffffffffffffffffffffffffff1681526020019081526020016000206040518060a00160405290816000820160009054906101000a900473ffffffffffffffffffffffffffffffffffffffff1673ffffffffffffffffffffffffffffffffffffffff1673ffffffffffffffffffffffffffffffffffffffff168152602001600182018054611c2b90614653565b80601f0160208091040260200160405190810160405280929190818152602001828054611c5790614653565b8015611ca45780601f10611c7957610100808354040283529160200191611ca4565b820191906000526020600020905b815481529060010190602001808311611c8757829003601f168201915b50505050508152602001600282018054611cbd90614653565b80601f0160208091040260200160405190810160405280929190818152602001828054611ce990614653565b8015611d365780601f10611d0b57610100808354040283529160200191611d36565b820191906000526020600020905b815481529060010190602001808311611d1957829003601f168201915b50505050508152602001600382018054611d4f90614653565b80601f0160208091040260200160405190810160405280929190818152602001828054611d7b90614653565b8015611dc85780601f10611d9d57610100808354040283529160200191611dc8565b820191906000526020600020905b815481529060010190602001808311611dab57829003601f168201915b50505050508152602001600482018054611de190614653565b80601f0160208091040260200160405190810160405280929190818152602001828054611e0d90614653565b8015611e5a5780601f10611e2f57610100808354040283529160200191611e5a565b820191906000526020600020905b815481529060010190602001808311611e3d57829003601f168201915b5050505050815250509050919050565b60035481565b611e78613884565b73ffffffffffffffffffffffffffffffffffffffff16611e96611198565b73ffffffffffffffffffffffffffffffffffffffff1614611eec576040517f08c379a0000000000000000000000000000000000000000000000000000000008152600401611ee390614ae9565b60405180910390fd5b60008989905011611f32576040517f08c379a0000000000000000000000000000000000000000000000000000000008152600401611f2990614b55565b60405180910390fd5b60008585905011611f78576040517f08c379a0000000000000000000000000000000000000000000000000000000008152600401611f6f90614bc1565b60405180910390fd5b600073ffffffffffffffffffffffffffffffffffffffff168173ffffffffffffffffffffffffffffffffffffffff1603611fe7576040517f08c379a0000000000000000000000000000000000000000000000000000000008152600401611fde90614c2d565b60405180910390fd5b60006040518060a001604052808373ffffffffffffffffffffffffffffffffffffffff1681526020018b8b8080601f016020809104026020016040519081016040528093929190818152602001838380828437600081840152601f19601f82011690508083019250505050505050815260200189898080601f016020809104026020016040519081016040528093929190818152602001838380828437600081840152601f19601f82011690508083019250505050505050815260200187878080601f016020809104026020016040519081016040528093929190818152602001838380828437600081840152601f19601f82011690508083019250505050505050815260200185858080601f016020809104026020016040519081016040528093929190818152602001838380828437600081840152601f19601f82011690508083019250505050505050815250905080600860008473ffffffffffffffffffffffffffffffffffffffff1673ffffffffffffffffffffffffffffffffffffffff16815260200190815260200160002060008201518160000160006101000a81548173ffffffffffffffffffffffffffffffffffffffff021916908373ffffffffffffffffffffffffffffffffffffffff16021790555060208201518160010190805190602001906121db929190613a23565b5060408201518160020190805190602001906121f8929190613a23565b506060820151816003019080519060200190612215929190613a23565b506080820151816004019080519060200190612232929190613a23565b509050507f9d149607b35531090b5116679ec7a10b37268e2ba17e04d51a298d7ee87cd032828b8b898989896040516122719796959493929190614c89565b60405180910390a150505050505050505050565b60606005805480602002602001604051908101604052809291908181526020016000905b8282101561269b57838290600052602060002090600e020160405180610160016040529081600082015481526020016001820160009054906101000a900473ffffffffffffffffffffffffffffffffffffffff1673ffffffffffffffffffffffffffffffffffffffff1673ffffffffffffffffffffffffffffffffffffffff1681526020016002820154815260200160038201548152602001600482015481526020016005820154815260200160068201548152602001600782015481526020016008820160009054906101000a900473ffffffffffffffffffffffffffffffffffffffff1673ffffffffffffffffffffffffffffffffffffffff1673ffffffffffffffffffffffffffffffffffffffff1681526020016008820160149054906101000a900460ff16151515158152602001600982016040518060a00160405290816000820160009054906101000a900473ffffffffffffffffffffffffffffffffffffffff1673ffffffffffffffffffffffffffffffffffffffff1673ffffffffffffffffffffffffffffffffffffffff16815260200160018201805461245090614653565b80601f016020809104026020016040519081016040528092919081815260200182805461247c90614653565b80156124c95780601f1061249e576101008083540402835291602001916124c9565b820191906000526020600020905b8154815290600101906020018083116124ac57829003601f168201915b505050505081526020016002820180546124e290614653565b80601f016020809104026020016040519081016040528092919081815260200182805461250e90614653565b801561255b5780601f106125305761010080835404028352916020019161255b565b820191906000526020600020905b81548152906001019060200180831161253e57829003601f168201915b5050505050815260200160038201805461257490614653565b80601f01602080910402602001604051908101604052809291908181526020018280546125a090614653565b80156125ed5780601f106125c2576101008083540402835291602001916125ed565b820191906000526020600020905b8154815290600101906020018083116125d057829003601f168201915b5050505050815260200160048201805461260690614653565b80601f016020809104026020016040519081016040528092919081815260200182805461263290614653565b801561267f5780601f106126545761010080835404028352916020019161267f565b820191906000526020600020905b81548152906001019060200180831161266257829003601f168201915b50505050508152505081525050815260200190600101906122a9565b50505050905090565b60006004600083815260200190815260200160002060405180610160016040529081600082015481526020016001820160009054906101000a900473ffffffffffffffffffffffffffffffffffffffff1673ffffffffffffffffffffffffffffffffffffffff1673ffffffffffffffffffffffffffffffffffffffff1681526020016002820154815260200160038201548152602001600482015481526020016005820154815260200160068201548152602001600782015481526020016008820160009054906101000a900473ffffffffffffffffffffffffffffffffffffffff1673ffffffffffffffffffffffffffffffffffffffff1673ffffffffffffffffffffffffffffffffffffffff1681526020016008820160149054906101000a900460ff16151515158152602001600982016040518060a00160405290816000820160009054906101000a900473ffffffffffffffffffffffffffffffffffffffff1673ffffffffffffffffffffffffffffffffffffffff1673ffffffffffffffffffffffffffffffffffffffff16815260200160018201805461284890614653565b80601f016020809104026020016040519081016040528092919081815260200182805461287490614653565b80156128c15780601f10612896576101008083540402835291602001916128c1565b820191906000526020600020905b8154815290600101906020018083116128a457829003601f168201915b505050505081526020016002820180546128da90614653565b80601f016020809104026020016040519081016040528092919081815260200182805461290690614653565b80156129535780601f1061292857610100808354040283529160200191612953565b820191906000526020600020905b81548152906001019060200180831161293657829003601f168201915b5050505050815260200160038201805461296c90614653565b80601f016020809104026020016040519081016040528092919081815260200182805461299890614653565b80156129e55780601f106129ba576101008083540402835291602001916129e5565b820191906000526020600020905b8154815290600101906020018083116129c857829003601f168201915b505050505081526020016004820180546129fe90614653565b80601f0160208091040260200160405190810160405280929190818152602001828054612a2a90614653565b8015612a775780601f10612a4c57610100808354040283529160200191612a77565b820191906000526020600020905b815481529060010190602001808311612a5a57829003601f168201915b505050505081525050815250509050600073ffffffffffffffffffffffffffffffffffffffff1681610100015173ffffffffffffffffffffffffffffffffffffffff1603612afa576040517f08c379a0000000000000000000000000000000000000000000000000000000008152600401612af1906146d0565b60405180910390fd5b60008160e0015103612b41576040517f08c379a0000000000000000000000000000000000000000000000000000000008152600401612b389061473c565b60405180910390fd5b80608001518160a001511015612b8c576040517f08c379a0000000000000000000000000000000000000000000000000000000008152600401612b8390614d5b565b60405180910390fd5b600081610100015190508160a0015160036000828254612bac91906149e4565b925050819055508073ffffffffffffffffffffffffffffffffffffffff166108fc8360a001519081150290604051600060405180830381858888f19350505050158015612bfd573d6000803e3d6000fd5b50505050565b6000600460008381526020019081526020016000209050600073ffffffffffffffffffffffffffffffffffffffff168160080160009054906101000a900473ffffffffffffffffffffffffffffffffffffffff1673ffffffffffffffffffffffffffffffffffffffff1603612cad576040517f08c379a0000000000000000000000000000000000000000000000000000000008152600401612ca4906146d0565b60405180910390fd5b6000816007015414612cf4576040517f08c379a0000000000000000000000000000000000000000000000000000000008152600401612ceb90614dc7565b60405180910390fd5b80600601548160020154612d0891906149e4565b421015612d4a576040517f08c379a0000000000000000000000000000000000000000000000000000000008152600401612d4190614e33565b60405180910390fd5b428160070181905550426005600184612d639190614a3a565b81548110612d7457612d73614a6e565b5b90600052602060002090600e0201600701819055507f60a64a73dcaed7ed02d10c6e33044bacd2299257812c69542e92c61fcd79fc608242604051612dba929190614e53565b60405180910390a15050565b612dce613884565b73ffffffffffffffffffffffffffffffffffffffff16612dec611198565b73ffffffffffffffffffffffffffffffffffffffff1614612e42576040517f08c379a0000000000000000000000000000000000000000000000000000000008152600401612e3990614ae9565b60405180910390fd5b600073ffffffffffffffffffffffffffffffffffffffff168173ffffffffffffffffffffffffffffffffffffffff1603612eb1576040517f08c379a0000000000000000000000000000000000000000000000000000000008152600401612ea890614eee565b60405180910390fd5b612eba8161388c565b50565b3484148015612ecc5750600034115b612f0b576040517f08c379a0000000000000000000000000000000000000000000000000000000008152600401612f0290614f5a565b60405180910390fd5b838311612f4d576040517f08c379a0000000000000000000000000000000000000000000000000000000008152600401612f4490614fec565b60405180910390fd5b6236ee80821015612f93576040517f08c379a0000000000000000000000000000000000000000000000000000000008152600401612f8a90615058565b60405180910390fd5b600073ffffffffffffffffffffffffffffffffffffffff168173ffffffffffffffffffffffffffffffffffffffff1603613002576040517f08c379a0000000000000000000000000000000000000000000000000000000008152600401612ff9906150c4565b60405180910390fd5b600080600860008473ffffffffffffffffffffffffffffffffffffffff1673ffffffffffffffffffffffffffffffffffffffff1681526020019081526020016000206040518060a00160405290816000820160009054906101000a900473ffffffffffffffffffffffffffffffffffffffff1673ffffffffffffffffffffffffffffffffffffffff1673ffffffffffffffffffffffffffffffffffffffff1681526020016001820180546130b590614653565b80601f01602080910402602001604051908101604052809291908181526020018280546130e190614653565b801561312e5780601f106131035761010080835404028352916020019161312e565b820191906000526020600020905b81548152906001019060200180831161311157829003601f168201915b5050505050815260200160028201805461314790614653565b80601f016020809104026020016040519081016040528092919081815260200182805461317390614653565b80156131c05780601f10613195576101008083540402835291602001916131c0565b820191906000526020600020905b8154815290600101906020018083116131a357829003601f168201915b505050505081526020016003820180546131d990614653565b80601f016020809104026020016040519081016040528092919081815260200182805461320590614653565b80156132525780601f1061322757610100808354040283529160200191613252565b820191906000526020600020905b81548152906001019060200180831161323557829003601f168201915b5050505050815260200160048201805461326b90614653565b80601f016020809104026020016040519081016040528092919081815260200182805461329790614653565b80156132e45780601f106132b9576101008083540402835291602001916132e4565b820191906000526020600020905b8154815290600101906020018083116132c757829003601f168201915b50505050508152505090508273ffffffffffffffffffffffffffffffffffffffff16816000015173ffffffffffffffffffffffffffffffffffffffff160361332b57600191505b600060405180610160016040528060025481526020013373ffffffffffffffffffffffffffffffffffffffff168152602001428152602001888152602001878152602001888152602001868152602001600081526020018573ffffffffffffffffffffffffffffffffffffffff1681526020018415158152602001838152509050806004600060025481526020019081526020016000206000820151816000015560208201518160010160006101000a81548173ffffffffffffffffffffffffffffffffffffffff021916908373ffffffffffffffffffffffffffffffffffffffff16021790555060408201518160020155606082015181600301556080820151816004015560a0820151816005015560c0820151816006015560e082015181600701556101008201518160080160006101000a81548173ffffffffffffffffffffffffffffffffffffffff021916908373ffffffffffffffffffffffffffffffffffffffff1602179055506101208201518160080160146101000a81548160ff0219169083151502179055506101408201518160090160008201518160000160006101000a81548173ffffffffffffffffffffffffffffffffffffffff021916908373ffffffffffffffffffffffffffffffffffffffff1602179055506020820151816001019080519060200190613525929190613a23565b506040820151816002019080519060200190613542929190613a23565b50606082015181600301908051906020019061355f929190613a23565b50608082015181600401908051906020019061357c929190613a23565b50505090505060058190806001815401808255809150506001900390600052602060002090600e02016000909190919091506000820151816000015560208201518160010160006101000a81548173ffffffffffffffffffffffffffffffffffffffff021916908373ffffffffffffffffffffffffffffffffffffffff16021790555060408201518160020155606082015181600301556080820151816004015560a0820151816005015560c0820151816006015560e082015181600701556101008201518160080160006101000a81548173ffffffffffffffffffffffffffffffffffffffff021916908373ffffffffffffffffffffffffffffffffffffffff1602179055506101208201518160080160146101000a81548160ff0219169083151502179055506101408201518160090160008201518160000160006101000a81548173ffffffffffffffffffffffffffffffffffffffff021916908373ffffffffffffffffffffffffffffffffffffffff1602179055506020820151816001019080519060200190613711929190613a23565b50604082015181600201908051906020019061372e929190613a23565b50606082015181600301908051906020019061374b929190613a23565b506080820151816004019080519060200190613768929190613a23565b50505050508660076000600254815260200190815260200160002060003373ffffffffffffffffffffffffffffffffffffffff1673ffffffffffffffffffffffffffffffffffffffff16815260200190815260200160002081905550600660003373ffffffffffffffffffffffffffffffffffffffff1673ffffffffffffffffffffffffffffffffffffffff16815260200190815260200160002060025490806001815401808255809150506001900390600052602060002001600090919091909150556002600081548092919061383f906150e4565b91905055507f9bf87e930f9c704058ff1ccbbe66d9516049c58ff2ad6f407f6a0567be5dbf19816040516138739190614013565b60405180910390a150505050505050565b600033905090565b60008060009054906101000a900473ffffffffffffffffffffffffffffffffffffffff169050816000806101000a81548173ffffffffffffffffffffffffffffffffffffffff021916908373ffffffffffffffffffffffffffffffffffffffff1602179055508173ffffffffffffffffffffffffffffffffffffffff168173ffffffffffffffffffffffffffffffffffffffff167f8be0079c531659141344cd1fd0a4f28419497f9722a3daafe3b4186f6b6457e060405160405180910390a35050565b60405180610160016040528060008152602001600073ffffffffffffffffffffffffffffffffffffffff168152602001600081526020016000815260200160008152602001600081526020016000815260200160008152602001600073ffffffffffffffffffffffffffffffffffffffff1681526020016000151581526020016139d86139de565b81525090565b6040518060a00160405280600073ffffffffffffffffffffffffffffffffffffffff168152602001606081526020016060815260200160608152602001606081525090565b828054613a2f90614653565b90600052602060002090601f016020900481019282613a515760008555613a98565b82601f10613a6a57805160ff1916838001178555613a98565b82800160010185558215613a98579182015b82811115613a97578251825591602001919060010190613a7c565b5b509050613aa59190613aa9565b5090565b5b80821115613ac2576000816000905550600101613aaa565b5090565b600080fd5b600080fd5b6000819050919050565b613ae381613ad0565b8114613aee57600080fd5b50565b600081359050613b0081613ada565b92915050565b600073ffffffffffffffffffffffffffffffffffffffff82169050919050565b6000613b3182613b06565b9050919050565b613b4181613b26565b8114613b4c57600080fd5b50565b600081359050613b5e81613b38565b92915050565b60008060408385031215613b7b57613b7a613ac6565b5b6000613b8985828601613af1565b9250506020613b9a85828601613b4f565b9150509250929050565b600060208284031215613bba57613bb9613ac6565b5b6000613bc884828501613af1565b91505092915050565b613bda81613ad0565b82525050565b6000602082019050613bf56000830184613bd1565b92915050565b600081519050919050565b600082825260208201905092915050565b6000819050602082019050919050565b6000613c3282613b06565b9050919050565b613c4281613c27565b82525050565b600081519050919050565b600082825260208201905092915050565b60005b83811015613c82578082015181840152602081019050613c67565b83811115613c91576000848401525b50505050565b6000601f19601f8301169050919050565b6000613cb382613c48565b613cbd8185613c53565b9350613ccd818560208601613c64565b613cd681613c97565b840191505092915050565b600060a083016000830151613cf96000860182613c39565b5060208301518482036020860152613d118282613ca8565b91505060408301518482036040860152613d2b8282613ca8565b91505060608301518482036060860152613d458282613ca8565b91505060808301518482036080860152613d5f8282613ca8565b9150508091505092915050565b6000613d788383613ce1565b905092915050565b6000602082019050919050565b6000613d9882613bfb565b613da28185613c06565b935083602082028501613db485613c17565b8060005b85811015613df05784840389528151613dd18582613d6c565b9450613ddc83613d80565b925060208a01995050600181019050613db8565b50829750879550505050505092915050565b60006020820190508181036000830152613e1c8184613d8d565b905092915050565b613e2d81613c27565b8114613e3857600080fd5b50565b600081359050613e4a81613e24565b92915050565b60008060408385031215613e6757613e66613ac6565b5b6000613e7585828601613e3b565b9250506020613e8685828601613af1565b9150509250929050565b60008060408385031215613ea757613ea6613ac6565b5b6000613eb585828601613af1565b9250506020613ec685828601613af1565b9150509250929050565b613ed981613c27565b82525050565b6000602082019050613ef46000830184613ed0565b92915050565b613f0381613ad0565b82525050565b60008115159050919050565b613f1e81613f09565b82525050565b600061016083016000830151613f3d6000860182613efa565b506020830151613f506020860182613c39565b506040830151613f636040860182613efa565b506060830151613f766060860182613efa565b506080830151613f896080860182613efa565b5060a0830151613f9c60a0860182613efa565b5060c0830151613faf60c0860182613efa565b5060e0830151613fc260e0860182613efa565b50610100830151613fd7610100860182613c39565b50610120830151613fec610120860182613f15565b506101408301518482036101408601526140068282613ce1565b9150508091505092915050565b6000602082019050818103600083015261402d8184613f24565b905092915050565b60006020828403121561404b5761404a613ac6565b5b600061405984828501613e3b565b91505092915050565b600082825260208201905092915050565b600061407e82613c48565b6140888185614062565b9350614098818560208601613c64565b6140a181613c97565b840191505092915050565b600060a0820190506140c16000830188613ed0565b81810360208301526140d38187614073565b905081810360408301526140e78186614073565b905081810360608301526140fb8185614073565b9050818103608083015261410f8184614073565b90509695505050505050565b61412481613f09565b82525050565b600060a0830160008301516141426000860182613c39565b506020830151848203602086015261415a8282613ca8565b915050604083015184820360408601526141748282613ca8565b9150506060830151848203606086015261418e8282613ca8565b915050608083015184820360808601526141a88282613ca8565b9150508091505092915050565b6000610160820190506141cb600083018e613bd1565b6141d8602083018d613ed0565b6141e5604083018c613bd1565b6141f2606083018b613bd1565b6141ff608083018a613bd1565b61420c60a0830189613bd1565b61421960c0830188613bd1565b61422660e0830187613bd1565b614234610100830186613ed0565b61424261012083018561411b565b818103610140830152614255818461412a565b90509c9b505050505050505050505050565b60006020820190508181036000830152614281818461412a565b905092915050565b600080fd5b600080fd5b600080fd5b60008083601f8401126142ae576142ad614289565b5b8235905067ffffffffffffffff8111156142cb576142ca61428e565b5b6020830191508360018202830111156142e7576142e6614293565b5b9250929050565b600080600080600080600080600060a08a8c0312156143105761430f613ac6565b5b60008a013567ffffffffffffffff81111561432e5761432d613acb565b5b61433a8c828d01614298565b995099505060208a013567ffffffffffffffff81111561435d5761435c613acb565b5b6143698c828d01614298565b975097505060408a013567ffffffffffffffff81111561438c5761438b613acb565b5b6143988c828d01614298565b955095505060608a013567ffffffffffffffff8111156143bb576143ba613acb565b5b6143c78c828d01614298565b935093505060806143da8c828d01613e3b565b9150509295985092959850929598565b600081519050919050565b600082825260208201905092915050565b6000819050602082019050919050565b60006101608301600083015161442f6000860182613efa565b5060208301516144426020860182613c39565b5060408301516144556040860182613efa565b5060608301516144686060860182613efa565b50608083015161447b6080860182613efa565b5060a083015161448e60a0860182613efa565b5060c08301516144a160c0860182613efa565b5060e08301516144b460e0860182613efa565b506101008301516144c9610100860182613c39565b506101208301516144de610120860182613f15565b506101408301518482036101408601526144f88282613ce1565b9150508091505092915050565b60006145118383614416565b905092915050565b6000602082019050919050565b6000614531826143ea565b61453b81856143f5565b93508360208202850161454d85614406565b8060005b85811015614589578484038952815161456a8582614505565b945061457583614519565b925060208a01995050600181019050614551565b50829750879550505050505092915050565b600060208201905081810360008301526145b58184614526565b905092915050565b600080600080608085870312156145d7576145d6613ac6565b5b60006145e587828801613af1565b94505060206145f687828801613af1565b935050604061460787828801613af1565b925050606061461887828801613e3b565b91505092959194509250565b7f4e487b7100000000000000000000000000000000000000000000000000000000600052602260045260246000fd5b6000600282049050600182168061466b57607f821691505b60208210810361467e5761467d614624565b5b50919050565b7f506c6564676520646f6573206e6f742065786973740000000000000000000000600082015250565b60006146ba601583614062565b91506146c582614684565b602082019050919050565b600060208201905081810360008301526146e9816146ad565b9050919050565b7f506c6564676520686173206e6f7420656e646564000000000000000000000000600082015250565b6000614726601483614062565b9150614731826146f0565b602082019050919050565b6000602082019050818103600083015261475581614719565b9050919050565b7f53656e646572206d757374206265207468652061646472657373206f6620746860008201527f652062656e656669636961727900000000000000000000000000000000000000602082015250565b60006147b8602d83614062565b91506147c38261475c565b604082019050919050565b600060208201905081810360008301526147e7816147ab565b9050919050565b7f506c6564676520686173207265616368656420676f616c20616d6f756e742c2060008201527f63616e6e6f742077697468647261772e2046756e647320617265206f6e6c792060208201527f776974686472617761626c652062792074686520636861726974792e00000000604082015250565b6000614870605c83614062565b915061487b826147ee565b606082019050919050565b6000602082019050818103600083015261489f81614863565b9050919050565b60006060820190506148bb6000830186613bd1565b6148c86020830185613ed0565b6148d56040830184613bd1565b949350505050565b7f416d6f756e74206d7573742062652067726561746572207468616e2030000000600082015250565b6000614913601d83614062565b915061491e826148dd565b602082019050919050565b6000602082019050818103600083015261494281614906565b9050919050565b7f506c656467652068617320656e64656400000000000000000000000000000000600082015250565b600061497f601083614062565b915061498a82614949565b602082019050919050565b600060208201905081810360008301526149ae81614972565b9050919050565b7f4e487b7100000000000000000000000000000000000000000000000000000000600052601160045260246000fd5b60006149ef82613ad0565b91506149fa83613ad0565b9250827fffffffffffffffffffffffffffffffffffffffffffffffffffffffffffffffff03821115614a2f57614a2e6149b5565b5b828201905092915050565b6000614a4582613ad0565b9150614a5083613ad0565b925082821015614a6357614a626149b5565b5b828203905092915050565b7f4e487b7100000000000000000000000000000000000000000000000000000000600052603260045260246000fd5b7f4f776e61626c653a2063616c6c6572206973206e6f7420746865206f776e6572600082015250565b6000614ad3602083614062565b9150614ade82614a9d565b602082019050919050565b60006020820190508181036000830152614b0281614ac6565b9050919050565b7f43686172697479206e616d65206973206120726571756972656420706172616d600082015250565b6000614b3f602083614062565b9150614b4a82614b09565b602082019050919050565b60006020820190508181036000830152614b6e81614b32565b9050919050565b7f576562736974652055524c206973206120726571756972656420706172616d00600082015250565b6000614bab601f83614062565b9150614bb682614b75565b602082019050919050565b60006020820190508181036000830152614bda81614b9e565b9050919050565b7f4164647265737320697320726571756972656400000000000000000000000000600082015250565b6000614c17601383614062565b9150614c2282614be1565b602082019050919050565b60006020820190508181036000830152614c4681614c0a565b9050919050565b82818337600083830152505050565b6000614c688385614062565b9350614c75838584614c4d565b614c7e83613c97565b840190509392505050565b6000608082019050614c9e600083018a613ed0565b8181036020830152614cb181888a614c5c565b90508181036040830152614cc6818688614c5c565b90508181036060830152614cdb818486614c5c565b905098975050505050505050565b7f506c6564676520686173206e6f74207265616368656420676f616c20616d6f7560008201527f6e742e0000000000000000000000000000000000000000000000000000000000602082015250565b6000614d45602383614062565b9150614d5082614ce9565b604082019050919050565b60006020820190508181036000830152614d7481614d38565b9050919050565b7f506c656467652068617320616c726561647920656e6465640000000000000000600082015250565b6000614db1601883614062565b9150614dbc82614d7b565b602082019050919050565b60006020820190508181036000830152614de081614da4565b9050919050565b7f506c6564676520686173206e6f7420656e646564207965740000000000000000600082015250565b6000614e1d601883614062565b9150614e2882614de7565b602082019050919050565b60006020820190508181036000830152614e4c81614e10565b9050919050565b6000604082019050614e686000830185613bd1565b614e756020830184613bd1565b9392505050565b7f4f776e61626c653a206e6577206f776e657220697320746865207a65726f206160008201527f6464726573730000000000000000000000000000000000000000000000000000602082015250565b6000614ed8602683614062565b9150614ee382614e7c565b604082019050919050565b60006020820190508181036000830152614f0781614ecb565b9050919050565b7f506c65646765206d7573742062652067726561746572207468616e2030000000600082015250565b6000614f44601d83614062565b9150614f4f82614f0e565b602082019050919050565b60006020820190508181036000830152614f7381614f37565b9050919050565b7f476f616c20616d6f756e74206d7573742062652067726561746572207468616e60008201527f2074686520696e697469616c20706c6564676500000000000000000000000000602082015250565b6000614fd6603383614062565b9150614fe182614f7a565b604082019050919050565b6000602082019050818103600083015261500581614fc9565b9050919050565b7f4475726174696f6e206d757374206265206174206c65617374203120686f7572600082015250565b6000615042602083614062565b915061504d8261500c565b602082019050919050565b6000602082019050818103600083015261507181615035565b9050919050565b7f4368617269747920616464726573732063616e6e6f7420626520300000000000600082015250565b60006150ae601b83614062565b91506150b982615078565b602082019050919050565b600060208201905081810360008301526150dd816150a1565b9050919050565b60006150ef82613ad0565b91507fffffffffffffffffffffffffffffffffffffffffffffffffffffffffffffffff8203615121576151206149b5565b5b60018201905091905056fea264697066735822122012a729f5e0fb7f8491d2213925b98567366de27304f8ab4dfd012d14acacb6dd64736f6c634300080e0033",
  "immutableReferences": {},
  "source": "// SPDX-License-Identifier: MIT\npragma solidity 0.8.14;\n\nimport \"@openzeppelin/contracts/access/Ownable.sol\";\n\ncontract Hakuai is Ownable {\n\n  address _owner;\n  \n  struct Charity {\n    address addr;\n    string name;\n    string description;\n    string websiteUrl;\n    string imageUrl;\n  }\n  struct Pledge {\n    uint256 id;\n    address creator;\n    uint256 createdAt;\n    uint256 initialPledge;\n    uint256 goalAmount;\n    uint256 raisedAmount;\n    uint256 duration;\n    uint256 endedAt;\n    address charityAddress;\n    bool isVerified;\n    Charity charity;\n  }\n\n\n  uint256 pledgeCounter = 1;\n  uint256 public totalClaimedByCharities = 0;\n  mapping (uint256 => Pledge) public pledges;\n  Pledge[] pledgeArray;\n  mapping (address => uint256[]) public pledgesContributedTo;\n  mapping (uint256 => mapping (address => uint256)) pledgeContributions;\n  mapping (address => Charity) public verifiedCharities;\n  Charity[] verifiedCharityArray;\n\n  event PledgeCreated(Pledge pledge);\n  event PledgeContribution(uint256 pledgeId, address contributor, uint256 amount);\n  event PledgeEnded(uint256 pledgeId, uint256 timestamp);\n  event Withdrawal(uint256 pledgeId, address contributor, uint256 amount);\n  event CharityCreated(address addr, string name, string websiteUrl, string imageUrl);\n\n\n  constructor () {\n    _owner = msg.sender;\n  }\n\n  function createPledge(uint256 initialPledge, uint256 goalAmount, uint256 duration, address charityAddress) public payable {\n    require(initialPledge == msg.value && msg.value > 0, \"Pledge must be greater than 0\");\n    require(goalAmount > initialPledge, \"Goal amount must be greater than the initial pledge\");\n    require(duration >= 3600000, \"Duration must be at least 1 hour\");\n    require(charityAddress != address(0), \"Charity address cannot be 0\");\n\n    bool isVerified = false;\n    Charity memory charity = verifiedCharities[charityAddress];\n    if (charity.addr == charityAddress) {\n      isVerified = true;\n    }\n\n    Pledge memory pledge = Pledge(\n      pledgeCounter,\n      msg.sender,\n      block.timestamp,\n      initialPledge,\n      goalAmount,\n      initialPledge,\n      duration,\n      0,\n      charityAddress,\n      isVerified,\n      charity\n    );\n    pledges[pledgeCounter] = pledge;\n    pledgeArray.push(pledge);\n\n    pledgeContributions[pledgeCounter][msg.sender] = initialPledge;\n    pledgesContributedTo[msg.sender].push(pledgeCounter);\n\n    pledgeCounter++;\n\n    emit PledgeCreated(pledge);\n  }\n\n  function getPledge(uint256 pledge) public view returns (Pledge memory) {\n    return pledges[pledge];\n  }\n\n  function getPledges() public view returns (Pledge[] memory) {\n    return pledgeArray;\n  }\n\n  function contributeToPledge(uint256 pledgeId, uint256 amount) public payable {\n    require(amount == msg.value && msg.value > 0, \"Amount must be greater than 0\");\n\n    Pledge storage pledge = pledges[pledgeId];\n\n    require(pledge.charityAddress != address(0), \"Pledge does not exist\");\n    require(pledge.endedAt == 0, \"Pledge has ended\");\n\n    pledgeContributions[pledgeId][msg.sender] += amount;\n    pledgesContributedTo[msg.sender].push(pledgeId);\n\n    pledge.raisedAmount += amount;\n    pledgeArray[pledgeId - 1].raisedAmount += amount;\n\n    emit PledgeContribution(pledgeId, msg.sender, amount);\n  }\n\n  function howMuchDidIContribute(uint256 pledgeId) public view returns (uint256) {\n    return pledgeContributions[pledgeId][msg.sender];\n  }\n\n  function endPledge(uint256 pledgeId) public {\n    Pledge storage pledge = pledges[pledgeId];\n\n    require(pledge.charityAddress != address(0), \"Pledge does not exist\");\n    require(pledge.endedAt == 0, \"Pledge has already ended\");\n    require(block.timestamp >= pledge.createdAt + pledge.duration, \"Pledge has not ended yet\");\n\n    pledge.endedAt = block.timestamp;\n    pledgeArray[pledgeId - 1].endedAt = block.timestamp;\n\n    emit PledgeEnded(pledgeId, block.timestamp);\n  }\n\n  function withdraw(uint256 pledgeId, address payable addr) public {\n    Pledge memory pledge = pledges[pledgeId];\n    require(pledge.charityAddress != address(0), \"Pledge does not exist\");\n    require(pledge.endedAt != 0, \"Pledge has not ended\");\n    require(msg.sender == addr, \"Sender must be the address of the beneficiary\");\n    require(pledge.raisedAmount < pledge.goalAmount, \"Pledge has reached goal amount, cannot withdraw. Funds are only withdrawable by the charity.\");\n\n    uint256 contributed = pledgeContributions[pledgeId][msg.sender];\n    pledgeContributions[pledgeId][msg.sender] = 0;\n    addr.transfer(contributed);\n\n    emit Withdrawal(pledgeId, msg.sender, contributed);\n  }\n\n  function withdrawForCharity(uint256 pledgeId) public {\n    Pledge memory pledge = pledges[pledgeId];\n    require(pledge.charityAddress != address(0), \"Pledge does not exist\");\n    require(pledge.endedAt != 0, \"Pledge has not ended\");\n    require(pledge.raisedAmount >= pledge.goalAmount, \"Pledge has not reached goal amount.\");\n\n    address payable charityAddress = payable(pledge.charityAddress);\n    totalClaimedByCharities += pledge.raisedAmount;\n    charityAddress.transfer(pledge.raisedAmount);\n  }\n\n  function createVerifiedCharity(string calldata name, string calldata description,\n      string calldata websiteUrl, string calldata imageUrl, address addr) public onlyOwner {\n\n    require(bytes(name).length > 0, \"Charity name is a required param\");\n    require(bytes(websiteUrl).length > 0, \"Website URL is a required param\");\n    require(addr != address(0), \"Address is required\");\n\n    Charity memory charity = Charity(\n      addr,\n      name,\n      description,\n      websiteUrl,\n      imageUrl\n    );\n    verifiedCharities[addr] = charity;\n\n    emit CharityCreated(addr, name, websiteUrl, imageUrl);\n  }\n\n  function getVerifiedCharity(address addr) public view returns (Charity memory) {\n    return verifiedCharities[addr];\n  }\n\n  function getVerifiedCharities() public view returns (Charity[] memory) {\n    return verifiedCharityArray;\n  }\n\n}\n",
  "sourcePath": "/Users/chrisschnabel/projects/ethereum/shanghai-hackathon/truffle/contracts/Hakuai.sol",
  "compiler": {
    "name": "solc",
    "version": "0.8.14+commit.80d49f37.Emscripten.clang"
  },
  "schemaVersion": "3.4.7",
  "updatedAt": "2022-05-31T01:32:37.748Z",
  "networkType": "ethereum",
  "devdoc": {
    "kind": "dev",
    "methods": {
      "owner()": {
        "details": "Returns the address of the current owner."
      },
      "renounceOwnership()": {
        "details": "Leaves the contract without owner. It will not be possible to call `onlyOwner` functions anymore. Can only be called by the current owner. NOTE: Renouncing ownership will leave the contract without an owner, thereby removing any functionality that is only available to the owner."
      },
      "transferOwnership(address)": {
        "details": "Transfers ownership of the contract to a new account (`newOwner`). Can only be called by the current owner."
      }
    },
    "version": 1
  },
  "userdoc": {
    "kind": "user",
    "methods": {},
    "version": 1
  }
}